:020000040800F2
:10400000402000206D9A000841990008439900085B
:10401000919A0008959A0008999A000800000000FB
:104020000000000000000000000000009D9A000851
:104030004599000800000000A19A0008479900086F
:10404000A59A0008A99A0008AD9A0008B19A00083C
:10405000B59A0008B99A0008BD9A0008C19A0008EC
:10406000C59A0008C99A0008CD9A0008D19A00089C
:10407000D59A0008D99A00084F990008DD9A0008DF
:10408000E19A0008E59A0008E99A0008ED9A00080C
:10409000F19A0008F59A0008F99A0008FD9A0008BC
:1040A000019B0008059B0008099B00080D9B000868
:1040B000119B0008159B0008199B00081D9B000818
:1040C000219B0008259B0008299B00082D9B0008C8
:1040D000319B0008359B0008399B00083D9B000878
:1040E000419B0008459B0008499B00084D9B000828
:1040F000519B0008559B0008599B00085D9B0008D8
:10410000619B0008659B0008699B00086D9B000887
:10411000719B0008759B0008799B00087D9B000837
:10412000819B0008859B000859990008899B00081D
:104130008D9B0008919B0008959B0008999B0008A7
:104140009D9B0008A19B0008A59B0008A99B000857
:10415000AD9B0008B19B0008B59B0008B99B000807
:10416000BD9B0008C19B0008C59B0008C99B0008B7
:10417000CD9B0008D19B0008D59B000800000000E3
:10418000D99B0008DD9B00082DE9F84304000025B9
:10419000002600275FF000082068000534D5606E17
:1041A000002812D0B0F5800F15D0B0F5000F03D065
:1041B000B0F5400F16D016E0DFF8EC05006850F4BB
:1041C0008030DFF8E41508600FE00021201D00F0CA
:1041D00085FF070009E0002114F1200001F062F8DA
:1041E000070002E001E001200700FFB2002F0AD122
:1041F000DFF8B805006830F44000616E0843DFF86E
:10420000AC15086000E0B8462068C00434D5A06E44
:10421000002812D0B0F1807F15D0B0F1007F03D01C
:10422000B0F1407F16D016E0DFF87C05006850F44E
:104230008030DFF8741508600FE00021201D00F0C9
:104240004DFF070009E0002114F1200001F02AF8D9
:10425000070002E001E001200700FFB2002F0AD1B1
:10426000DFF84805006830F04070A16E0843DFF8C1
:104270003C15086000E0B8462068800340F1898062
:104280005FF00009DFF828050068C00010D4DFF8EF
:104290002005006850F08050DFF814150860DFF842
:1042A0001005006810F080500090009801208146B1
:1042B000DFF80005006850F48070DFF8F81408603B
:1042C00001F0C6F80600DFF8EC040068C00506D46B
:1042D00001F0BEF8801B0328F5D303200700FFB2CE
:1042E000002F48D1DFF8D004006810F440700500BA
:1042F000002D1CD0D4F88400854218D0DFF8B80413
:10430000006830F440700500DFF8AC04006850F439
:104310008030DFF8A4140860DFF89C04006830F4F3
:104320008030DFF894140860DFF88C040560E8073B
:1043300010D501F08DF80600DFF87C0400688007D6
:1043400008D401F085F8801B41F289318842F3D30B
:1043500003200700FFB2002F0BD1DFF85C040068D8
:1043600030F44070D4F884100843DFF84C1408602F
:1043700002E0B84600E0B8465FFA89F9B9F1010FEA
:1043800007D1DFF82C04006830F08050DFF82014EB
:1043900008602078C00709D5DFF81004006880089D
:1043A0008000A16B0843DFF80414086020788007C0
:1043B00009D5DFF8F803006830F00C00E16B084322
:1043C000DFF8E81308602078400709D5DFF8DC0340
:1043D000006830F03000216C0843DFF8D01308602B
:1043E0002078000709D5DFF8C403006830F0C0006A
:1043F000616C0843DFF8B41308602078C00609D563
:10440000DFF8A803006830F44070A16C0843DFF8BF
:104410009C1308602078800609D5DFF890030068B7
:1044200030F44060E16C0843DFF8801308602068D6
:10443000800509D5DFF87403006830F44020E16D91
:104440000843DFF8681308602068400508D5DFF8E6
:104450005C03006830F44010216E0843D3490860C3
:104460002078400607D5D148006830F44050216DCF
:104470000843CE4908602078000607D5CB4800687D
:1044800030F44040616D0843C84908602068C005A9
:1044900007D5C648006830F44030A16D0843C349D1
:1044A0000860206880041FD5C048006830F0406074
:1044B000E16E0843BD490860E06EB0F1006F06D1BF
:1044C000B948006850F48010B74908600CE0E06E0D
:1044D000B0F1806F08D10121201D00F0FFFD070021
:1044E000FFB2002F00D0B846206800031FD5AF48A8
:1044F000006830F04060216F0843AC490860206FCD
:10450000B0F1006F06D1A848006850F48010A649A9
:1045100008600CE0206FB0F1806F08D10121201DF0
:1045200000F0DCFD0700FFB2002F00D0B846206885
:1045300040031FD59D48006830F04060616F08431C
:104540009A490860606FB0F1006F06D19648006824
:1045500050F48010944908600CE0606FB0F1806FF7
:1045600008D10121201D00F0B9FD0700FFB2002F86
:1045700000D0B8462068400423D58C48006830F04D
:104580004050A16F084389490860A06FB0F1805F77
:1045900009D10221201D00F0A1FD0700FFB2002F6C
:1045A0000FD0B8460DE0A06FB0F1005F09D1022135
:1045B00014F1200000F076FE0700FFB2002F00D0BB
:1045C000B8462068000407D57848006830F080407D
:1045D000E16F0843754908602068C00308D5734837
:1045E000006820F00040D4F8801008436F4908604C
:1045F0004046C0B2BDE8F283DFF87C1A01606A4928
:10460000096811F003015FF04042B2FA82F2D14032
:1046100041606549096811F070015FF06062B2FAAB
:1046200082F2D140491C8160DFF8501A096811F408
:10463000FE415FF47E02B2FA82F2D140C160DFF83F
:104640003C1A096811F400314FF48042B2FA82F248
:10465000D1400901C91D0161DFF8201A096811F470
:10466000C0014FF4C062B2FA82F2D140491C490045
:104670004161DFF8081A096811F0C0616022B2FADE
:1046800082F2D140491C4900816141680162816820
:104690004162DFF80C1A096811F4FE415FF47E02F2
:1046A000B2FA82F2D1408162DFF8F419096811F49C
:1046B00000314FF48042B2FA82F2D1400901C91DA3
:1046C000C162DFF8DC19096811F0C0616022B2FA3A
:1046D00082F2D140491C490001633449096811F054
:1046E000030181633149096811F00C01C1632F494D
:1046F000096811F0300101642C49096811F0C0010A
:1047000041642A49096811F44071816427490968A4
:1047100011F44061C1642549096811F440510165F3
:104720002249096811F4404141652049096811F4A2
:10473000403181651D49096811F44021C1651B495B
:10474000096811F4401101661849096811F4400123
:1047500041661649096811F0407181661649096879
:1047600011F44071C0F884101049096811F04061DB
:10477000C1660E49096811F0406101670B4909687B
:1047800011F0406141670949096811F040518167A2
:104790000649096811F08041C1670449096811F0B0
:1047A0000041C0F8801070470C1002408810024091
:1047B0005810024000700040901002402DE9F8436C
:1047C0000400002500265FF0000900275FF00008C4
:1047D000B4F5003F30D1DFF8CC08006810F4407029
:1047E0000600B6F5807F09D1DFF8B80800688007B9
:1047F00004D54FF40040050000F03ABCB6F5007F48
:1048000009D1DFF8A4080068800704D54FF4FA4006
:10481000050000F02DBCB6F5407F09D1DFF88C080B
:104820000068800304D5DFF88808050000F020BC8C
:104830000020050000F01CBCDFF87808006810F0CC
:104840000300012822D1DFF86408006880071AD528
:10485000DFF858080068000705D5DFF85008006841
:1048600010F0F00005E0DFF840080068000910F0E3
:10487000F00001210009001F11FA00F0DFF84C18C8
:1048800001FB00F92AE00020814627E0DFF8240838
:10489000006810F0030002280BD1DFF81008006850
:1048A000400503D5DFF82808814617E0002081463F
:1048B00014E0DFF80008006810F0030003280BD1B3
:1048C000DFF8E8070068800303D5DFF808088146B1
:1048D00004E00020814601E000208146DFF8D40793
:1048E000006810F070005FF06061B1FA81F1C840BB
:1048F000401CB9FBF0F081462000012800F06181E6
:10490000022800F08981042800F0B181082800F015
:10491000D981102800F00182202800F02C82402844
:1049200000F0BF82802800F0DE82B0F5807F00F0CA
:10493000FC82B0F5007F00F01A83B0F5806F00F0C4
:104940004983B0F5006F1BD0B0F5805F18D0B0F58B
:10495000005F00F0AD80B0F5804F00F03A82B0F516
:10496000004F00F06A83B0F5803F00F08A82B0F516
:10497000802F00F09D80B0F5002F00F0998077E344
:10498000B4F5006F0CD1DFF85007006810F4400058
:104990000600B6F5400F0FD14BF6803005000BE056
:1049A000DFF83407006810F040700600B6F1407F71
:1049B00002D14BF680300500002D78D1B6F5000FFE
:1049C00002D0B6F1007F22D1DFF8E8060068C0030C
:1049D0006DD5DFF8E006006810F4FE405FF47E015C
:1049E000B1FA81F1C8400700B8F1000F09D1DFF832
:1049F000C4060068800302D51120804601E007202C
:104A0000804607FB09F0B0FBF8F005004FE0002EF0
:104A100022D1DFF868060068C00348D5DFF85C06DD
:104A2000006810F4FE405FF47E01B1FA81F1C840E5
:104A30000700B8F1000F09D1DFF8400600688003D5
:104A400002D51120804601E00720804607FB09F0CF
:104A5000B0FBF8F005002AE0B6F5800F02D0B6F101
:104A6000807F22D1DFF838060068C0031FD5DFF849
:104A70003006006810F4FE405FF47E01B1FA81F167
:104A8000C8400700B8F1000F09D1DFF8140600682C
:104A9000800302D51120804601E00720804607FBF5
:104AA00009F0B0FBF8F0050001E000200500DFE2AE
:104AB000DFF82406006810F040600600B6F1406F91
:104AC00022D1DFF8E805006880071AD5DFF8DC0599
:104AD0000068000705D5DFF8D405006810F0F00085
:104AE00005E0DFF8C4050068000910F0F0000121BE
:104AF0000009001F11FA00F0DFF8D01501FB00F5E6
:104B00005EE0002005005BE0B6F1006F29D1DFF820
:104B10009C050068800121D5DFF898050068C00277
:104B20001CD5DFF89005006810F4FE405FF47E01AC
:104B3000B1FA81F1C8400700DFF87805006807FB8B
:104B400009F110F4C0004FF4C062B2FA82F2D04012
:104B5000401C4000B1FBF0F0050031E000200500F2
:104B60002EE0B6F1806F29D1DFF840050068000122
:104B700021D5DFF808050068C0021CD5DFF8FC0469
:104B8000006810F4FE405FF47E01B1FA81F1C84084
:104B90000700DFF8E804006807FB09F110F4C00023
:104BA0004FF4C062B2FA82F2D040401C4000B1FB28
:104BB000F0F0050004E00020050001E00020050001
:104BC00056E2DFF81405006810F003000600002E1E
:104BD00003D101F01FF905001DE0012E03D101F002
:104BE00058F8050017E0022E08D1DFF8C00400686D
:104BF000400503D5DFF8D80405000CE0032E08D1EA
:104C0000DFF8A0040068800703D54FF400400500DA
:104C100001E0002005002BE2DFF8BC04006810F082
:104C20000C000600002E03D101F0E4F805001DE0A1
:104C3000042E03D101F02DF8050017E0082E08D14D
:104C4000DFF868040068400503D5DFF88404050038
:104C50000CE00C2E08D1DFF84C040068800703D567
:104C60004FF40040050001E00020050000E2DFF8FD
:104C70006804006810F030000600002E03D101F037
:104C8000B9F805001DE0102E03D101F002F805006F
:104C900017E0202E08D1DFF814040068400503D582
:104CA000DFF82C0405000CE0302E08D1DFF8F40307
:104CB0000068800703D54FF40040050001E00020A4
:104CC0000500D5E1DFF81004006810F0C000060010
:104CD000002E03D101F08EF805001DE0402E03D117
:104CE00000F0D7FF050017E0802E08D1DFF8BC03E5
:104CF0000068400503D5DFF8D80305000CE0C02E9E
:104D000008D1DFF8A0030068800703D54FF4004006
:104D1000050001E000200500AAE1DFF8BC030068FF
:104D200010F440700600002E03D101F063F8050076
:104D300020E0B6F5807F03D100F0ABFF050019E05D
:104D4000B6F5007F08D1DFF864030068400503D59D
:104D5000DFF87C0305000DE0B6F5407F08D1DFF8F1
:104D600044030068800703D54FF40040050001E0CC
:104D7000002005007CE1DFF86003006810F440606B
:104D80000600002E03D101F035F8050020E0B6F54D
:104D9000806F03D100F07DFF050019E0B6F5006FCC
:104DA00008D1DFF808030068400503D5DFF82003C9
:104DB00005000DE0B6F5406F08D1DFF8E8020068A5
:104DC000800703D54FF40040050001E000200500F6
:104DD0004EE1DFF80403006810F040500600B6F121
:104DE000405F03D100F055FF050049E0B6F1805F58
:104DF00020D1DFF888020068C00141D5DFF87C02CD
:104E0000006810F4FE405FF47E01B1FA81F1C84001
:104E10000700DFF86802006807FB09F110F0C060C6
:104E20006022B2FA82F2D040401C4000B1FBF0F0A8
:104E3000050025E0B6F1005F20D1DFF864020068CC
:104E4000C0011DD5DFF85802006810F4FE405FF481
:104E50007E01B1FA81F1C8400700DFF84402006822
:104E600007FB09F110F0C0606022B2FA82F2D04074
:104E7000401C4000B1FBF0F0050001E000200500FF
:104E8000F6E0DFF85402006810F000400600002E43
:104E900003D100F0AFFF050002E000F0FAFE0500CC
:104EA000E6E0DFF83402006810F440500600002EFF
:104EB00003D100F09FFF050014E0B6F5805F03D139
:104EC00000F0E7FE05000DE0B6F5005F08D1DFF861
:104ED000DC010068400503D5DFF8F401050001E0BE
:104EE00000200500C4E0DFF8F001006810F4404045
:104EF0000600002E03D100F07DFF050014E0B6F59A
:104F0000804F03D100F0C5FE05000DE0B6F5004F5F
:104F100008D1DFF898010068400503D5DFF8B0013B
:104F2000050001E000200500A2E0DFF8AC01006808
:104F300010F440300600002E03D100F05BFF0500A6
:104F400014E0B6F5803F03D100F0A3FE05000DE0AC
:104F5000B6F5003F08D1DFF854010068400503D5DD
:104F6000DFF86C01050001E00020050080E0DFF8BB
:104F70006801006810F440200600002E03D100F004
:104F800039FF050025E0B6F5802F08D1DFF81801BC
:104F90000068800703D54FF4FA40050019E0B6F524
:104FA000002F08D1DFF804010068400503D5DFF8C1
:104FB000200105000DE0B6F5402F08D1DFF8E40030
:104FC0000068800703D54FF40040050001E0002091
:104FD00005004DE0DFF80001006810F44010060005
:104FE000002E03D100F006FF050025E0B6F5801F76
:104FF00008D1DFF8B4000068800703D54FF4FA4009
:10500000050019E0B6F5001F08D1DFF8A000006820
:10501000400503D5DFF8B80005000DE0B6F5401FE8
:1050200008D1DFF880000068800703D54FF4004006
:10503000050001E0002005001AE0DFF89C00006890
:1050400010F080400600002E03D100F0D3FE0500D2
:105050000DE0B6F1804F08D1DFF850000068400540
:1050600003D5DFF86C00050001E000200500FFE734
:105070002800BDE8F2830000FFFF0F00101002407F
:105080000848006830F0200006490860DFF8A803EF
:10509000006830F40070DFF8A0130860704700006B
:1050A0001410024090100240941002400010024080
:1050B00090D003000C100240DFF87403006850F039
:1050C0000400DFF86C1308607047000040420F00D6
:1050D0000024F40000127A0088100240F8B50400A1
:1050E0000D0000260027DFF84C03006810F0030FC6
:1050F0001BD0DFF84003006810F0030021688842ED
:1051000010D1206800280DD0DFF8280300685FF078
:105110006061B1FA81F110F07000C840401C616814
:10512000884239D00120070036E02068012804D0E9
:105130001CD303280FD007D318E0BD4800688007B0
:1051400001D40120070013E0B9480068400501D4EC
:10515000012007000CE0B6480068800305D4B4487D
:105160000068400301D40120070001E0012007008E
:10517000FFB2002F10D1AF4800685FF06061B1FA54
:1051800081F130F07300226810436268521E12FAF7
:1051900001F10843A7490860FFB2002F40F07F806B
:1051A000A348006830F08060A149086000F050F921
:1051B00006009F480068000106D500F049F9801BF1
:1051C0000328F6D303200700FFB2002F67D1002D7C
:1051D00016D19A4800685FF47E01B1FA81F14FF46C
:1051E0008042B2FA82F2964B1840A36813FA01F19A
:1051F0000843E1680909914008439049086031E09B
:10520000012D18D18D4801685FF47E00B0FA80F25C
:105210004FF4C060B0FA80F08A4B1940A36813FACB
:1052200002F2114322695208521E12FA00F008439A
:105230008249086016E0814801685FF47E00B0FA98
:1052400080F26020B0FA80F07F4B1940A36813FA17
:1052500002F2114362695208521E12FA00F008432A
:10526000764908607248006850F0806070490860B4
:1052700000F0EEF806006E480068000106D400F069
:10528000E7F8801B0328F6D303200700FFB2002FA6
:1052900005D16A480068A169084368490860380078
:1052A000C0B2F2BDF8B504000D0000260027614829
:1052B000006810F0030F19D05E48006810F003007A
:1052C000216888420FD1206800280CD05948006816
:1052D0005FF06061B1FA81F110F07000C840401CCD
:1052E0006168884239D00120070036E02068012833
:1052F00004D01CD303280FD007D318E04C48006813
:10530000800701D40120070013E0494800684005E8
:1053100001D4012007000CE045480068800305D453
:1053200043480068400301D40120070001E0012048
:105330000700FFB2002F10D13E4800685FF06061A7
:10534000B1FA81F130F07300226810436268521E96
:1053500012FA01F1084337490860FFB2002F63D108
:105360003348006830F080503149086000F070F830
:1053700006002F480068800006D500F069F8801B01
:105380000328F6D303200700FFB2002F4CD1002DD5
:1053900016D12E4800685FF47E01B1FA81F14FF416
:1053A0008042B2FA82F2264B1840A36813FA01F148
:1053B0000843E1680909914008432449086016E060
:1053C000224801685FF47E00B0FA80F26020B0FAF3
:1053D00080F01D4B1940A36813FA02F211432269B1
:1053E0005208521E12FA00F008431849086010488B
:1053F000006850F080500E49086000F029F806005F
:105400000B480068800006D400F022F8801B0328B7
:10541000F6D303200700FFB2002F05D10B48006828
:1054200061690843094908603800C0B2F2BD000054
:10543000001002400C1002401810024010100240F0
:10544000FF80FDFFFF809FFFFF80FFF914100240E7
:1054500001480068704700BFFC34002070B582B07E
:10546000040000252078C00640F1D380DFF8C80989
:10547000006810F00C0F7DD1DFF8B80900688007D4
:1054800004D5A069002801D101200EE3DFF8A409AA
:105490000068000705D5DFF89C09006810F0F000EF
:1054A00005E0DFF83C0A0068000910F0F000216A0E
:1054B000884224D2206A00F0C3FC002801D00120D9
:1054C000F3E2DFF87009006850F00800DFF86419B3
:1054D0000860DFF86009006830F0F000216A0843D6
:1054E000DFF850190860DFF8FC09006830F47F40ED
:1054F000E16950EA0120DFF8EC19086023E0DFF8E9
:105500003409006850F00800DFF828190860DFF857
:105510002409006830F0F000216A0843DFF814190C
:105520000860DFF8C009006830F47F40E16950EAA4
:105530000120DFF8B0190860206A00F081FC002823
:1055400001D00120B1E200F0A4FBDFF8EC180968FB
:10555000DFF8942911F0F0015FF07063B3FA83F380
:10556000D940515CC840DFF8741908600F2000F082
:10557000CFFC4EE0A069002834D0DFF8B8080068FE
:1055800050F00100DFF8AC180860FFF761FF05007C
:10559000DFF8A0080068800706D4FFF759FF401B1A
:1055A0000328F5D3032080E2DFF88808006850F074
:1055B0000800DFF880180860DFF87808006830F02D
:1055C000F000216A0843DFF86C180860DFF814095E
:1055D000006830F47F40E16950EA0120DFF80419E7
:1055E000086016E0DFF84C08006840084000DFF86B
:1055F00044180860FFF72CFF0500DFF83808006842
:10560000800706D5FFF724FF401B0328F5D30320AE
:105610004BE22078C00775D5DFF81C08006810F051
:105620000C0008280DD0DFF81008006810F00C00FE
:105630000C2810D1DFF80408006810F003000328DC
:1056400009D1DFF8F007006880035BD560680028A7
:1056500058D1012029E26068B0F5803F08D1DFF819
:10566000D407006850F48030DFF8C817086024E0E1
:105670006068B0F5A02F10D1DFF8B807006850F4CB
:105680008020DFF8B0170860DFF8A807006850F442
:105690008030DFF8A01708600FE0DFF89807006897
:1056A00030F48030DFF88C170860DFF88807006876
:1056B00030F48020DFF87C1708606068002810D084
:1056C000FFF7C6FE0500DFF86C070068800319D4F9
:1056D000FFF7BEFE401B41F289318842F3D303201D
:1056E000E3E1FFF7B5FE0500DFF848070068800337
:1056F00008D5FFF7ADFE401B41F289318842F3D354
:105700000320D2E1207880076FD5DFF82C070068EE
:1057100010F00C0004280DD0DFF81C07006810F012
:105720000C000C2820D1DFF81407006810F00300EB
:10573000022819D1DFF8FC060068400504D5E068AE
:10574000002801D10120B0E1DFF898070068F821B6
:10575000B1FA81F130F0F850226912FA01F10843F0
:10576000DFF88017086040E0E068002826D0DFF806
:10577000C406006850F48070DFF8B8160860FFF7C0
:1057800067FE0500DFF8AC060068400506D4FFF7A9
:105790005FFE401B0328F5D3032086E1DFF84407B2
:1057A0000068F821B1FA81F130F0F850226912FA5C
:1057B00001F10843DFF82C17086016E0DFF87406E3
:1057C000006830F48070DFF86C160860FFF740FE68
:1057D0000500DFF860060068400506D5FFF738FED3
:1057E000401B0328F5D303205FE12078000730D564
:1057F0006069002816D0DFF8E806006850F0010064
:10580000DFF8DC160860FFF723FE0500DFF8D0069E
:10581000006880071DD4FFF71BFE401B0328F5D34B
:10582000032042E1DFF8B806006840084000DFF8D6
:10583000B0160860FFF70CFE0500DFF8A40600684C
:10584000800706D5FFF704FE401B0328F5D303208D
:105850002BE12078400740F193800026DFF88C068A
:105860000068C00010D4DFF88406006850F0805053
:10587000DFF878160860DFF87406006810F08050D2
:105880000090009801200600DFF864060068C0055B
:1058900016D4DFF85C06006850F48070DFF850160C
:1058A0000860FFF7D5FD0500DFF844060068C00575
:1058B00006D4FFF7CDFD401B0328F5D30320F4E009
:1058C000A068012808D1DFF82C06006850F001001C
:1058D000DFF82016086023E0A068052810D1DFF863
:1058E0001406006850F00400DFF808160860DFF8BE
:1058F0000406006850F00100DFF8F81508600FE0BA
:10590000DFF8F005006840084000DFF8E81508609F
:10591000DFF8E005006830F00400DFF8D815086013
:10592000A068002810D0FFF793FD0500DFF8C4053C
:105930000068800719D4FFF78BFD401B41F28931C5
:105940008842F3D30320B0E0FFF782FD0500DFF8C3
:10595000A4050068800708D5FFF77AFD401B41F2D7
:1059600089318842F3D303209FE0F6B2012E07D19C
:10597000DFF87805006830F08050DFF870150860B7
:10598000A06A002800F09080DFF8AC04006810F0F6
:105990000C000C2800F08680A06A022850D1DFF8A5
:1059A0009404006830F08070DFF888140860FFF716
:1059B0004FFD0500DFF87C040068800106D5FFF785
:1059C00047FD401B0328F5D303206EE0206B401EEB
:1059D000616B090251EA0010A16B090950EA4140CC
:1059E000E16A0843E16B891E0905490D4905084331
:1059F000216C891E090611F07E410843DFF83C1432
:105A00000860DFF83004006850F08070DFF824147C
:105A10000860DFF82804006850F08070DFF81C147C
:105A20000860FFF715FD0500DFF808040068800135
:105A30003AD4FFF70DFD401B0328F5D3032034E0D3
:105A4000DFF8F003006830F08070DFF8E8130860DA
:105A5000DFF8E003006800010CD4DFF8D803006829
:105A6000800007D4DFF8D403006880088000DFF8E6
:105A7000CC130860DFF8C4030068DFF87C1408402A
:105A8000DFF8B8130860FFF7E3FC0500DFF8A403B4
:105A90000068800108D5FFF7DBFC401B0328F5D325
:105AA000032002E0012000E0002076BD70B5040074
:105AB0000D000026DFF84404006810F00700A8423B
:105AC00011D2DFF838040068C008C0002843DFF8AE
:105AD0002C140860DFF82404006810F00700A842C6
:105AE00001D00120D4E02078800709D5DFF84803F1
:105AF000006830F0F000A1680843DFF83C1308604C
:105B00002078C00779D56068022806D1DFF8240321
:105B1000006880031CD40120BAE06068032806D125
:105B2000DFF810030068800112D40120B0E0606843
:105B3000002806D1DFF8FC020068800708D40120A5
:105B4000A6E0DFF8F0020068400501D401209FE0E4
:105B5000DFF8E40200688008800061680843DFF82D
:105B6000D8120860FFF774FC0600606802280FD1A5
:105B7000DFF8C402006810F00C0008283DD0FFF7E1
:105B800067FC801B41F289318842F1D303207FE01A
:105B9000606803280FD1DFF8A002006810F00C0045
:105BA0000C282AD0FFF754FC801B41F2893188422F
:105BB000F1D303206CE0606800280ED1DFF8780292
:105BC000006810F00C0F18D0FFF742FC801B41F268
:105BD00089318842F2D303205AE0DFF85C02006882
:105BE00010F00C00042808D0FFF732FC801B41F2B3
:105BF00089318842F1D303204AE0DFF800030068CE
:105C000010F00700854211D2DFF8F0020068C008EA
:105C1000C0002843DFF8E4120860DFF8E002006803
:105C200010F00700A84201D0012031E020784007A1
:105C300009D5DFF80402006830F4E060E168084349
:105C4000DFF8F4110860207800070AD5DFF8E801D2
:105C5000006830F46050216950EAC100DFF8D811C3
:105C6000086000F016F8DFF8D0110968DFF8782234
:105C700011F0F0015FF07063B3FA83F3D940515C27
:105C8000C840DFF8581208600F2000F041F90020EA
:105C900070BDF0B400210022002302240225002060
:105CA000654E366816F00C0F0BD0634E366816F052
:105CB0000C060C2E2AD1614E366816F00306012E12
:105CC00024D15C4E366836070BD4DFF81462366890
:105CD00016F470665FF47007B7FA87F7FE4031007C
:105CE00009E0544E366816F0F0065FF07067B7FAB8
:105CF00087F7FE403100DFF8086256F821104E4E5B
:105D0000366816F00C0F14D1080012E04A4E3668BF
:105D100016F00C06042E03D1DFF8E861300008E02D
:105D2000454E366816F00C06082E02D1DFF8D86111
:105D30003000414E366816F00C060C2E55D13F4E01
:105D4000366816F0030633003C4E366816F07006CF
:105D50005FF06067B7FA87F7FE40761C35001E00DB
:105D6000022E02D0032E12D022E0344E3668DFF825
:105D70009471B7FBF5F716F4FE465FF47E0CBCFA9F
:105D80008CFC36FA0CF606FB07F632001FE02B4EB1
:105D900036685D4FB7FBF5F716F4FE465FF47E0CF0
:105DA000BCFA8CFC36FA0CF606FB07F632000EE065
:105DB000224E3668B1FBF5F716F4FE465FF47E0C12
:105DC000BCFA8CFC36FA0CF606FB07F632001B4ECA
:105DD000366816F0C0666027B7FA87F7FE40761C73
:105DE00076003400B2FBF4F63000F0BC70473B485C
:105DF0000068704780B5FFF7FAFF0F490968434A0A
:105E000011F4E0615FF46003B3FA83F3D940515CAD
:105E1000C84002BD80B5FFF7EAFF074909683B4A61
:105E200011F460515FF4E013B3FA83F3D940515C8D
:105E3000C84002BD00100240081002400C10024091
:105E400070B582B004000025002628480068C00014
:105E500003D500F071F8050014E02448006850F004
:105E60008050224908602148006810F0805000905E
:105E7000009800F061F805001C48006830F0805080
:105E80001A490860B5F5007F09D1812C15D3A12CE2
:105E900002D30220060010E0012006000DE0812C54
:105EA00002D30320060008E0802C02D10220060065
:105EB00003E0702C01D10120060010480068C008E2
:105EC000C00030430D4908600C48006810F007001E
:105ED000B04201D0012000E0002076BD3400002057
:105EE00094100240041002405C9A000858100240CE
:105EF0000070004090100240FFFFEEFE00200240C4
:105F0000109900080024F40000127A00889A000812
:105F100010B50400074800684FF47A71B0FBF1F047
:105F200000F0A6F8002221005FF0FF3000F086F8B4
:105F3000002010BD34000020DFF81C00006810F4C1
:105F4000C0607047DFF81400006850F40070DFF89C
:105F50000C100860704700000070004004700040A2
:105F600010F00702454B1B6819004FF6FF0319405C
:105F7000434B53EA02231943404B196070473F4893
:105F80000068C0F302207047012110F01F02914009
:105F90003C4A40B2430942F82310704710B440B263
:105FA000002808D50A01384B40B210F00F042344F2
:105FB00003F8042C03E00A01344B40B21A5410BC1D
:105FC000704770B4030013F00704D4F10706052EE0
:105FD00001D3042001E0D4F10700261D072E01D2D1
:105FE000002500E0E51E012616FA00F0401E0840DC
:105FF000A8400121A940491E1140084370BC7047C8
:1060000010B50400601EB0F1807F01D301200EE0C6
:10601000601E1F4908600F215FF0FF30FFF7BEFFD1
:1060200000201C49086007201B490860002010BDA3
:1060300010B504002000FFF793FF10BDF8B5040071
:106040000D0016000027FFF79AFF07003200290015
:106050003800FFF7B6FF0100200040B2FFF79EFFB7
:10606000F1BD10B50400200040B2FFF78DFF10BD58
:1060700010B504002000FFF7C3FF10BD0CED00E0D9
:106080000000FA0500E100E018ED00E000E400E0A7
:1060900014E000E018E000E010E000E070B504005B
:1060A0000D0016001B4806601A484460002119487C
:1060B000406801F041F83100200000F031F870BD77
:1060C00070B504000D000026124884631148006872
:1060D0000600012E1CDB0F4840684FF47A71B0FBBC
:1060E000F1F042000C484FF4407101FB06F1084406
:1060F000B0F540710948542303FB06F318445438A3
:1061000001F0C2F9002801D0012002E0761EE0E78C
:10611000002070BD6C34002040200020402F002063
:10612000F0B591B004000D0000260027B4F5FA5F29
:1061300001D1802029E042F61130844202D14FF48F
:10614000807022E0B4F57A5F01D180201DE045F235
:106150002260844201D1802017E0B4F5FA4F01D1CA
:10616000402012E04AF64440844201D140200CE035
:106170004BF68030844201D1402006E0DFF8040C69
:10618000844201D1202000E02020202805D10520D4
:1061900006005FF0204007006CE0B4F5FA5F01D123
:1061A000802029E042F61130844202D14FF4807001
:1061B00022E0B4F57A5F01D180201DE045F2226033
:1061C000844201D1802017E0B4F5FA4F01D140207C
:1061D00012E04AF64440844201D140200CE04BF6E4
:1061E0008030844201D1402006E0DFF8980B8442E1
:1061F00001D1202000E02020802805D108200600C1
:106200005FF00040070035E0B4F5FA5F01D180206F
:1062100029E042F61130844202D14FF4807022E02E
:10622000B4F57A5F01D180201DE045F222608442FE
:1062300001D1802017E0B4F5FA4F01D1402012E0DF
:106240004AF64440844201D140200CE04BF68030B5
:10625000844201D1402006E0DFF8280B844201D1BE
:10626000202000E02020402804D10A2006005FF012
:1062700020400700012D40F03E810120DFF8001C86
:1062800008715FF08040DFF8F81B8860B4F5FA5FB2
:1062900001D1302028E042F61130844201D104209F
:1062A00022E0B4F57A5F01D118201DE045F22260AA
:1062B000844201D1042017E0B4F5FA4F01D118202F
:1062C00012E04AF64440844201D104200CE04BF62F
:1062D0008030844201D1102006E0DFF8A80A844211
:1062E00001D1102000E01020DFF8941BC8600020CE
:1062F000DFF88C1B08610020DFF8841B4861002058
:10630000DFF87C1B88610020DFF8741BC861042063
:10631000DFF86C1B08625FF48000DFF8641B4862E2
:106320000A20DFF85C1B88620020DFF8541BC8627B
:10633000B6B2DFF84C0B0663DFF8480BDFF8401B02
:106340000860DFF83C0B00F0C6FF00284AD1DFF8F8
:10635000500C006850F08070DFF8441C0860DFF8D3
:10636000400C006810F0807000900098DFF8340C4A
:10637000006850F00400DFF82C1C0860DFF8240CE3
:10638000006810F0040000900098DFF8180C006816
:1063900050F00200DFF80C1C0860DFF8080C006801
:1063A00010F0020000900098042006900220079050
:1063B000002008900320099006200A9006A9DFF823
:1063C000E80B01F067F940200690022007900020BA
:1063D00008900320099006200A9006A9DFF8CC0B4C
:1063E00001F058F9DFF8980A00F0C4FE002802D046
:1063F000012000F0C4BC0020DFF8B41B486001207D
:10640000DFF8AC1B08720120DFF8A41B48720020E3
:10641000DFF89C1BC8600020DFF8941B0874002084
:10642000DFF88C1B48744FF40070DFF8841B486160
:106430004FF4C040DFF8781B8861DFF8740BC76148
:10644000B4F5FA5F01D1802029E042F61130844290
:1064500002D14FF4807022E0B4F57A5F01D1802040
:106460001DE045F22260844201D1802017E0B4F59E
:10647000FA4F01D1402012E04AF64440844201D153
:1064800040200CE04BF68030844201D1402006E0F1
:10649000DFF8F008844201D1202000E02020DFF85E
:1064A000101B08620120DFF8081B4862DFF80C0CA3
:1064B000DFF8FC1A0860DFF8F80A01F049F8002854
:1064C00003D1DFF8EC0A00F05FFCDFF8E40A00F02B
:1064D00005FF002802D0012000F051BC0122DFF8A6
:1064E000E01BDFF8CC0A00F09AFF002800F05D8383
:1064F000012000F044BC022DC0F032820120DFF800
:10650000801908715FF08040DFF874198860B4F575
:10651000FA5F01D1302028E042F61130844201D1E7
:10652000042022E0B4F57A5F01D118201DE045F285
:106530002260844201D1042017E0B4F5FA4F01D162
:10654000182012E04AF64440844201D104200CE0B5
:106550004BF68030844201D1102006E0DFF8240899
:10656000844201D1102000E01020DFF81419C86027
:106570000020DFF80C1908610020DFF804194861D9
:106580000020DFF8FC1888610020DFF8F418C861EB
:106590000420DFF8EC1808625FF48000DFF8E018F0
:1065A00048620A20DFF8D81888620020DFF8D01887
:1065B000C862B6B2DFF8C8080663DFF8080BDFF878
:1065C000C0180860DFF8B80800F085FE00284BD13D
:1065D000DFF8CC09006850F08070DFF8C41908605B
:1065E000DFF8BC09006810F0807000900098DFF8B8
:1065F000B409006850F00400DFF8A8190860DFF85B
:10660000A409006810F0040000900098DFF89409D5
:10661000006850F00200DFF88C190860DFF8840988
:10662000006810F002000090009804200190022001
:10663000029000200390032004900620059001A9F9
:10664000DFF8640901F026F84FF480700190022011
:10665000029000200390032004900620059001A9D9
:10666000DFF8480901F016F8DFF8140800F082FDA1
:10667000002801D0012082E30020DFF834194860AF
:106680000120DFF82C1908720120DFF82419487264
:106690000020DFF81C19C8600020DFF81419087406
:1066A0000020DFF80C1948744FF40070DFF800196F
:1066B00048614FF4C040DFF8F8188861DFF8F0084F
:1066C000C761B4F5FA5F01D1802029E042F61130AC
:1066D000844202D14FF4807022E0B4F57A5F01D198
:1066E00080201DE045F22260844201D1802017E025
:1066F000B4F5FA4F01D1402012E04AF644408442FA
:1067000001D140200CE04BF68030844201D1402082
:1067100006E0DFF87006844201D1202000E020204E
:10672000DFF88C1808620120DFF884184862DFF86F
:106730008C09DFF87C180860DFF8740800F008FFA7
:10674000002803D1DFF8680800F01EFBDFF86008BE
:1067500000F0C4FD002801D0012010E30122DFF881
:106760006819DFF84C0800F05AFE002801D001201B
:1067700005E30120DFF8081781F83C005FF0804056
:10678000DFF8FC160864B4F5FA5F01D1302028E088
:1067900042F61130844201D1042022E0B4F57A5F40
:1067A00001D118201DE045F22260844201D104206D
:1067B00017E0B4F5FA4F01D1182012E04AF6444030
:1067C000844201D104200CE04BF68030844201D198
:1067D000102006E0DFF8AC05844201D1102000E073
:1067E0001020DFF89C1648640020DFF894168864B7
:1067F0000020DFF88C16C8644FF48070DFF8801634
:1068000008650120DFF8781648650420DFF8701667
:1068100088655FF48000DFF86816C8650A20DFF835
:10682000601608660020DFF858164866B6B2DFF832
:1068300050068666DFF84C06DFF844168863DFF8FA
:106840008C0800F097FC002801D0012097E201207D
:10685000DFF85C1788650120DFF8541781F85C00C9
:106860000120DFF84C1781F85D000020DFF84017A9
:1068700008660120DFF8381781F864000120DFF88E
:10688000301781F865004FF40070DFF82417886630
:10689000012D05D14FF40050DFF81417C86604E04D
:1068A0004FF4C040DFF80817C866DFF80407076731
:1068B000B4F5FA5F01D1802029E042F6113084421C
:1068C00002D14FF4807022E0B4F57A5F01D18020CC
:1068D0001DE045F22260844201D1802017E0B4F52A
:1068E000FA4F01D1402012E04AF64440844201D1DF
:1068F00040200CE04BF68030844201D1402006E07D
:10690000DFF88004844201D1202000E02020DFF85D
:10691000A01648670120DFF898168867DFF8B007EF
:10692000DFF88C164865DFF8AC0700F011FE002890
:1069300003D1DFF8A00700F027FADFF8980700F08E
:10694000CDFC002801D0012019E20122DFF87017E8
:10695000DFF8800700F063FD002801D001200EE27F
:10696000042DC0F022810120DFF8141581F8740095
:106970005FF08040DFF808158867B4F5FA5F01D151
:10698000302028E042F61130844201D1042022E078
:10699000B4F57A5F01D118201DE045F222608442EF
:1069A00001D1042017E0B4F5FA4F01D1182012E00C
:1069B0004AF64440844201D104200CE04BF680307A
:1069C000844201D1102006E0DFF8B803844201D1EF
:1069D000102000E01020DFF8A814C8670020DFF8BE
:1069E000A014C1F880000020DFF89414C1F88400DE
:1069F0000020DFF88C14C1F888000020DFF8801434
:106A0000C1F88C000420DFF87814C1F890005FF41E
:106A10008000DFF86C14C1F894000A20DFF86014DD
:106A2000C1F898000020DFF85814C1F89C00B6B2F5
:106A3000DFF84C04C0F8A060DFF89C06DFF84014D3
:106A40000867DFF8980600F046FC00281DD1DFF843
:106A50005405006850F00400DFF848150860DFF8BE
:106A60004405006810F004000090009801200B908D
:106A700002200C9000200D9003200E9006200F9015
:106A80000BA9DFF8240500F005FEDFF8500600F042
:106A900071FB002801D0012071E10120DFF8101501
:106AA000C1F8AC000120DFF8081581F8B000012022
:106AB000DFF8FC1481F8B1000020DFF8F414C1F80D
:106AC000B4000020DFF8E81481F8B8000020DFF8F7
:106AD000E01481F8B9004FF40070DFF8D414C1F865
:106AE000BC004FF4C040DFF8C814C1F8C000DFF8A4
:106AF000C004C0F8C470B4F5FA5F01D1802028E06A
:106B000042F61130844202D14FF4807021E0B4F596
:106B10007A5F01D180201CE045F22260844201D1DD
:106B2000802016E0B4F5FA4F01D1402011E04AF67A
:106B30004440844201D140200BE04BF68030844237
:106B400001D1402005E08F48844201D1202000E09F
:106B50002020DFF85C14C1F8C8000120DFF85014D1
:106B6000C1F8CC00DFF87805DFF84414C1F8A800BC
:106B7000DFF8700500F0ECFC002803D1DFF86405B5
:106B800000F002F9DFF85C0500F0A8FB002801D056
:106B90000120F4E00122DFF85015DFF8480500F08D
:106BA0003EFC002801D00120E9E00120B44981F831
:106BB000AC005FF08040B249C1F8B000B4F5FA5FB4
:106BC00001D1302027E042F61130844201D1042067
:106BD00021E0B4F57A5F01D118201CE045F2226073
:106BE000844201D1042016E0B4F5FA4F01D11820F7
:106BF00011E04AF64440844201D104200BE04BF6F8
:106C00008030844201D1102005E05E48844201D1E9
:106C1000102000E010209A49C1F8B40000209849E3
:106C2000C1F8B80000209649C1F8BC004FF480704C
:106C30009349C1F8C00001209149C1F8C400042063
:106C40008F49C1F8C8005FF480008D49C1F8CC00BD
:106C50000A208B49C1F8D00000208949C1F8D4002E
:106C6000B6B28748C0F8D860DFF880048449C1F81C
:106C7000A800DFF87C0400F07DFA002801D0012094
:106C80007DE00120DFF82813C1F800010120C84988
:106C900081F804010120C64981F805010020C4499A
:106CA000C1F808010020C24981F80C010020C04948
:106CB00081F80D014FF40070BD49C1F810014FF487
:106CC000C040BB49C1F81401B948C0F81871B4F507
:106CD000FA5F01D1802028E042F61130844202D1CF
:106CE0004FF4807021E0B4F57A5F01D180201CE080
:106CF00045F22260844201D1802016E0B4F5FA4FBB
:106D000001D1402011E04AF64440844201D14020A4
:106D10000BE04BF68030844201D1402005E0194859
:106D2000844201D1202000E02020A149C1F81C01AB
:106D300001209F49C1F82001DFF8B8039C49C1F840
:106D4000FC00DFF8B40300F003FC002803D1DFF8F7
:106D5000A80300F019F8DFF8A00300F0BFFA00283C
:106D600001D001200BE00122DFF89013DFF8880347
:106D700000F055FB002801D0012000E0002011B0F8
:106D8000F0BD00000077010038B5040000258448FC
:106D9000006850F08070824908608148006810F0F7
:106DA000807000900098DFF85803006850F00100F0
:106DB000DFF84C130860DFF84803006810F00100AA
:106DC000009000982068BD49884202D1CD48050056
:106DD00013E02068BE49884202D1CB4805000CE090
:106DE0002068BF49884202D1C848050005E02068F4
:106DF000C049884201D1C6480500002068600020D3
:106E0000A8600020E860802028614FF4007068616D
:106E10004FF40060A8612020E8614FF40050286220
:106E20002068A649884202D1BA48286013E0206849
:106E3000A749884202D1B84828600CE02068A849D8
:106E4000884202D1B548286005E02068A9498842F7
:106E500001D1B3482860A562AC62002085F8250006
:106E6000280000F031FD20689449884207D10022B3
:106E700006210E20FFF7E2F80E20FFF7F2F831BDF1
:106E8000B0310020A060014070B5040000264848E1
:106E9000844240F0838000200600A24800688642B9
:106EA0007AD2002005009F4840684FF47A71B0FB09
:106EB000F1F085426ED29B4840684FF47A71B0FB86
:106EC000F1F0401998494FF4407202FB06F2114468
:106ED00051F820000012954909884843C011914992
:106EE0000C2202FB06F2114488608E480C2101FB43
:106EF00006F10844C0688B490C2202FB06F21144DB
:106F00008968081887490C2202FB06F211440969B6
:106F1000401AFC2148434FF4807190FBF1F0814905
:106F20000C2202FB06F21144C8607E480C2101FBD2
:106F300006F1084480687B490C2202FB06F21144EA
:106F4000086178480C2101FB06F10844C0687849C3
:106F5000884202DA48F2080012E072480C2101FB74
:106F600006F10844C06847F6F971884202DB47F62B
:106F7000F87005E06B480C2101FB06F10844C0687D
:106F80006849896B674A126802FB056221F81200A2
:106F90006D1C88E7761C80E700F0A6FE70BD00003F
:106FA000601002404C1002400008004800040048F5
:106FB000402F002070B5040000265E4884427BD13B
:106FC0000020060057480068864273D20020050062
:106FD000544840684FF47A71B0FBF1F0854267D2B3
:106FE00051484FF4407101FB06F1084450F8250068
:106FF00000124E4909884843C0114A490C2202FB3D
:1070000006F21144886047480C2101FB06F1084450
:10701000C06844490C2202FB06F211448968081832
:1070200040490C2202FB06F211440969401AFC2176
:1070300048434FF4807190FBF1F03A490C2202FB77
:1070400006F21144C86037480C2101FB06F10844E0
:10705000806834490C2202FB06F211440861314871
:107060000C2101FB06F10844C0683149884202DA6C
:1070700048F2080012E02B480C2101FB06F10844FD
:10708000C06847F6F971884202DB47F6F87005E000
:1070900024480C2101FB06F10844C0682149896B92
:1070A000204A126802FB056221F812006D1C8FE76E
:1070B000761C87E700F01CFE70BD000000610140F7
:1070C00020000500C060014040000600E8310020BB
:1070D00080610140942F0020806001402032002018
:1070E00000620140E82F00201000040060600140B1
:1070F00058320020806201403C300020080003002C
:107100004810024090300020D8300020203100206C
:107110006831002044000240580002406C000240E8
:10712000800002406C340020402000203800002005
:107130000880FFFF402F002030B5A3B004000D00F1
:107140002B200390072004904FF4006000905FF420
:1071500080300790002019900120019006200290B5
:107160006846FDF711F8002801D0012000E000205A
:1071700023B030BD10B50400002C01D10120A9E0DE
:10718000206800F002FADFF8F41251F8200000281D
:1071900001D001209EE0200000F07BFADFF8E00241
:1071A0000068401CDFF8D8120860DFF8D4020068DD
:1071B000012831D1DFF8CC02006830F08040DFF8E0
:1071C000C4120860DFF8BC020068A1680843DFF859
:1071D000B4120860DFF8AC02006830F47F00DFF81A
:1071E000A4120860207901280ED14FF47F40B0FA34
:1071F00080F0DFF890120968E268521E12FA00F07F
:107200000843DFF880120860DFF87802006850F069
:107210000040DFF8701208602068006830F47140A8
:107220002168086020680068216962691143A269C9
:1072300011430843216808602068006800090001C4
:107240002168086020680068E169226A11430843E8
:10725000216808602068806830F45F0021688860D9
:107260004FF47840B0FA80F021688968626AA36AB6
:107270005B1E13FA00F01043084321688860206801
:10728000406810F00700216848607FF07F40B0FA46
:1072900080F05FF0F851B1FA81F122685268E36A38
:1072A00013FA00F0236B13FA01F10843104321682D
:1072B00048602068006850F0800021680860012064
:1072C00084F83400206800F060F9DFF8B01141F86C
:1072D0002040002010BD90F83400704710B5040025
:1072E000002C01D1012099E02068DFF8601288426B
:1072F00007D16068012802D0E068012801D101208F
:107300008CE000202063012060640120A064002044
:107310002065200000F0F1FC2068006830F40020B7
:1073200021680860207A012806D12068006850F0A2
:1073300000502168086005E02068006830F00050C7
:1073400021680860607A012806D12068006850F43E
:1073500000102168086005E02068006830F4001023
:107360002168086020680068DFF8841208402168FE
:107370000860E068022805D1206800686169084358
:1073800021680860207C012806D12068006850F040
:1073900010002168086005E02068006830F01000E7
:1073A00021680860607C012806D12068006850F0E0
:1073B00020002168086005E02068006830F02000A7
:1073C0002168086020684069DFF8281208402168B9
:1073D00048614FF6C070B0FA80F021684969E269EF
:1073E000236A5B1E13FA00F01043626A521E1043B8
:1073F00008432168486160686063E068A063A06931
:10740000E063207C84F840002068006850F00100B0
:1074100021680860012084F84C00002010BD30B4C1
:107420000300002093F84C40002C21D093F84C40EE
:10743000FF2C1DD01C682468DFF8BC512C401D684F
:107440002C60012A0AD11C6824680D0215F07F45C2
:1074500055F480252C431D682C6007E01C682468C7
:107460000D0215F07F452C431D682C601A6301E066
:1074700001242000C0B230BC70470000D03400208E
:107480000035002000600140F8B504000D00160032
:107490000027002D01D0002E02D10120070052E06C
:1074A00020680068800202D4012007004BE0606B76
:1074B00000280BD1206B002808D1A06AC0690028E1
:1074C00004D1012E02D0012007003CE0606B0028AF
:1074D00009D1206B002806D1A06AC069202802D1FA
:1074E000012007002FE094F84C00012803D094F805
:1074F0004C00032825D10FF27100A16AC8620FF277
:107500007900A16A4863A06AC069202802D10FF2FD
:10751000490000E00020A16A086333002A002068C7
:1075200010F11C01A06A00F0A3FA002805D0FF208A
:1075300084F84C000120070005E0200000F06EF800
:1075400001E0012007003800C0B2F2BD0061014037
:1075500090F84C007047000038B50400A56A280078
:10756000FFF728FD31BD000038B50400A56A2800EA
:10757000FFF78AFC31BD000038B50400A56A03207E
:107580002865280000F0BAFB31BD0100FF201B4A2E
:10759000914202D10022100028E0194A914202D102
:1075A0000122100022E0174A914202D1022210006B
:1075B0001CE0154A914202D10322100016E0134A42
:1075C000914202D10422100010E0114A914202D1EE
:1075D000052210000AE00F4A914202D10622100053
:1075E00004E00D4A914201D10722100070470000CB
:1075F000F798FFFF00FF001CFFFFFBF80060014051
:1076000020600140406001406060014080600140B6
:10761000A0600140C0600140E0600140416B002972
:1076200006D10168096851F400310268116026E052
:107630000168096849084900026811600168096821
:1076400051F40021026811600168096851F00101DC
:107650000268116090F84C10032910D1816B002949
:1076600005D10168096851F002010268116090F8C3
:107670004010012901D1416C00E00121816490F8A2
:107680004C10012901D1022100E0042180F84C10A6
:107690007047704778B40022002300240D68D5405D
:1076A000002D00F0EE800D680126964035402B003D
:1076B000002B00F0E4804D68022D02D04D68122DA1
:1076C00016D1D50800EB85052D6A2C000F2512F088
:1076D0000706F6B2B600B540AC430D6912F00706D6
:1076E000F6B2B600B5402C43D50800EB85052C62F8
:1076F00005682C0003251600F6B27600B540AC43B1
:107700000D7915F003051600F6B27600B5402C434E
:1077100004604D68012D08D04D68022D05D04D68DC
:10772000112D02D04D68122D19D185682C0003252A
:107730001600F6B27600B540AC43CD681600F6B23E
:107740007600B5402C43846045682C0001259540A7
:10775000AC434D68C5F3001595402C4344600D794A
:1077600015F00305032D0AD1C56A2C0001259540AB
:10777000AC434D68C5F3C00595402C43C462C56851
:107780002C0003251600F6B27600B540AC438D6898
:107790001600F6B27600B5402C43C4604D68ED008B
:1077A0006DD53D4D2D6855F001053B4E35603A4D88
:1077B0002D6815F001050095009D384D960855F887
:1077C00026502C000F2512F00306F6B2B600B54085
:1077D000AC43B0F1904F01D100251EE0304DA842DE
:1077E00001D1012519E02F4DA84201D1022514E055
:1077F0002D4DA84201D103250FE02C4DA84201D107
:1078000004250AE02A4DA84201D1052505E0294DAD
:10781000A84201D1062500E0072512F00306F6B2C2
:10782000B600B5402C431D4D960845F82640224D24
:107830002D682C009C434D68ED0300D51C431E4D64
:107840002C601E4D2D682C009C434D68AD0300D567
:107850001C431A4D2C601A4D2D682C009C434D681A
:10786000ED0200D51C43164D2C60164D2D682C00E2
:107870009C434D68AD0200D51C43124D2C60521C38
:107880000CE771BC7047D2B2002A02D089B2816184
:1078900001E089B281627047601002400800014037
:1078A0000004004800080048000C00480010004890
:1078B000001400480018004800040140040401407E
:1078C000080401400C04014010B40100002200290A
:1078D00001D101206DE08868B0F5804F08685D4BEC
:1078E00098420AD208685C4B18181423B0FBF3F0D6
:1078F000800048645948086409E00868584B181823
:107900001423B0FBF3F0800048645648086402205A
:1079100081F825000868006802006FF30D1288687E
:10792000CB6818430B6918434B6918438B6918439C
:10793000CB6918430B6A18430243086802608868E1
:10794000B0F5804F24D0086C444B984210D1464883
:1079500000680F234C6CA3409843434B1860424887
:1079600000684B684C6CA34018433F4B18600FE015
:107970003E4800680F234C6CA34098433B4B186073
:107980003A4800684B684C6CA3401843374B18606A
:107990000020C8620020086300204863002088633C
:1079A0000020C863012081F82500002081F8240010
:1079B000002010BC70470100002901D1012047E0E0
:1079C00008680068400840000A68106000200A68E3
:1079D000106008681F4A90420AD208681E4A1018B0
:1079E0001422B0FBF2F0800048641C48086409E0EF
:1079F00008681B4A10181422B0FBF2F0800048649B
:107A000018480864086C406801224B6C9A40104387
:107A10000A6C5060086C114A904208D11248006804
:107A20000F224B6C9A4090430F4A106007E00F48BA
:107A300000680F224B6C9A4090430C4A1060002063
:107A4000C863002081F82500002081F82400002070
:107A50007047000008040240F8FFFDBF000002402C
:107A6000F8FBFDBF00040240A8000240A804024049
:107A70002DE9F04104000D0016001F005FF0000822
:107A800094F82400012801D102203BE0012084F871
:107A9000240094F8250001282DD1022084F8250027
:107AA0000020E0632068006840084000216808600A
:107AB0003B0032002900200000F096F8206B0028DF
:107AC00006D02068006850F00E00216808600BE0C6
:107AD0002068006830F004002168086020680068B1
:107AE00050F00A00216808602068006850F001002A
:107AF0002168086004E0002084F824000220804609
:107B00004046C0B2BDE8F08170B50400206C056845
:107B1000206806680420616C884005421AD070070E
:107B200018D520680068800605D42068006830F009
:107B3000040021680860206C40680421626C914058
:107B40000843216C4860206B00284CD02000216B3A
:107B5000884748E00220616C8840054220D0B00789
:107B60001ED520680068800608D42068006830F0C0
:107B70000A0021680860012084F82500206C406814
:107B80000221626C91400843216C4860002084F817
:107B90002400E06A002826D02000E16A884722E01D
:107BA0000820616C884005421DD030071BD5206835
:107BB000006830F00E0021680860206C40680121E8
:107BC000626C91400843216C48600120E063012011
:107BD00084F82500002084F82400606B002802D07F
:107BE0002000616B884770BD70B4046C6468012527
:107BF000466CB5402C43056C6C6004686360846817
:107C0000102C04D10468A2600468E16003E00468F9
:107C1000A1600468E26070BC7047000080B500F0AD
:107C20006FF800F083F84BF68030009014230022A8
:107C30002849002000F0F0F814212648006800F0E0
:107C4000AEF9012210214BF68030FEF727FA002111
:107C50002148FEF735FA30BFFDE710B500200400DB
:107C6000302C1BD21C4830F914001C491C4A1268E5
:107C700021F812001A480068401C1949086016488B
:107C800030F914001549164A126821F812001448F8
:107C90000068401C12490860641CE1E71148006854
:107CA00000280DD10E480068C02809D14FF4C072D9
:107CB0000A490848006800F05BF90120094908609A
:107CC00007480068B0F5C07F02D100200449086071
:107CD00010BD0000F034002078330020402C00203C
:107CE000F4340020F834002080B5FFF7B6FF01BD62
:107CF00080B5FFF7B2FF01BDFEE770477047000097
:107D000080B50848006850F4807006490860032078
:107D1000FEF78EF90F20FEF7FBF800F005F80020C3
:107D200002BD0000002002407047000000B5B9B05D
:107D300001A8142100F084FA06A8442100F080FA7A
:107D400017A8882100F07CFA3248006850F0805073
:107D5000304908602F48006810F08050009000986B
:107D600000F072FA042006900120089006A8FDF7A2
:107D700075FB002801D0FFF7BFFFFDF781F9102048
:107D8000069001200C9000200A90B0200E90022056
:107D900010900120119006201290282013900720A7
:107DA0001490042015900420169006A8FDF756FBA9
:107DB000002801D0FFF7A0FF5FF4003017904FF4C8
:107DC0008070389017A8FCF7DFF9002801D0FFF782
:107DD00093FFFDF771F94FF4005017905FF040608A
:107DE000329017A8FCF7D0F90F20019003200290E1
:107DF00000200390002004904FF48060059004213F
:107E000001A8FDF753FE002801D0FFF775FF39B038
:107E100000BD00BF581002402DE9F04104000D00E4
:107E200016001F00DDF81880B8F5FA5F0ED0B8F51F
:107E30007A5F0BD0B8F1000F08D0B8F5FA4F05D033
:107E40004BF68030804501D0012021E000214046E2
:107E500000F0DAF90020286064B2002C0AD0424613
:107E60003900C9B2280000F015F8012801D101201D
:107E70000EE009E042463900C9B2280000F00AF8D5
:107E8000012801D1012003E0404600F025F900203F
:107E9000BDE8F0812DE9F04704000D001600002731
:107EA000DFF83C034079012801D101205EE000F0B9
:107EB000D5F9012801D1012058E00020DFF8201376
:107EC00008700020DFF8181348708C20DFF81013BA
:107ED00088700020DFF8081308710020DFF8001315
:107EE00048710020DFF8F81288710120DFF8F012E5
:107EF000C8710020DFF8E8128860DFF8E802DFF8D8
:107F0000E012C8600020DFF8D8120861DFF8D00264
:107F100020602068C0680700386800280ED15FF034
:107F200014085FF00009D4F800A04A4641465046C4
:107F300000F03CFC00202060012017E03200290006
:107F4000C9B220683B68984701280ED15FF0140839
:107F50005FF00009D4F800A04A464146504600F0C0
:107F600025FC00202060012000E00020BDE8F08713
:107F700070B504000D001600B6F5803F01D2320046
:107F800001E04FF6FF7292B22900DFF85C0200F0C8
:107F900055FD002801D0012000E0002070BDF8B59B
:107FA00004000D0026000027002E01D1012015E05D
:107FB000F0680700EDB2002D01D101200EE0386A13
:107FC000002801D1012009E02900C9B230003A6A35
:107FD0009047012801D1012000E00020F2BD10B53A
:107FE000040000F012FE10BD10B5040000F00EFEFB
:107FF00010BD10B5040000F00AFE10BD10B586B02B
:10800000794C7A48006850F48000784908607748D5
:10801000006810F48000009000987548006850F0E7
:108020004000734908607248006810F040000090FA
:108030000098FDF787FF4FF4F05001900220029066
:1080400000200390032004900D20059001A96948A9
:10805000FFF720FB6848006850F00200664908609E
:108060006548006810F0020000900098206863499D
:10807000884227D101206249486010206049886009
:1080800000205F49C86080205D4908614FF480701E
:108090005B4948614FF48060594988612020584904
:1080A000C8614FF400505649086256485449086068
:1080B0005348E066524884625148FFF77CFC5048C0
:1080C000FFF702FC002207213A20FDF7B7FF3A2014
:1080D000FDF7C7FF06B010BD10B504004748424980
:1080E000086041480068006830F480303E49096803
:1080F000086000203C494862B4F5FA5F01D10C20C9
:1081000022E042F61130844201D102201CE0B4F595
:108110007A5F01D1062017E045F22260844201D146
:10812000012011E0B4F5FA4F01D103200CE04AF62A
:108130004440844201D1002006E04BF68030844266
:1081400001D1022000E001202749086200202649D1
:10815000C86100202449486000202349486100206C
:108160002149086380202049486300201E49886314
:1081700001201D49C86300201B4988604FF400504E
:1081800019490861012018498861202016490864AE
:108190001020154948645FF480301349886400203A
:1081A0001149C8645FF480200F49086500200E491A
:1081B000486540200C49886502200B49C8650320AA
:1081C00009490866FFF71AFF074800F023FB064835
:1081D0000068006850F4803003490968086010BDE9
:1081E000A8340020000000209032002060100240DF
:1081F0004C1002400018004848100240045801404A
:10820000243400203004024030B5A3B004000D0037
:108210006846FCF7F1F94FF48050009000201A9066
:108220002B20039007200490022006905FF48030FA
:1082300007906846FBF7A8FF002023B030BD000080
:10824000002200F0E5BC00000348006850F4807094
:1082500001490860704700000070004080B500F0E0
:10826000B2F9002801D0012000E0002002BD2DE974
:10827000F0410400884615001E0027007878002889
:1082800010D1B6B2022E04DB3878BC2801D158F0E8
:10829000800833009BB22A004146C9B2200000F09A
:1082A0001CF818E07878012814D1B6B2022E08DB49
:1082B0003878332802D0402803D002E058F0400834
:1082C000FFE733009BB22A004146C9B2200000F00C
:1082D00056F800E00120BDE8F081F8B504000D007B
:1082E00016001F003B009BB232002900C9B2A078E3
:1082F00000F092F9F2BD2DE9F04104008846150026
:108300001E0027007878002810D1B6B2022E04DBB8
:108310003878BC2801D158F0800833009BB22A007D
:108320004146C9B2200000F01CF818E07878012816
:1083300014D1B6B2022E08DB3878332802D0402898
:1083400003D002E058F04008FFE733009BB22A0058
:108350004146C9B2200000F03BF800E00120BDE832
:10836000F081F8B504000D0016001F003B009BB221
:1083700032002900C9B2A07800F07AF9F2BD2DE9E7
:10838000F04104000D0016001F00200000F06CF802
:108390002900C9B2DFF8F40300F005F90020804697
:1083A0004046C0B2390080B289B288420AD25FFA30
:1083B00088F816F80810DFF8D40300F0F4F818F184
:1083C0000108EDE7200000F079F80020BDE8F08119
:1083D000F8B504000D0016001F00200000F044F85E
:1083E00055F08001C9B2DFF8A40300F0DCF8DFF833
:1083F0009C030068006830F04000DFF890130968C3
:108400000860DFF888030068006830F48040DFF817
:108410007C1309680860BFB2022F07D33A0092B2FA
:108420003100DFF8680300F091F804E03100DFF874
:108430005C0300F06DF8200000F040F8DFF84C031A
:108440000068006850F48040DFF840130968086055
:10845000DFF838030068006850F04000DFF82C13A4
:10846000096808600020F2BD38B504002500E878EE
:10847000002805D0022812D00AD3032816D01BE00A
:1084800000224FF48051DFF80803FFF7FCF913E0F6
:1084900000221021DFF8FC02FFF7F5F90CE00022C2
:1084A0000221DFF8EC02FFF7EEF905E000220821D7
:1084B0005FF09040FFF7E7F9002032BD38B50400C7
:1084C0002500E878002805D0022812D00AD3032816
:1084D00016D01BE001224FF48051DFF8B402FFF701
:1084E000D2F913E001221021DFF8A802FFF7CBF93F
:1084F0000CE001220221DFF89802FFF7C4F905E041
:10850000012208215FF09040FFF7BDF9002032BD45
:1085100072B60268126852F0400203681A60BFF334
:108520004F8FBFF34F8F0268126832F0400203682A
:108530001A6062B602689268D207FBD50268127BA5
:108540000A70026892681206FBD4704710B472B6C3
:1085500003681B6853F040030468236092B2022A48
:1085600009D303689B68DB07F8D503681B7B0B7096
:10857000491C521EF2E7BFF34F8FBFF34F8F0368C2
:108580001B6833F040030468236062B603689B688D
:10859000DB07FBD503681B7B0B7003689B681B061E
:1085A000FBD410BC7047026892689207FBD5026842
:1085B00011730268926812F4C05FFAD1026892687F
:1085C0001206FBD4704780B5DFF8CC0100F09CFDAB
:1085D000002817D1DFF8C401DFF8BC114860332050
:1085E000DFF8B41188600120DFF8AC11C860DFF853
:1085F000B001DFF8A411086000F06FF8DFF898010F
:1086000000F020FBDFF8900100F07EFD202801D172
:10861000002000E0012002BD2DE9F04184B00400FB
:108620000D0016001F005FF00008DFF878010068F9
:108630000290380080B2019000960123EDB22A002A
:1086400092B2E4B2210089B2DFF84C0100F07EFB67
:1086500080465FFA88F8B8F1000F05D02000C0B25C
:1086600000F032F8012000E0002004B0BDE8F08105
:108670002DE9F04184B004000D0016001F005FF0EA
:108680000008DFF8200100680290380080B20190F5
:1086900000960123EDB22A0092B2E4B2210089B221
:1086A000DFF8F40000F042FC80465FFA88F8B8F189
:1086B000000F05D02000C0B200F006F8012000E055
:1086C000002004B0BDE8F08110B50400DFF8C80058
:1086D00000F01BFBFFF777FF10BD00B5A9B04FF40A
:1086E000807006905FF480301C9006A8FBF74CFD6C
:1086F0002548006850F004002349086022480068BB
:1087000010F00400009000980320019012200290C5
:1087100002200490012003900420059001A9DFF8B5
:108720007400FEF7B7FF1748006850F400001549C1
:1087300008601448006810F4000000900098DFF80A
:108740006800006850F40000DFF85C100860DFF893
:108750005800006830F40000DFF84C100860002278
:1087600000214820FDF76AFC4820FDF77AFC002232
:1087700000214920FDF762FC4920FDF772FC29B079
:1087800000BD0000581002404C100240143300207D
:108790000004004800080048D8330020EC9C9010EA
:1087A000005C0040300000203810024062F30F22CD
:1087B00062F31F42401810F0030308D0C91A1FD3F8
:1087C000DB0748BF00F8012D28BF20F8022D130059
:1087D00030B414461546103928BF20E93C00FAD8B9
:1087E000490728BF20E90C0048BF40F8042D890044
:1087F00028BF20F8022D48BF00F8012D30BC70477B
:10880000C91818BF00F8012DCB0728BF00F8012DAB
:10881000704700002DE9F8430400002700250026DA
:10882000002C01D10120F4E094F87D00002805D14E
:10883000002084F87C00200000F0E6F9022084F893
:108840007D00200000F079F9E068002803D00228BC
:1088500007D003D307E00020070004E01020070042
:1088600001E020200700A068002805D002280AD0D7
:1088700005D303280BD00FE0002006000CE04FF4D6
:108880008060060008E04FF40060060004E04FF44A
:108890000060060057F0010720685F49884203D056
:1088A00020685E49884202D15D48076001E05D486A
:1088B0000760E069002833D05FF00008206856495F
:1088C000884203D020685549884204D14FF40060A3
:1088D000FBF774FF804620685349884203D0206824
:1088E0005249884204D14FF48050FBF767FF80461D
:1088F0000A2000FB08F0E1694FF400725143B0FB1D
:10890000F1F081460A20B9FBF0F020620A20B9FBA1
:10891000F0F100FB1190092802D3206A401C20626C
:108920006068002802D06068022807D1E06B012847
:1089300001D1002509E04FF4007506E0E06B012845
:1089400002D14FF4007500E0002520680068384926
:10895000084021680860206800686168226B114344
:10896000626B1143A26B114329433143626A114385
:108970002269114362691143226A51EA0251084394
:1089800021680860206840682A49084021684860DA
:1089900020684068A169A26A1143E26A1143084352
:1089A0002168486020688068234908402168886001
:1089B00020688068216C491E226D1143A26C11430E
:1089C000E26C1143626C521E51EA02210843216895
:1089D00088602068C0684FF2200108402168C860A4
:1089E0002068C068616DA26D1143226E51EA024198
:1089F000E26D521E51EA022108432168C86000203E
:108A0000C4F88000012084F87D00002084F87C00F8
:108A10000020BDE8F28300000454014024540140CA
:108A200000540140005801400458014024580140BE
:108A300010C005FFF01FFFFF0080F8FF70B50400B5
:108A40000D001600002D02D0B6B2002E01D101207B
:108A500055E094F87D00012850D194F87C0001285D
:108A600001D102204BE0012084F87C006566A4F867
:108A70006860A4F86A600020C4F88000122084F8BE
:108A80007D000FF23D10E16E08630FF2F100E16E20
:108A9000C8620FF23D10E16E48630020E16E88630A
:108AA000B4F86830206810F11C02616EE06EFEF7C9
:108AB000DFFF002804D0002084F87C0001201EE0A5
:108AC00020680068C00305D42068006850F4803036
:108AD000216808600021200000F012F8216809696F
:108AE0000843216808612068006850F4003021685C
:108AF0000860002084F87C00002000E0022070BDA7
:108B000002000120012901D150F00800136B082B4D
:108B100007D15368032B02D05368012B01D150F0C9
:108B200010005368032B02D05368022B02D150F07F
:108B3000600001E050F00400704770B50400FCF7DD
:108B400087FC050000262068006830F4803021682A
:108B5000086020680068C0030CD5FCF779FC401B56
:108B60000528F6D3D4F8800050F04000C4F8800007
:108B7000032001E03000C0B270BD000038B5040031
:108B8000A56A20680068800615D40020A5F86A0050
:108B90002868006830F40030296808600021280047
:108BA000FFF7AEFF2968096931EA0000296808610A
:108BB000012085F87D002800FFF711FA31BD000083
:108BC00038B50400A56A2800FFF70EFA31BD000091
:108BD00038B50400A56AD5F8800050F08000C5F8CB
:108BE00080002868006830F4003029680860280098
:108BF000FFF7A3FF012085F87D000020A5F86A009B
:108C00002800FFF7F6F931BD70477047704770478D
:108C100000B500BF130096469446103928BFA0E85F
:108C20000C50FAD85FEA417C28BF0CC048BF40F81E
:108C3000042BC90728BF20F8022B48BF00F8012BDE
:108C400000BD000010B50400002C01D101205BE044
:108C500094F84100002805D1002084F8400020004D
:108C600000F0E8FB242084F84100206800684008F8
:108C7000400021680860606830F070602168086119
:108C80002068806830F4004021688860A06800286F
:108C90000DD0E068012805D1A06850F4004021689B
:108CA000886004E0A06850F4044021688860E068AF
:108CB000022803D14FF400602168486020684068B2
:108CC00040F0007050F400402168486020696169FC
:108CD0000843A16950EA01202168C860E069216A5F
:108CE0000843216808602068006850F0010021688E
:108CF000086000206064202084F841000020206388
:108D0000002084F84200002010BD10B50400002CA3
:108D100001D1012019E0242084F841002068006876
:108D20004008400021680860200000F084FB00201B
:108D30006064002084F8410000202063002084F853
:108D40004200002084F84000002010BD2DE9F04FC3
:108D500083B005000E0017009846DDF830900D9C9A
:108D6000DDF838A05FF0000B95F84100202840F0B6
:108D7000D780B9F1000F02D0A4B2002C01D101209C
:108D8000CFE095F84000012801D10220C9E0012080
:108D900085F84000FCF75CFB8346CDF800B0192352
:108DA00001224FF40041280000F06BFA002801D0A6
:108DB0000320B6E0212085F84100402085F84200DC
:108DC00000206864C5F824906C8500206863CDF8A5
:108DD00004B0CDF800A043469BB23A0092B23100F5
:108DE00089B2280000F096F900280CD0686C04289D
:108DF00004D1002085F84000012092E0002085F891
:108E0000400003208DE0688DFF280DD9FF202885C4
:108E1000002000905FF080732A8DD2B2310089B2B9
:108E2000280000F0EEFA0CE0688D28850020009004
:108E30005FF000732A8DD2B2310089B2280000F0B1
:108E4000E0FA5A465146280000F047FA002806D0BA
:108E5000686C042801D1012063E0032061E0686AA6
:108E6000411C6962007829688862688D401E6885A7
:108E7000288D401E2885288D00282CD1688D00283B
:108E800029D0CDF800B0534600228021280000F000
:108E9000F8F9002801D0032043E0688DFF280DD9A0
:108EA000FF202885002000905FF080732A8DD2B2C9
:108EB000310089B2280000F0A4FA0CE0688D288502
:108EC000002000905FF000732A8DD2B2310089B289
:108ED000280000F096FA688D0028B2D15A46514613
:108EE000280000F026FA002806D0686C042801D17A
:108EF000012016E0032014E020202968C8612868BA
:108F000040680949084029684860202085F84100E8
:108F1000002085F84200002085F84000002000E095
:108F20000220BDE8FE8F000000E800FE2DE9F04FB2
:108F300083B005000E0017009846DDF830900D9CB8
:108F4000DDF838A05FF0000B95F84100202840F0D4
:108F5000D880B9F1000F02D0A4B2002C01D10120B9
:108F6000D0E095F84000012801D10220CAE001209C
:108F700085F84000FCF76CFA8346CDF800B0192361
:108F800001224FF40041280000F07BF9002801D0B5
:108F90000320B7E0222085F84100402085F84200F8
:108FA00000206864C5F824906C8500206863CDF8C3
:108FB00004B0CDF800A043469BB23A0092B2310013
:108FC00089B2280000F0F9F800280CD0686C042859
:108FD00004D1002085F84000012093E0002085F8AE
:108FE000400003208EE0688DFF280ED9FF202885E1
:108FF0004FF4105000905FF080732A8DD2B2310090
:1090000089B2280000F0FDF90DE0688D28854FF445
:10901000105000905FF000732A8DD2B2310089B2F7
:10902000280000F0EEF9CDF800B0534600220421EC
:10903000280000F026F9002801D0032062E0686AC9
:10904000411C69622968496A0170288D401E288583
:10905000688D401E6885288D00282CD1688D0028D9
:1090600029D0CDF800B0534600228021280000F01E
:1090700008F9002801D0032044E0688DFF280DD9AD
:10908000FF202885002000905FF080732A8DD2B2E7
:10909000310089B2280000F0B4F90CE0688D288511
:1090A000002000905FF000732A8DD2B2310089B2A7
:1090B000280000F0A6F9688D0028B4D15A46514620
:1090C000280000F036F9002806D0686C042801D189
:1090D000012017E0032015E020202968C8612868D6
:1090E0004068DFF82C10084029684860202085F887
:1090F0004100002085F84200002085F84000002053
:1091000000E00220BDE8FE8F90F8410070470000AB
:1091100000E800FE2DE9F84304000D0016001F00D2
:10912000DDF82080DDF824904FF4005000905FF0CF
:1091300080733A00D2B2290089B2200000F061F9B0
:109140004A464146200000F0C8F8002806D0606C6E
:10915000042801D101202EE003202CE0BFB2012F12
:1091600004D13000C0B22168886217E0300080B2BC
:10917000000AC0B2216888624A464146200000F0D9
:10918000ACF8002806D0606C042801D1012012E060
:10919000032010E03000C0B221688862CDF8009052
:1091A000434600228021200000F06BF8002801D007
:1091B000032000E00020BDE8F2832DE9F84304001D
:1091C0000D0016001F00DDF82080DDF824904FF41C
:1091D0000050009000233A00D2B2290089B220004A
:1091E00000F00FF94A464146200000F076F80028CA
:1091F00006D0606C042801D101202EE003202CE071
:10920000BFB2012F04D13000C0B22168886217E0DC
:10921000300080B2000AC0B2216888624A464146E6
:10922000200000F05AF8002806D0606C042801D114
:10923000012012E0032010E03000C0B221688862F3
:10924000CDF80090434600224021200000F019F89C
:10925000002801D0032000E00020BDE8F28301686F
:109260008969890702D500210268916201688969CC
:10927000C90705D40168896951F00101026891614B
:1092800070472DE9F04104000D0016001F00DDF8C5
:109290001880206880692840A84201D1012000E0A0
:1092A0000020F6B2B04215D117F1010FF1D0002F16
:1092B00005D0FCF7CDF8B0EB08008742E9D22020BA
:1092C00084F84100002084F84200002084F8400027
:1092D000032000E00020BDE8F08170B504000D001F
:1092E000160020688069800721D432002900200000
:1092F00000F048F8002801D0012019E015F1010F15
:10930000EFD0002D04D0FCF7A3F8801B8542E8D2F3
:10931000606C50F020006064202084F84100002040
:1093200084F84200002084F84000032000E0002080
:1093300070BD70B504000D001600206880698006BD
:109340001ED432002900200000F01CF8002801D0B3
:10935000012016E0002D04D0FCF77AF8801B85422E
:10936000EBD2606C50F020006064202084F8410053
:10937000002084F84200002084F84000032000E030
:10938000002070BD70B504000D00160020688069D3
:10939000C00634D520688069800614D415F1010F09
:1093A000F8D0002D04D0FCF753F8801B8542F1D291
:1093B000202084F84100002084F84200002084F836
:1093C000400003201CE010202168C8612020216893
:1093D000C8612000FFF743FF206840681349084038
:1093E0002168486004206064202084F84100002047
:1093F00084F84200002084F84000012000E00020B2
:1094000070BD70B4039C0025066876683500084E70
:10941000354089B28E05B60DD2B256EA02461E43D9
:10942000264335430668756070BC704700E800FE4F
:10943000009800FC7047704770B582B004000D00C2
:1094400016008DF800506B4601224021200000F0EC
:10945000D7F9002801D0012089E06B460122412183
:10946000200000F0CDF9002801D001207FE03F204E
:109470008DF800006B4601224421200000F0C0F965
:10948000002801D0012072E06B4601224521200016
:1094900000F0B6F9002801D0012068E001208DF825
:1094A00000006B4601224621200000F0A9F90028A7
:1094B00001D001205BE0E0208DF800006B46012226
:1094C0004921200000F09CF9002801D001204EE045
:1094D00001208DF800006B4601225621200000F08B
:1094E0008FF9002801D0012041E003208DF8000011
:1094F0006B4601224821200000F082F9002801D0AB
:10950000012034E011208DF800006B460122582123
:10951000200000F075F9002801D0012027E0EC20A0
:109520008DF800006B4601224921200000F068F907
:10953000002801D001201AE001208DF800006B46C0
:1095400001224A21200000F05BF9002801D001200F
:109550000DE030208DF800006B46012252212000E2
:1095600000F04EF9002801D0012000E0002076BD77
:10957000704701000220704770B582B004000D00F2
:1095800016006B4601224421200000F026F9002835
:1095900001D001202AE09DF8000010F0BF008DF8F6
:1095A00000006B4601224421200000F029F9002828
:1095B00001D001201AE06B4601224521200000F075
:1095C0000CF9002801D0012010E09DF8000010F0F7
:1095D000BF008DF800006B4601224521200000F0FD
:1095E0000FF9002801D0012000E0002076BD010025
:1095F0000220704710B582B004006B46012244215E
:10960000200000F0EAF8002801D0012036E09DF8A3
:10961000000010F0BF008DF800009DF8000050F031
:1096200040008DF800006B4601224421200000F02C
:10963000E7F8002801D0012020E06B4601224521F7
:10964000200000F0CAF8002801D0012016E09DF8A3
:10965000000010F0BF008DF800009DF8000050F0F1
:1096600040008DF800006B4601224521200000F0EB
:10967000C7F8002801D0012000E0002016BD38B551
:1096800004000D006B4601224421200000F0A5F8E3
:10969000002801D0012036E09DF8000010F0BF0046
:1096A0008DF800009DF8000050F040008DF800009B
:1096B0006B4601224421200000F0A2F8002801D0CE
:1096C000012020E06B4601224521200000F085F8B2
:1096D000002801D0012016E09DF8000010F0BF0026
:1096E0008DF800009DF8000050F040008DF800005B
:1096F0006B4601224521200000F082F8002801D0AD
:10970000012000E0002032BD38B504000D008DF8C6
:1097100000506B4601224021200000F071F8002823
:1097200001D001200AE06B4601224121200000F017
:1097300067F8002801D0012000E0002032BD38B5D4
:1097400004000D006B4601224421200000F045F882
:10975000002801D0012036E09DF8000010F0BF0085
:109760008DF800009DF8000050EA85108DF800008B
:109770006B4601224421200000F042F8002801D06D
:10978000012020E06B4601224521200000F025F851
:10979000002801D0012016E09DF8000010F0BF0065
:1097A0008DF800009DF8000050EA85108DF800004B
:1097B0006B4601224521200000F022F8002801D04C
:1097C000012000E0002032BD0200022070470200AC
:1097D00002207047010002207047F8B504000D0018
:1097E00016001F0033009BB23A002900C9B22000C6
:1097F000FEF781FD002801D0012000E00020F2BD2D
:10980000F8B504000D0016001F0033009BB23A00AB
:109810002900C9B22000FEF72AFD002801D001204E
:1098200000E00020F2BD00001248006850F4700013
:10983000104908601048006850F001000E490860A7
:1098400000200E4908600C4800680D4908400A498C
:1098500008604FF480500B4908600748006830F4F6
:10986000802005490860002007490860074808492A
:109870000860704788ED00E00010024008100240C8
:10988000FFFFF6EA0C1002401810024000400008EA
:1098900008ED00E019E050F8041BCB0744BFA9F124
:1098A00001035918121F0023042A41F8043BF9D27E
:1098B0005FEA827C0B4604D54FF0000CA1F800C093
:1098C0009B1CD10744BF0021197050F8042B002ABB
:1098D000E1D170473994000871950008739500082C
:1098E00079950008EF950008F59500087F96000827
:1098F000CF970008099700083F970008C99700080C
:10990000D59700080010000000093D00400000004D
:10991000A0860100400D0300801A060000350C00EF
:1099200040420F0080841E0000093D0000127A00B2
:109930000024F40000366E010048E801006CDC02EF
:109940007047FEE7704780B500F010F801BD80B5A4
:109950000448FEF7D9F801BD80B50348C06EFEF794
:10996000D3F801BD903000209032002002480068FA
:10997000401C014908607047FC34002010B450F8C6
:10998000041B79B10268436802440830DC0744BF15
:10999000A9F10104E31852F8044B43F8044B091FE2
:1099A000F9D1ECE710BC704710B50749794418317C
:1099B000064C7C44163404E00A68081D11448847AC
:1099C0000146A142F8D110BD2C0000004C0000005F
:1099D0004EF68851CEF20001086840F4700008602D
:1099E000BFF34F8FBFF36F8F4FF00070E1EE100A9F
:1099F00070470000A1FEFFFFC414000040200020BB
:109A00000000000079FFFFFF3C000000C8FEFFFFE0
:109A1000000000200000000000F00BF8002801D03A
:109A2000FFF7C2FF0020C046C046FEF7F7F800F07F
:109A300002F80120704700F001B8000007463846E0
:109A400000F002F8FBE7000080B5C046C046024ABD
:109A500011001820ABBEFBE726000200000000004A
:109A600000000000010203040607080901488047BE
:109A700001480047299800087D9A0008C046C04662
:109A8000FFF7A6FFFFF7C8FF000000000102030474
:109A9000FFF7FEBFFFF7FEBFFFF7FEBFFFF7FEBFFA
:109AA000FFF7FEBFFFF7FEBFFFF7FEBFFFF7FEBFEA
:109AB000FFF7FEBFFFF7FEBFFFF7FEBFFFF7FEBFDA
:109AC000FFF7FEBFFFF7FEBFFFF7FEBFFFF7FEBFCA
:109AD000FFF7FEBFFFF7FEBFFFF7FEBFFFF7FEBFBA
