:020000040800F2
:104000004882002009110108150B0108170B01084F
:10401000190B01081B0B01081D0B01080000000013
:104020000000000000000000000000001F0B01085D
:10403000210B010800000000230B0108250B0108DB
:10404000C9110108CD110108D1110108D5110108CC
:10405000D9110108DD110108E1110108E51101087C
:10406000E9110108ED110108F1110108F51101082C
:10407000F9110108FD1101080112010805120108DA
:10408000091201080D120108111201081512010888
:10409000191201081D12010821120108370B01082D
:1040A00025120108291201082D1201082D0B010803
:1040B000311201084B0B01083512010839120108B1
:1040C0003D12010841120108451201084912010878
:1040D0004D12010851120108551201085912010828
:1040E0005D120108611201086512010869120108D8
:1040F0006D12010871120108751201087912010888
:104100007D12010881120108851201088912010837
:104110008D120108911201089512010899120108E7
:104120009D120108A1120108A5120108A912010897
:10413000AD120108B1120108B5120108B912010847
:10414000BD120108C1120108C5120108410B010886
:10415000C9120108CD120108D1120108D5120108B7
:10416000D9120108DD120108E1120108E512010867
:10417000E9120108ED120108F11201080000000027
:10418000F5120108F91201084FF4E07210440268B8
:10419000914203D343681A44914202D380680028B5
:1041A000F5D17047DFF85C07016891B94FF48031B1
:1041B00081604FF4805141604FF0FF31C160016177
:1041C0000421DFF844274161C2F8BC11DFF83C1735
:1041D00001600120704701F1080313F0070305D0C7
:1041E00001F10803C3F1080303F007031944D21ACD
:1041F0008161C26042F001034B60114428234B608F
:10420000DFF800170969C16170472DE9F84F0646CC
:1042100001F1080010F0070008BF884607D001F13F
:104220000800C0F1080000F0070001EB000802F1EF
:10423000080010F0070006D002F10800C0F10800E5
:1042400000F0070002441546A5EB0800A0EB0309A7
:1042500008EB030B43F00300C8F80400AB4528BF8C
:1042600001F00CFA2879C00758BF01F007FAB9F13C
:10427000100F38BF01F002FAB069854209D1F06829
:104280004844F060C6F818B040F00100CBF80400D4
:1042900070E1706985420BD1B0684844B060C6F8DF
:1042A00014B040F00101CBF804104BF8000061E1BC
:1042B000686800F00301012940F0AF80C008C00029
:1042C0000190C00820283BD2D5F808A0EF680090E4
:1042D000BD4208BF01F0D2F9554508BF01F0CEF943
:1042E00068680099C008C000B0EBC10F18BF01F0AA
:1042F000C5F9009806EBC00000F128018A4508D0F6
:1043000031698A45C0F08480DAF80C10A94240F087
:104310007F80574506D1009A30680121914088433B
:10432000306077E02830874205D0306987426FD30C
:10433000B868A8426CD1CAF80C70C7F808A069E048
:10434000EF68D5F818A0AF420CD0A8683169884250
:1043500023D3C168A94204BFB968A9421DD1C7606F
:10436000B8601CE005F11400076837B905F11000CA
:104370000768A7B101E00846076807F114010A6859
:10438000002A02BF07F110010A68002AF3D131693F
:10439000884202D30021016001E001F06FF9BAF117
:1043A000000F37D0E86906EB80004FF4987108449D
:1043B00001688D4208D10760A7B9EA6970680121D8
:1043C00091408843706025E03069824508D3DAF86F
:1043D0001000A84214BFCAF81470CAF8107001E0A7
:1043E00001F04CF9B7B13069874211D3C7F818A072
:1043F000296929B1814226BF39618F6101F03EF9F7
:10440000686938B13169884202D37861876101E017
:1044100001F034F90198054481446868400840007F
:1044200068604FEAD90549F00100CBF804004BF869
:104430000990202D23D206EBC50000F12807BA46CB
:10444000B9F1100F38BF01F019F9306820FA05F101
:10445000C90704D40121A9400843306006E0B868C8
:10446000316988422CBF824601F008F9C7F808B0CC
:10447000CAF80CB0CBF808A0CBF80C707AE05FEA71
:10448000192108BF002023D0B1F5803F28BF1F208D
:104490001ED2A1F58070000C00F008008140A1F54B
:1044A0008052120C02F004029140A1F580431B0CD3
:1044B000C0F10E0003F00203801AC01A994000EB0D
:1044C000D130C11D29FA01F202F0010101EB4000D7
:1044D00006EB80014FF498721144CBF81C000022C7
:1044E000CBF81420CBF81020726822FA00F3DB0717
:1044F00007D4012303FA00F010437060C1F800B044
:104500001DE009681F281DBF4008C0F1190009FA05
:1045100000F0484600E011464A68D208D2004A45F9
:1045200014D0C20F01EB820202F1100340001A689E
:10453000002AF0D1306983421AD3C3F800B0CBF817
:104540001810CBF80CB0CBF808B013E032698868CB
:10455000914228BF90420BD3C0F80CB0C1F808B00C
:10456000CBF80800CBF80C100020CBF8180001E0C5
:1045700001F084F808F10800BDE8E68F2DE9FA4D56
:104580000546DFF88003006882B008B9FFF70AFE2D
:10459000DFF870030299806841182F31401E21EA2C
:1045A00000000299814280F0A9814FF4D8716E1801
:1045B000B16839B132688018824280F09F818142AF
:1045C000C0F09C8101F062F800281EBF0446D0F8BC
:1045D000008014F1010F00F091813068716840444F
:1045E0008142306038BF01467160A86980BB28698C
:1045F00008B1844200D22C610020F0613461C6F819
:10460000148005F12801BF48006868624FF0FF3050
:1046100028620020C960896001F108024A610A61CC
:10462000801C10312028F5D3B748854203D1A8F16A
:10463000280221462AE055F8040CC00805EBC0000A
:10464000A0F1080104EB0800401AA0F128021DE0C7
:104650004FF4E0702918084600E08068D0B1026885
:1046600043681A449442F8D1027B120712D4AA6913
:1046700003689A420ED347683B449A420AD208EB39
:1046800007014160E868A96908EB00022846FFF7C6
:10469000A2FD1DE128698442084638BF2C6104EB65
:1046A000080100E0806880B102688A42FAD1017B8B
:1046B00009070AD404604168414441602146029BD5
:1046C000284604B0BDE8F04D9FE5AF69394628465D
:1046D000FFF75AFD4FF0000B016840680844019055
:1046E000273810F0070101990EBF0020C0F1080023
:1046F00000F0070008442F3807F11001884234BF4A
:1047000000970090009804F1080100F1180A11F0D8
:104710000701A8F1280005D004F10801C1F1080142
:1047200001F00701401A2144A961E86040F001024C
:104730004A6008442822426072480069E861009893
:10474000083010F0070018BF00F098FF00991B20F8
:1047500048604FF4E0712944B1E80C5000980830EB
:10476000A0E80C503461C6F81480C6F81CB000985C
:104770000830B061019801E00AF1040A0721CAF883
:1047800004100BF1010B0AF108018142F4D3BBF1D3
:10479000020FB8BF00F072FF0098B84200F0988096
:1047A000C01B3918C4084A68520852004A6040F0D9
:1047B000010179603850202C20D205EBC40101F1B1
:1047C0002806B046102838BF00F058FF286820FAA5
:1047D00004F1C90704D40121A1400843286006E080
:1047E000B068296988422CBF804600F047FFB76057
:1047F000C8F80C70C7F80880FE6069E0010A23D091
:10480000B1F5803F28BF1F211ED2A1F58072120C86
:1048100002F008029140A1F580531B0C03F0040341
:104820009940A1F58044240CC2F10E0204F0020468
:10483000D21A121BA14002EBD131CA1D20FA02F399
:1048400003F0010202EB410105EB81024FF4987382
:104850001A44F96100237B613B616B6823FA01F420
:10486000E40705D4012088401843686017601CE005
:1048700012681F291DBF4908C1F1190100FA01F191
:10488000014600E01A465368DB08DB00834210D083
:10489000CB0F02EB830303F1100449002368002BC4
:1048A000F0D12869844211D32760BA61FF60BF60EC
:1048B0000EE0296990688A4228BF884206D3C76003
:1048C0009760B860FA600020B86101E000F0D6FEA1
:1048D000E8680299814211D2401AE860A969029AF7
:1048E0000A44AA6140F001005060029840F00300C1
:1048F000486004B001F10800BDE8F08D002004B06C
:10490000BDE8F08DD4A00020F49A00206859883CBE
:104910002DE9F84F0446002689465FEA1920C9F1BF
:10492000000B08BF002123D0B0F5803F28BF1F2116
:104930001ED2A0F58071090C01F008018840A0F595
:104940008052120C02F004029040A0F580431B0C30
:10495000C1F10E0103F00203891AC91A984001EB54
:10496000D030C11D29FA01F202F0010101EB400132
:1049700004EB8100D0F8300118B31F290FBF4A465D
:104980004A08C2F1190209FA02F2002300E05200BB
:104990004568ED08ED00A5EB09055D4503D25FEA2A
:1049A000050B06460BD04569D70F00EB8700002D9D
:1049B00000691CBF85422B460028E8D11846B8BBC9
:1049C000C6BB01208840400041420843616808405E
:1049D00000F05D8141420840401E010B01F01001D2
:1049E000C840420902F00802D040830803F00403E3
:1049F000D840450805F002055118E8405918C0F3A1
:104A0000400729443944F840401804EB8000D0F8AE
:104A100030010DE008464168C908C900A1EB090151
:104A200059453CBF8B46064601690029F2D14069D1
:104A30000028F0D1002E00F02A81A068A0EB090028
:104A4000834580F0248120698642C0F01E81706811
:104A5000C00809EB0B08C000404518BF00F00EFE6F
:104A600006EB0905AE4280F01081F768D6F818A071
:104A7000B7420CD0B0682169884223D3C168B142E3
:104A800004BFB968B1421DD1C760B8601CE006F12F
:104A90001400076837B906F110000768A7B101E0F4
:104AA0000846076807F114010A68002A02BF07F1E7
:104AB00010010A68002AF3D12169884202D300213B
:104AC000016001E000F0DAFDBAF1000F39D0F069C1
:104AD00004EB80004FF49871084401688E4209D1BC
:104AE0000760380014D1F269606801219140884361
:104AF000606026E02069824508D3DAF81000B042F1
:104B000014BFCAF81470CAF8107001E000F0B6FDC6
:104B1000BFB12069874212D3C7F818A0306930B1FD
:104B20002169884226BF3861876100F0A7FD70695E
:104B300038B12169884202D37861876101E000F0D1
:104B40009DFDBBF1100F09D248F00300706006EB29
:104B50000800416841F00101416095E049F003001F
:104B600070604BF0010068604FEADB0045F80BB065
:104B700020281DD204EBC00101F12807216821FA89
:104B800000F2D207BB4605D4012202FA00F0084326
:104B9000206006E0B868216988422CBF834600F097
:104BA0006DFDBD60CBF80C50C5F808B0EF606BE050
:104BB0005FEA1B2023D0B0F5803F28BF1F201ED204
:104BC000A0F58071090C01F008018840A0F5805221
:104BD000120C02F004029040A0F580431B0CC1F1BE
:104BE0000E0103F00203891AC91A984001EBD03074
:104BF000C11D2BFA01F202F0010101EB400004EBB0
:104C000080014FF498721144E86100226A612A61C0
:104C1000626822FA00F3DB0706D4012303FA00F0EE
:104C2000104360600D601CE009681F281DBF40082C
:104C3000C0F119000BFA00F0584600E011464A682E
:104C4000D208D2005A4510D0C20F01EB820202F105
:104C5000100340001A68002AF0D12069834211D362
:104C60001D60A961ED60AD600EE022698868914227
:104C700028BF904206D3C5608D60A860E96000201F
:104C8000A86101E000F0FAFC08E100F0F7FC02E1A5
:104C90002DE9F84F04468846606841420840401EAE
:104CA000010B01F01001C840420902F00802D04097
:104CB000830803F00403D840450805F002055118A5
:104CC000E8405918C0F3400629447118F0404018D4
:104CD00004EB8000D0F830014168C908C9000646DD
:104CE000A1EB080A09E008464168C908C900A1EB20
:104CF000080151453CBF8A46064601690029F2D1A8
:104D000040690028F0D120698642C0F0C2807068F6
:104D1000C00808EB0A09C000484518BF00F0AEFC07
:104D200006EB080B5E4580F0B480F768B569B742C2
:104D30000CD0B0682169884223D3C168B14204BF56
:104D4000B968B1421DD1C760B8601CE006F114001B
:104D5000076837B906F110000768A7B101E00846F7
:104D6000076807F114010A68002A02BF07F1100161
:104D70000A68002AF3D12169884202D30021016028
:104D800001E000F07BFC002D35D0F06904EB8000E1
:104D90004FF49871084401688E4209D107603800C9
:104DA00011D1F2696068012191408843606022E07E
:104DB0002069854205D32869B04214BF6F612F6115
:104DC00001E000F05BFCB7B12069874211D3BD61FF
:104DD000306930B12169884226BF3861876100F0AF
:104DE0004DFC706938B12169884202D378618761CE
:104DF00001E000F043FCBAF1100F09D249F00300C2
:104E0000706006EB0900416841F0010141603FE03C
:104E100048F0030070604AF00100CBF804004BF842
:104E20000AA0D4F808804FEAD805202D28BF00F04A
:104E300025FCB8F1000F27D0D4F81490009504EBAE
:104E4000C50000F128052F46B8F1100F38BF00F05B
:104E500015FC2068009920FA01F2D10705D4009AC8
:104E6000012191400843206006E0A868216988423A
:104E70002CBF074600F002FCC5F80890C7F80C905C
:104E8000C9F80870C9F80C50C4F808A0C4F814B0E8
:104E900004E000F0F3FB0020BDE8F28F06F108000B
:104EA000BDE8F28F2DE9F04F83B00546C046C046FD
:104EB000F52DDFF8C04780F002810B2D31BF1027A0
:104EC00005F10B00C708FF002068FE08F04010F055
:104ED000030F42D0C04300F00100861904EBC60066
:104EE00000F12808F700D8F808506868C008C0002A
:104EF000B84218BF00F0C2FBD5F80890454508BF7E
:104F000000F0BCFB4D4508BF00F0B8FB6868C00866
:104F1000C000B84218BF00F0B1FBC84505D12068F9
:104F20000121B140884320600DE02069814508D30C
:104F3000D9F80C00A84204D1C8F80890C9F80C8030
:104F400001E000F09BFB47F003006860E8190835BA
:104F5000416841F001014160F9E0A168B94280F087
:104F6000C080002800F0A280012505FA06F1490062
:104F70004A42B0401143084041420840401E010BE4
:104F800001F01001C840420902F00802D040830835
:104F900003F00403D840460806F002065118F0401A
:104FA0005918C0F340087118414420FA08F000EB8A
:104FB000010804EBC80000F128094FEAC80AD9F833
:104FC00008607068C008C000504518BF00F056FB6C
:104FD000D6F808B04E4508BF00F050FB5E4508BF4C
:104FE00000F04CFB7068C008C000504518BF00F0CE
:104FF00045FBD94505D1206805FA08F188432060B2
:105000000DE02069834508D3DBF80C00B04204D1E1
:10501000C9F808B0CBF80C9001E000F02FFB47F086
:1050200003007060AAEB0708F019019048F0010036
:1050300001994860019840F80880A7684FEAD70AAC
:10504000BAF1200F28BF00F019FB47B3CDF800A03C
:1050500004EBCA00D4F8149000F1280AD346102FAC
:1050600038BF00F00BFB2068009920FA01F2D1074D
:1050700005D4009905FA01F10843206007E0DAF849
:105080000800216988422CBF834600F0F7FACAF86D
:105090000890CBF80C90C9F808B0C9F80CA0C4F877
:1050A000088006F108050198606150E06068C0B3AF
:1050B00039462046FFF7ECFD050012D047E015F118
:1050C000400F28BF4FF0FF370BD205F10B00C70888
:1050D0006068FF0028B139462046FFF719FC05003B
:1050E00035D1A068B8421CD3C11B626910290AD30C
:1050F000D0196061A16041F001034360415047F065
:10510000030050600AE00021A160616140F00301EA
:1051100051601044416841F00101416002F108050D
:1051200015E0E06887420DD2C01BA169E060CA1992
:10513000A26140F00100506001F1080547F0030052
:10514000486004E039462046FFF718FA0546C04695
:10515000C046284603B0BDE8F08F00B970472DE97E
:10516000F047A0F10804C046C046DFF8085528699A
:105170008442C0F07982616801F00302012A00F0E4
:105180007382CA084FEAC208CA0704EB080937D479
:10519000226811F0030F00F0698251420C448442EE
:1051A0009044C0F0618269698C4200F0D980D608D1
:1051B000202E70D2D4F80CA0A768544508BF00F088
:1051C0005DFABC4208BF00F059FA6068C008C00030
:1051D000B0EBC60F18BF00F051FA05EBC60000F1A6
:1051E00028018F4205D029698F4251D3F968A14225
:1051F0004ED1BA453DD128680121B140884328608D
:105200004C4580F03182D9F80400C10740F12C826E
:10521000810700F17D81A969894540F0B680E86881
:10522000AC614044E86040F00101616069698C4212
:1052300002D100216961A960E969814280F016828A
:10524000DFF83404006808B9FEF7ACFFA96900294B
:1052500000F00C82E868292824BF2846FEF794FF56
:10526000E869E968884280F001824FF0FF30E86128
:10527000FCE12830824506D02869824508D3DAF857
:105280000800A04204D1C7F80CA0CAF80870B7E71C
:1052900000F0F4F9B4E7E768A669A7420BD0A1686B
:1052A000814222D3C868A04204BFB868A0421CD182
:1052B000CF60B9601BE004F114010F6837B904F145
:1052C00010010F689FB101E011460F6807F1140249
:1052D0001368002B02BF07F110021368002BF3D1F3
:1052E000814202D30020086001E000F0C7F9002EDF
:1052F00086D0E06905EB80004FF49871084401689E
:105300008C4209D10760380011D1E2696868012137
:1053100091408843686073E72869864205D3306905
:10532000A04214BF7761376101E000F0A7F9002FB8
:105330003FF466AF28698742AAD3BE61216929B1CB
:10534000814226BF39618F6100F098F960690028B9
:105350003FF456AF296988429AD3786187614FE755
:1053600099F8040000F0030003287FF449AFC5F862
:105370000880D9F8040040084000C9F8040048F04B
:105380000100606044F8088070E16969894508D1CE
:10539000A8686C614044A86040F001016160205041
:1053A00064E1C008C0004FEAD00ABAF1200F80447F
:1053B00037D2D9F80C70D9F80860B94508BF00F0A9
:1053C0005DF9B14508BF00F059F9D9F80400C008EB
:1053D000C000B0EBCA0F18BF00F050F905EBCA00CF
:1053E00000F128018E4207D029698E42C0F08380E7
:1053F000F168494540F07F80B74206D12868012115
:1054000001FA0AF18843286077E02830874205D006
:10541000286987426FD3B86848456CD1F760BE6091
:105420006BE0D9F80C70D9F818604F450DD0D9F859
:1054300008002969884223D3C168494504BFB96877
:1054400049451DD1C760B8601CE009F11400076828
:1054500037B909F110000768A7B101E008460768ED
:1054600007F114010A68002A02BF07F110010A6857
:10547000002AF3D12969884202D30021016001E0AA
:1054800000F0FCF8002E38D0D9F81C0005EB8000A5
:105490004FF498710844016889450AD107603800C3
:1054A00012D1D9F81C2068680121914088436860B6
:1054B00023E02869864205D33069484514BF7761E7
:1054C000376101E000F0DAF8BFB12869874212D3F2
:1054D000BE61D9F8101029B1814226BF39618F61B0
:1054E00000F0CCF8D9F8140038B12969884202D309
:1054F0007861876101E000F0C1F848F00100606068
:1055000044F80880686984420BD1C5F80880ADE092
:1055100040084000C9F8040048F00100606044F809
:1055200008804FEAD807202F22D205EBC70000F1F0
:1055300028094E46B8F1100F38BF00F09FF82868D0
:1055400020FA07F1C90704D40121B94008432860B3
:1055500007E0D9F80800296988422CBF064600F008
:105560008DF8C9F80840F460A660C4F80C907DE09E
:105570005FEA182008BF002123D0B0F5803F28BF84
:105580001F211ED2A0F58071090C01F0080188408E
:10559000A0F58052120C02F004029040A0F5804366
:1055A0001B0CC1F10E0103F00203891AC91A9840BD
:1055B00001EBD030C11D28FA01F202F0010101EB2C
:1055C000400105EB81004FF49872104400226261A3
:1055D0002261E1616A6822FA01F3DB0706D4012344
:1055E00003FA01F11143696004601CE000681F299F
:1055F0001DBF4908C1F1190108FA01F1414600E057
:1056000010464268D208D200424510D0CA0F00EBC3
:10561000820202F1100349001A68002AF0D12969B8
:105620008B4211D31C60A061E460A4600EE02A6983
:105630008168904228BF914206D3CC608460E060CC
:10564000A1600020A06101E000F018F8286A401E67
:1056500028620BD1D5F8C80100E080680028FCD191
:105660004FF0FF30286201E000F008F8C046C04665
:10567000BDE8F087F49A0020D4A00020012000F0BB
:105680001BB80268531C0360117070470749086813
:1056900008B1002070470648C008C00008600549EE
:1056A000C908C900091A0160704700BFB0A10020F5
:1056B0004F820020488A002080B500F007F8024A97
:1056C00011001820ABBEFBE72600020080B500F0F9
:1056D00033F802000023DB431068984204D0110025
:1056E0000220ABBE002010605068984204D0111D0B
:1056F0000220ABBE0020506001BD000010B584B098
:10570000040000F019F8A100421810680021C943F4
:1057100088420DD107A00090002C01D1002000E0AC
:10572000042001900320029069460120ABBE106066
:1057300004B010BD3A74740000487047C0010020E6
:1057400010B58AB01B208DF81800C5208DF81900FF
:10575000D5208DF81A00A5208DF81B0002208DF8A9
:105760001C0000208DF81D00B4208DF81E009A202A
:105770008DF81F00E1208DF8200011208DF8210008
:105780000F208DF8220000208DF8230000208DF8D6
:10579000240000208DF8250000208DF82600002030
:1057A0008DF82700DFF8DC0D00900423012206A904
:1057B000022000F0F9FF0400E4B2002C4AD11B20C3
:1057C0008DF81800C5208DF81900D5208DF81A0025
:1057D000A5208DF81B0002208DF81C0000208DF8FC
:1057E0001D0036208DF81E00AC208DF81F00E12032
:1057F0008DF8200011208DF821000F208DF8220057
:1058000000208DF8230002208DF8240000208DF860
:10581000250000208DF8260000208DF82700DFF8F5
:10582000180B059001200490102003900520029091
:105830000020019014200090142306AA0221DFF812
:10584000440D008801F016F80400E4B2002C01D1E8
:10585000002000E047200AB010BD2DE9F04782B0DB
:1058600004000D000020804640462900C0B2C9B2A5
:10587000884232D2B5EB08000700FFB2152F01DBDA
:105880001427FFE7FFB25FFA88F804EB0809DFF896
:10589000ACAA3A004946504601F006F9DFF8A00AE2
:1058A00007705FFA88F804EB080000903B00DBB259
:1058B0000022DFF8900A0188DFF8CC0C008801F0A4
:1058C00073F80600F6B2002E01D0472006E00A2049
:1058D00001F0C8FD18F11408C6E70020BDE8F687FE
:1058E0002DE9F047C0B004000D000020070038008B
:1058F0002900C0B2C9B288423DD2E81B80465FFA97
:1059000088F8B8F1150F02DB5FF01408FFE75FFAC3
:1059100088F8FFB204EB0709DFF82CAA4246494693
:10592000504601F0C1F8DFF8240A80F80080FFB289
:1059300004EB070000904346DBB20022DFF8100AB8
:105940000188DFF8440C008801F02EF80600F6B25A
:10595000002E0BD0DFF8041D684601F0F1FD8146F2
:105960004946684601F006FE472005E0142001F094
:1059700079FD1437BBE7002040B0BDE8F08710B5D3
:1059800082B0DFF8B8090090DFF8B409037800228C
:10599000DFF8B0090188DFF8F00B008801F004F8A7
:1059A0000400E4B2002C01D0472000E0002016BD26
:1059B00030B5C1B0DFF890090090DFF890090378A6
:1059C0000022DFF88C090188DFF8BC0B008800F0AA
:1059D000EBFF0400E4B2002C23D0DFF8840C006855
:1059E000800512D5DFF8741CDFF8780C01F0A8FDF3
:1059F000DFF8741C0860DFF8700C00680100C9B2A1
:105A0000DFF8600CFFF729FF09E0DFF8501C68465B
:105A100001F096FD05002900684601F0ABFD472026
:105A200000E0002041B030BD2DE9F041C4B00400D9
:105A30000D00160001F0F8FDC0088DF8040001F01B
:105A4000F3FDC00A8DF8050020008DF80900200A3A
:105A50008DF80800200C8DF80700200E8DF8060048
:105A60008DF80A508DF80B6001A8009008230022E1
:105A7000DFF8C4080188DFF80C0B008800F094FF01
:105A80000700FFB2002F23D0DFF8D40B0068800599
:105A900012D5DFF8701CDFF8CC0B01F051FDDFF8F8
:105AA000C81B0860DFF8C00B00680100C9B2DFF84E
:105AB000B40BFFF7D2FE09E0DFF8481C03A801F0A1
:105AC0003FFD8046414603A801F054FD472000E019
:105AD000002044B0BDE8F08130B58BB004251B2018
:105AE0008DF81800C5208DF81900D5208DF81A0002
:105AF000A5208DF81B0002208DF81C0000208DF8D9
:105B00001D00B4208DF81E009A208DF81F00E120A2
:105B10008DF8200011208DF8210001208DF8220041
:105B200000208DF8230000208DF8240000208DF83F
:105B3000250000208DF8260000208DF82700DFF8D2
:105B4000C80B0090032000FB05F0401C0300DBB2F3
:105B5000012206A9022000F027FE0400E4B2002C76
:105B600040F0DF801B208DF81800C5208DF819004B
:105B7000D5208DF81A00A5208DF81B0002208DF885
:105B80001C0000208DF81D0036208DF81E00AC2072
:105B90008DF81F00E1208DF8200011208DF82100E4
:105BA00001208DF8220000208DF8230000208DF8C0
:105BB000240000208DF8250000208DF8260000200C
:105BC0008DF82700DFF8440B806802280DD19DF87E
:105BD000260050F005008DF82600DFF8340B007821
:105BE000001DDFF82C1B087011E0DFF8200B806827
:105BF00001280CD19DF8260050F004008DF82600F5
:105C0000DFF80C0B0078801CDFF8041B0870DFF84D
:105C1000FC0A806900280CD09DF8260050F008008E
:105C20008DF82600DFF8E80A0078801CDFF8E01A1B
:105C30000870DFF8D80A406900280CD09DF82600CB
:105C400050F010008DF82600DFF8C40A0078001D1F
:105C5000DFF8BC1A0870DFF8BC0A05900020049039
:105C60001020039004200290002001901220009048
:105C7000DFF89C0A037806AA0221DFF88C0A008864
:105C800000F0F8FD0400E4B2002C4AD11B208DF88E
:105C90001800C5208DF81900D5208DF81A00A52010
:105CA0008DF81B0002208DF81C0000208DF81D00CF
:105CB00036208DF81E00AC208DF81F00E1208DF8F5
:105CC000200011208DF8210001208DF822000020F5
:105CD0008DF8230000208DF8240000208DF8250089
:105CE00000208DF8260020208DF82700DFF8280AF4
:105CF00005900020049010200390042002900020C2
:105D0000019012200090032306AA0221DFF8F8096F
:105D1000008800F0AFFD0400E4B2002C01D10020A7
:105D200000E047200BB030BD2DE9F047C4B00400BF
:105D30000D0016001F0001F077FCC0088DF804006C
:105D400001F072FCC00A8DF8050002208146DFF8E0
:105D5000BC094069002818D001A85FFA89F900F849
:105D60000940201201A95FFA89F9494448702014BA
:105D700001A95FFA89F949448870201601A95FFAE0
:105D800089F94944C87019F10409DFF8800980696C
:105D900000280ED001A85FFA89F900F80950280000
:105DA00080B2000A01A95FFA89F94944487019F1E3
:105DB0000209DFF85809806802281CD101A85FFA9F
:105DC00089F900F8096036B2301201A95FFA89F941
:105DD0004944487019F1020901A85FFA89F900F8ED
:105DE00009703FB2381201A95FFA89F94944487035
:105DF00019F1020912E0DFF81409806801280DD1B9
:105E000001A85FFA89F900F809703FB2381201A9B8
:105E10005FFA89F94944487019F1020901A8009014
:105E2000DFF8EC0803780022DFF8E8080188DFF8E3
:105E3000D808008800F0B8FD80465FFA88F8B8F10D
:105E4000000F23D0DFF818080068800512D5DFF8AE
:105E5000CC18DFF8100801F073FBDFF80C180860AD
:105E6000DFF8040800680100C9B2DFF8F807FFF79F
:105E7000F4FC09E0DFF8A41804A801F061FB8246F5
:105E8000514604A801F076FB472000E0002044B012
:105E9000BDE8F08770B5C2B0040001F0C5FBC008D2
:105EA0008DF8040001F0C0FBC00A8DF805008DF8E4
:105EB000064001A8009003230022DFF85C08018857
:105EC000DFF84408008800F06FFD0500EDB2002DFA
:105ED00023D0DFF88C070068800512D5DFF8401862
:105EE000DFF8800701F02CFBDFF87C170860DFF893
:105EF000780700680100C9B2DFF86807FFF7ADFC5A
:105F000009E0DFF8201802A801F01AFB06003100B2
:105F100002A801F02FFB472000E0002042B070BD36
:105F200000B591B00EA8DFF80018D1E90023C0E950
:105F3000002307A8DFF8F4171C2200F0C5FDDFF8E6
:105F4000F00740798DF83000DFF8E40700798DF82C
:105F50003100DFF8DC07C0788DF83200DFF8D007B9
:105F600080788DF83300DFF8C80740788DF834006A
:105F7000DFF8BC0700788DF835009DF82C0050F054
:105F800020008DF82C00DFF88407006B002805D076
:105F90009DF82D0050F002008DF82D00DFF86C0701
:105FA0008068022806D19DF82D0050F005008DF87C
:105FB0002D000AE0DFF854078068012805D19DF81C
:105FC0002D0050F004008DF82D00DFF840078069A7
:105FD000002805D09DF82D0050F008008DF82D0008
:105FE000DFF828074069002805D09DF82D0050F003
:105FF00010008DF82D00DFF81407C069002805D0C7
:106000009DF82E0050F004008DF82E000021002095
:1060100001F02AFD00200690002005900020049049
:10602000002003900EA8029008200190002000900C
:10603000012300220021002001F0FAFD07A91A2007
:1060400001F0EEFE11B000BD70B5C4B004000D004B
:106050000120DFF8E0160860DFF8DC060580207814
:10606000039060780290A0780190E0780090237906
:106070006279DFF8C81604A801F062FA0600310060
:1060800004A801F077FA0020DFF8D415086044B0C6
:1060900070BD10B5C0B00020DFF898160860DFF8BA
:1060A000A016684601F04CFA04002100684601F091
:1060B00061FA0120DFF88C1608700020DFF8A015C7
:1060C00008600021DFF8800601F057FF002801D0AA
:1060D00001F0D7F940B010BD000000002DE9FC47E9
:1060E0000400A4B2DFF82C060088401C844240F073
:1060F000F6800025002600275FF00008DFF80C0678
:106100004069002829D001A9DFF80006406902F0A3
:10611000B9FB002821D16946DFF8F005406902F09B
:10612000BFFB9DED000ABDEEC00A10EE100A8246CC
:1061300000EE10AAB8EEC00ADDED000A30EEC00A8B
:10614000DFED7C0A20EE200ABDEEC00A10EE100A38
:106150008146642000FB0A900500DFF8B0058069E5
:10616000002829D001A9DFF8A405806902F052FCBB
:10617000002821D16946DFF89405806902F058FCB7
:106180009DED000ABDEEC00A10EE100A824600EE38
:1061900010AAB8EEC00ADDED000A30EEC00AF2EE39
:1061A000040A20EE200ABDEEC00A10EE100A814655
:1061B0000A2000FB0A900600DFF8500580680228DC
:1061C00054D101A9DFF84405C06802F095FD00280C
:1061D00021D16946DFF83405C06802F09BFD9DEDD2
:1061E000000ABDEEC00A10EE100A824600EE10AAA8
:1061F000B8EEC00ADDED000A30EEC00AF2EE040A85
:1062000020EE200ABDEEC00A10EE100A81460A20D8
:1062100000FB0A90804601A9DFF8F004006902F053
:106220006BFD002851D16946DFF8E004006902F0F7
:1062300071FD9DED000ABDEEC00A10EE100A824607
:1062400000EE10AAB8EEC00ADDED000A30EEC00A7A
:10625000F2EE040A20EE200ABDEEC00A10EE100A8B
:1062600081460A2000FB0A9007002EE0DFF89C041C
:106270008068012829D101A9DFF89004C06802F0E4
:106280003BFD002821D16946DFF88004C06802F098
:1062900041FD9DED000ABDEEC00A10EE100A8246D7
:1062A00000EE10AAB8EEC00ADDED000A30EEC00A1A
:1062B000F2EE040A20EE200ABDEEC00A10EE100A2B
:1062C00081460A2000FB0A90804643461BB23A00F2
:1062D00012B2310089B22800FFF726FD1EE0A4B2F9
:1062E000DFF834040088401C844206D1DFF81C0427
:1062F00090F82C00FFF7CEFD10E0A4B21148008802
:10630000401C844202D1FFF73AFB07E0A4B21048D8
:106310000088401C844201D1FFF74AFBDFF81804D3
:106320000088002804D0DFF81004008800F097FBF4
:10633000BDE8F3870000C842BCA10020ECA000200B
:10634000C6A10020C2A1002000A10020C7A10020FA
:10635000C0A10020F0B5ADF5417D04000D00160090
:10636000A4B2DFF8E8030088801C844200F00681B4
:10637000A4B2DFF8A0030088801C84425AD1287898
:1063800001281AD1B648006850F00100B4490860ED
:106390000021DFF8B40301F095FD002801D001F0E1
:1063A00070F8DFF8A4030068406A00F59850883060
:1063B000DFF894130968486311E0287800280ED1AB
:1063C000A748006840084000A54908600021DFF8A0
:1063D000780301F0D2FD002801D001F052F8A04866
:1063E0000068C00515D59E480078C00701D599A260
:1063F00000E099A2DFF858139A4801F0A1F89A49F1
:106400000860994800680100C9B29648FFF768FA29
:10641000B4E093480078C00701D58EA200E08EA2B8
:10642000CB4980A801F08CF80700390080A801F062
:10643000A1F8A3E0A4B2C7480088801C844214D10C
:106440002878012806D18648006850F400708449F5
:10645000086093E02878002840F090808048006829
:1064600030F400707E49086088E0A4B2BA48008821
:10647000801C844213D12878012806D1784800680E
:1064800050F480707649086078E02878002875D14B
:106490007348006830F48070714908606EE0A4B2FF
:1064A0009D480088801C844241D1287801280BD166
:1064B0006B48006850F0020069490860934890F802
:1064C0002C00FFF7E7FC08E02878002805D1644895
:1064D000006830F002006249086061480068C00549
:1064E00014D55F480078800701D55AA200E05AA26F
:1064F0009A495C4801F024F85B4908605A480068F2
:106500000100C9B25748FFF7EBF937E0544800786B
:10651000800701D54FA200E04FA2904940A801F0AA
:106520000FF80700390040A801F024F826E0A4B2D3
:1065300086480088401C844205D13100C9B2280039
:1065400000F024F81AE04648006880050DD584491B
:10655000444800F0F5FF44490860434800680100E2
:10656000C9B24048FFF779F908E07D49684600F074
:10657000E7FF07003900684600F0FCFF0DF5417D9C
:10658000F0BD0000BAA10020BEA100202DE9F0431B
:10659000C1B004000D00E078A17850EA01206178D4
:1065A00050EA0140217850EA0166277994F8058085
:1065B000B6F1005F4BD12A480068C00510D5FFB284
:1065C0003B0032006749274800F0BAFF26490860BF
:1065D000254800680100C9B22248FFF781F90BE0A5
:1065E000FFB23B0032006049684600F0A9FF8146D7
:1065F0004946684600F0BEFFFFB2002F10D0012FC1
:106600001CD10120414981F82C0002F099FC42463E
:10661000D2B23900C9B25FF00050FFF705FA0DE0C1
:1066200000203A4981F82C0002F08FFC4246D2B299
:106630003900C9B25FF00050FFF7F6F9084800785A
:10664000800704D5314890F82C00FFF723FC41B0B7
:10665000BDE8F0834F4E00004F464600980E0108FB
:1066600080A10020CC9C002084A100202DE9F041D5
:10667000040025006E1C2878042840D130780528B5
:1066800004D03E2805D0FF2810D038E0FFF701FDE8
:1066900035E0B71C3878012807D117F10108B8F8A0
:1066A000011018F10500FFF7CFFC28E0B71C38886F
:1066B00040F60141401A08D0133820D117F10208E2
:1066C000B8F80200FFF70AFD19E0104890F82D0015
:1066D00001280AD117F1020898F8042018F10701DF
:1066E000B8F80200FFF736FE09E017F1020898F843
:1066F000042018F10501B8F80200FFF72BFEBDE8F1
:10670000F0810000E80D0108B4A1002078A000206D
:1067100041020020B6A10020B8A100200C0E010803
:10672000180F0108340F010894110108500F0108D7
:1067300064A1002090A10020C4A10020300E010817
:10674000281001084002002000A00020BCA1002069
:10675000D8100108C2A10020C0A10020E810010843
:10676000B80E0108401001085810010800B587B0A4
:106770001822002101A802F0F8FB3F20ADF8040028
:1067800040F20110ADF80600684605900120069021
:10679000002101A801F038F8002801D5FF2001E010
:1067A0009DF8000007B000BD2DE9F0478CB0040053
:1067B0000D0016001F00DDF850805FF0000A07A8EA
:1067C0005FFA8AFA00F80A401AF1010AE4B2012CD1
:1067D00002D10220814601E0102081465FFA89F94A
:1067E0004A46290007A85FFA8AFA504402F0B2FB31
:1067F00019EB0A0A07A85FFA8AFA00F80A601AF188
:10680000010A07A85FFA8AFA00F80A701AF1010A69
:1068100003220021684602F0A8FB1822002101A8EB
:1068200002F0A3FB3F20ADF804004FF48170ADF8F7
:10683000060007A803905FFA8AFACDF810A0684610
:10684000059003200690002101A800F0DDFF00283C
:1068500001D5FF200BE09DF80000002802D09DF834
:10686000000004E0BDF80100A8F8000000200CB012
:10687000BDE8F0872DE9FD4F90B089461C9C1D9D19
:106880001E9E1F9FDDF88080DDF884A05FF0000B66
:10689000BDF84000ADF84000022210A902A85FFA3E
:1068A0008BFB584402F056FB1BF1020B02A85FFA67
:1068B0008BFB00F80B901BF1010B5FFA89F9B9F122
:1068C000010F03D102208DF8040002E010208DF8A2
:1068D00004009DF80420119902A85FFA8BFB58442C
:1068E00002F038FB9DF8040010EB0B0B9DF84800FC
:1068F00002A95FFA8BFB01F80B001BF1010B02A848
:106900005FFA8BFB00F80B401BF1010B02A85FFA4A
:106910008BFB00F80B501BF1010B02A85FFA8BFBFD
:1069200000F80B601BF1010B02A85FFA8BFB00F86B
:106930000B701BF1010B02A85FFA8BFB00F80B80B8
:106940001BF1010B03220021684602F00EFB182206
:10695000002109A802F009FB3F20ADF824004FF404
:106960008270ADF8260002A80B905FFA8BFBCDF881
:1069700030B068460D9003200E90002109A800F069
:1069800043FF002801D5FF200BE09DF80000002800
:1069900002D09DF8000004E0BDF80100AAF8000054
:1069A000002013B0BDE8F08FF3B5A7B014001D00B0
:1069B0002E9E0027EDB2A81D812801DB42204CE06D
:1069C000BDF89C00ADF89C00022227A907A8FFB2E1
:1069D000384402F0BFFABF1CBDF8A000ADF8A0001B
:1069E000022228A907A8FFB2384402F0B3FABF1C5C
:1069F00007A8FFB2C4557F1C07A8FFB2C5557F1C6E
:106A0000EDB22A00310007A8FFB2384402F0A2FA22
:106A1000EF191822002101A802F0A7FA3F20ADF8D3
:106A200004004FF48370ADF8060007A80390FFB28E
:106A300004976846059001200690002101A800F007
:106A4000E3FE002801D5FF2007E09DF800000028A4
:106A500002D09DF8000000E0002029B0F0BD10B584
:106A600088B00400ADF804401822002102A802F00A
:106A70007CFA3F20ADF8080040F22710ADF80A007C
:106A800001A8049002200590684606900120079016
:106A9000002102A800F0B8FE002801D5FF2001E087
:106AA0009DF8000008B010BD62B38B0708D0521EDD
:106AB00011F8013B00F8013B00F024808B07F6D170
:106AC000830740F0208000BF103A07D330B4B1E80C
:106AD0003810103AA0E83810F9D230BC530724BF60
:106AE000B1E80810A0E8081044BF51F8043B40F892
:106AF000043BD20724BF31F8022B20F8022B44BFFD
:106B00000B7803707047083A07D3B1E80810083AC9
:106B100040F8043B40F804CBF7D25307E4E7000009
:106B20002DE9F041ADF5407D02F02AFA00F038FC85
:106B300002F074FB022002F00BF902F02CFA8046FE
:106B400002F029FA060002F026FA070002F023FA02
:106B50004FF4FA710491DFF844190391DFF84019FA
:106B6000029108F0FF010191C6F307210091C7F3DC
:106B70000743020EDFF82C1980A800F0E1FC0500A5
:106B8000290080A800F0F6FCDFF81C1940A800F0EE
:106B9000D7FC0600310040A800F0ECFCDFF80C192F
:106BA000684600F0CDFC07003900684600F0E2FCC2
:106BB00000F0BBFA00F0BAFB00F07CFA00F034FD04
:106BC0000400DFF8EC080068002825D1DFF8E408AD
:106BD00090F82C00002810D100F026FD001BB0F525
:106BE0007A7F19D902F0ACF90120DFF8C81881F8D2
:106BF0002C0000F019FD04000EE000F015FD001B54
:106C0000332809D302F0A1F90020DFF8A81881F891
:106C10002C0000F009FD0400DFF89C080068002843
:106C200005D00020DFF89018086000F031FDDFF893
:106C30008C080078002805D0FFF772F90020DFF8F3
:106C40007C180870DFF878080068002805D000205C
:106C5000DFF86C18086000F023F830BFB1E738B5F2
:106C600004000025207E01280FD10021200001F022
:106C700000FB050005F598508830DFF848180968D2
:106C800048630120DFF83818086031BD10B50400F2
:106C9000DFF83408844202D1200000F084FC10BDEB
:106CA0002DE9F047ADF5E16DDFF820080068C0057B
:106CB00012D5DFF81C18DFF81C0800F041FCDFF8E3
:106CC00018180860DFF8100800680100C9B2DFF882
:106CD0000408FEF705FE0BE0DFF8F4170DF5C160C0
:106CE00000F02EFC040021000DF5C16000F042FC14
:106CF000DFF8D8070078C00740F1B68100240025EE
:106D000000260027DFF8AC07406900284FD001A912
:106D1000DFF8A007406901F0B5FD002847D16946BA
:106D2000DFF89007406901F0BBFD9DED000ABDEE64
:106D3000C00A10EE100A814600EE109AB8EEC00AA2
:106D4000DDED000A30EEC00ADFEDD90A20EE200AA0
:106D5000BDEEC00A10EE100A8046642000FB0980D8
:106D60000400DFF868070068C00513D52200DFF8CB
:106D70006C17DFF8600700F0E3FBDFF85C170860D2
:106D8000DFF8540700680100C9B2DFF84807FEF7D2
:106D9000A7FD0CE02200DFF844170DF5A16000F01C
:106DA000CFFB824651460DF5A16000F0E3FBDFF812
:106DB00004078069002851D001A9DFF8F80680692E
:106DC00001F028FE002849D16946DFF8E80680690D
:106DD00001F02EFE9DED000ABDEEC00A10EE100A75
:106DE000814600EE109AB8EEC00ADDED000A30EEE2
:106DF000C00AF2EE040A20EE200ABDEEC00A10EE30
:106E0000100A80460A2000FB09800500DFF8BC0656
:106E10000068C00514D5ADB22A00DFF8C416DFF84B
:106E2000B40600F08DFBDFF8B0160860DFF8A806A6
:106E300000680100C9B2DFF89C06FEF751FD0DE0C5
:106E4000ADB22A00DFF898160DF5816000F078FBEE
:106E5000824651460DF5816000F08CFBDFF8540648
:106E60008068022840F0A28001A9DFF84806C068C7
:106E700001F042FF002847D16946DFF83806C068B4
:106E800001F048FF9DED000ABDEEC00A10EE100AA9
:106E9000814600EE109AB8EEC00ADDED000A30EE31
:106EA000C00AF2EE040A20EE200ABDEEC00A10EE7F
:106EB000100A80460A2000FB09800700DFF80C0654
:106EC0000068C00514D53FB23A00DFF81816DFF8A5
:106ED000040600F035FBDFF800160860DFF8F8055F
:106EE00000680100C9B2DFF8EC05FEF7F9FC0BE021
:106EF0003FB23A00DFF8EC15C2A800F021FB824651
:106F00005146C2A800F036FB01A9DFF8A8050069C8
:106F100001F0F2FE002840F09E806946DFF89405FB
:106F2000006901F0F7FE9DED000ABDEEC00A10EE0B
:106F3000100A814600EE109AB8EEC00ADDED000A94
:106F400030EEC00AF2EE040A20EE200ABDEEC00ABE
:106F500010EE100A80460A2000FB09800600DFF8C8
:106F60006C050068C00514D536B23200DFF878151C
:106F7000DFF8600500F0E4FADFF85C150860DFF880
:106F8000580500680100C9B2DFF84805FEF7A8FC03
:106F900061E036B23200DFF8501582A800F0D0FA76
:106FA0008246514682A800F0E5FA54E0DFF8040575
:106FB000806801284FD101A9DFF8F804C06801F00A
:106FC0009BFE002847D16946DFF8E804C06801F05D
:106FD000A1FE9DED000ABDEEC00A10EE100A81462A
:106FE00000EE109AB8EEC00ADDED000A30EEC00ADD
:106FF000F2EE040A20EE200ABDEEC00A10EE100ADE
:1070000080460A2000FB09800700DFF8C004006802
:10701000C00514D53FB23A00DFF8D014DFF8B4044D
:1070200000F08EFADFF8B0140860DFF8AC040068F6
:107030000100C9B2DFF89C04FEF752FC0BE03FB23E
:107040003A00DFF8A81442A800F07AFA82465146C6
:1070500042A800F08FFA3B001BB2320012B22900A6
:1070600089B22000FEF760FEDFF860040068C0050A
:1070700011D5CAA1DFF85C0400F062FADFF85814F9
:107080000860DFF8540400680100C9B2DFF8440466
:10709000FEF726FC08E0C1A102A800F051FA0400A6
:1070A000210002A800F066FA0DF5E16DBDE8F08759
:1070B0000000C84210B588B0DFF83404006842F21E
:1070C0001071B0FBF1F0401E0400DFF82804DFF877
:1070D000F41308604FF6FF70DFF8E813C860DFF8BC
:1070E000E40344600020DFF8DC1308610020DFF8CF
:1070F000D4138860DFF8CC0300F0C8FE002801D06C
:1071000000F0BFF9302000900220029041F2883058
:10711000019000226946DFF8AC0301F066F8002810
:1071200001D000F0AEF908B010BD30B5ADF5C06DBE
:107130008FB00DA8DFF8C013D1E90023C0E9002308
:1071400002F035FD00F076FA02F05DFD0DF12A0146
:107150000AA802F0B5FE9DF82800312804DB0120C2
:10716000D44981F82D0003E00020D24981F82D0098
:1071700002F049FDDFF884030068000EDFF8801399
:107180000870DFF880030068DFF874134870DFF8D8
:1071900078030068000ADA498870DA480068000C51
:1071A000D749C8706E20D6490871C020D4494871AB
:1071B000FFF7DCFA0400002C0DD0D449FFA8FF3003
:1071C000413000F0BDF905002900FFA8FF30413033
:1071D00000F0D0F9A6E0B74890F82D0001280CD1B6
:1071E0000CA801900BA800900DF12E03072200219E
:1071F000012000F09BFC040007E00CAB0BAA0DF192
:107200002E01012000F0D9FC0400002C0BD0C04955
:10721000FFA8403000F094F905002900FFA8403095
:1072200000F0A8F97EE0B64800F054FC0400002C01
:1072300009D0B849CFA800F083F905002900CFA8EC
:1072400000F098F96EE00DA8009007230022BDF829
:107250002C10BDF82E00FFF7A7FB0400002C09D06E
:10726000AD498FA800F06CF9050029008FA800F047
:1072700081F9FEE701200390A848029000200190C8
:1072800010200090072300220021012000F07FFD44
:107290000400002C09D0A2494FA800F051F90500C4
:1072A00029004FA800F066F93CE09DF8280031283D
:1072B00005DBBDF82A0010F00F00603000E061200F
:1072C0008F49097809918E49497808918C498978C4
:1072D00007918B49C97806918949097905918849AF
:1072E000497904910DA903910290BDF82A00C0F3D9
:1072F000031080B20190BDF82A0080B2000A80B26B
:1073000000909DF82830874A87490FA800F018F9A7
:10731000050029000FA800F02DF90421012002F03A
:10732000FFFDFFE70DF5C06D0FB030BD30B5ADF519
:10733000806D81B0FEF7D0FB0400002C09D17B49A1
:10734000C0A800F0FDF805002900C0A800F012F95F
:1073500008E0774980A800F0F3F80500290080A82C
:1073600000F008F9FEF7ECF90400002C09D171498E
:1073700040A800F0E5F80500290040A800F0FAF860
:1073800008E06D49684600F0DBF805002900684612
:1073900000F0F0F80DF5806D01B030BD0D0A000071
:1073A00000B5B9B001A8142102F0E2FD06A84421FD
:1073B00002F0DEFD17A8882102F0DAFD5F480068C0
:1073C00050F080505D4908605C48006810F08050C3
:1073D0000090009802F0D0FD042006900120089053
:1073E00006A802F0D3FD002800D0FEE703F044FD1C
:1073F0001020069001200C9000200A90B0200E90E2
:107400000220109001201190062012902820139045
:1074100007201490042015900420169006A802F06E
:10742000B5FD002800D0FEE703F038FD4FF4005012
:1074300017905FF04060329017A803F0DBFA0F203E
:10744000019003200290002003900020049000206F
:107450000590042101A803F0BDF8002800D0FEE744
:1074600039B000BD11B581B0002400F0DDF8040092
:1074700000F0DAF8001B0199884201D230BFF7E72B
:1074800013BDFEE710B50400A4B2202C04D100F017
:107490002BF901200849086010BD000024110108E3
:1074A00018110108000A0108A00D0108C40D010807
:1074B00090A1002078A0002088A100204002002098
:1074C0008CA1002000A000203CA0002080A1002072
:1074D00030110108CC9C002084A100203C1101083F
:1074E00084110108481101085411010860110108B4
:1074F000DC000020002C01408C1101089475FF1F56
:1075000064A100209075FF1F9875FF1F10100108DF
:10751000C41001081C0C0108000D010840E2010024
:10752000280D01086C110108080701087C0C0108EE
:10753000500D0108A80C0108D40C01085810024095
:107540000CB41CB5044604A801900A46009401AB93
:10755000694607487844183003F064FE009A002119
:10756000117000285CBF0098001B16BC5DF80CFB76
:1075700013E1FFFF30B40200002003009BB28B42F6
:107580000ED29BB2D05C244C254D2D68605524480A
:107590000068401C4005400D214C20605B1CEDE75D
:1075A000002030BC704770B504001E4800681C49BC
:1075B000096888422ED01A4800681A49096888422A
:1075C00005D218480068D0F50060060005E01448B0
:1075D000006814490968401A06001248006805004E
:1075E000320092B20C4800EB05010C4804F0FCF9A3
:1075F0000A4804F005FA00280CD10A48006830183F
:107600000849086007480068B0F5006F02D1002003
:107610000449086070BD0000488A0020D09800200E
:10762000A8A10020ACA1002001480068704700BF5D
:10763000A4A1002010B5DFF8940304F0FFF9DFF8EF
:10764000900304F0FBF900200400E4B2052C0CDAEE
:10765000DFF88003E4B28C2101FB04F10144DFF880
:107660006C0304F00CFA641CEFE710BD010011F18B
:1076700008021078042801D0012008E0907891F8E1
:107680008830DB1E984201D0022000E000207047C5
:1076900010B582B00020009002F0EDFBCC4804F061
:1076A000D0F90400E4B2002C14D16946C84804F0B3
:1076B00000FA02F0DBFB00980830FEF7D7FF02F07B
:1076C000DAFB0099C14804F0DAF9C14804F0B9F9CD
:1076D0000400E7E700F008F802F0C8FB13BD80B52E
:1076E000BB4804F0AEF902BD10B582B00020009096
:1076F00002F0C6FB02F099FA00282FD0B34804F03C
:10770000A0F9002827D16946B04804F0D2F98022B8
:10771000009810F10801B04802F092FA0400E4B2B7
:10772000002C11D0009880F888400098FFF79EFF49
:10773000002804D10099A64804F0A1F908E00099B6
:10774000A24804F08FF903E00099A04804F08AF9F8
:1077500002F096FBCEE702F093FBFFE713BDF8B50E
:1077600004000D0016001F00FFB23B00F6B232000D
:107770002900200002F0FBF9F1BDF0B583B0040050
:107780000D0016001F00A805800D50EA8420ADF8FA
:1077900004008DF8066001208DF80000032201A985
:1077A0000DF1010001F0D6FB3300DBB204223900F9
:1077B0006846FFF7D4FFF7BD38B504000D00280078
:1077C00004F03FF9002808D16946280004F086F942
:1077D0000099200004F046F9F1E731BD80B502F0D0
:1077E0004AFB7A4804F08FF902280ADA6946784899
:1077F00004F05FF90099754804F041F9FFF774FF50
:10780000EFE702F033FB01BD2DE9F04F89B0040032
:107810000D0060888005800D218850EA81266F4820
:1078200000680A21B0FBF1F80020009004A804F0E1
:1078300005F9FFF7D3FFA368E0680200D2B26188C0
:107840002088FFF79AFFEDB2002D01D00020B8E0AC
:10785000B8F1000F01D101208046414606A804F08E
:1078600064F906A804F069F9002840F08F80FFF75A
:1078700036FF0028F5D102F0FEFA6946544804F0BC
:1078800018F90098083007003878042862D1781C6D
:10789000039000980B308246009890F88800C01E34
:1078A0008346039800780E2822D00F2804D0102891
:1078B0004FD03E2836D04DE0D146B9F80200310015
:1078C00089B2884262D160680F2804D099F800001C
:1078D00000285BD13EE06069834501DA584600E04C
:1078E0006069606162695146206901F033FB5DE0C7
:1078F000CDF808A00298B0F80100310089B28842A2
:1079000044D11AF1030ABBF1030B6069834501DA24
:10791000584600E06069606162695146206901F083
:1079200019FB43E0CDF804A0019800786168884213
:1079300010D1BBF1010B6069834501DA584600E0C4
:107940006069606162690198411C206901F002FB75
:107950002CE01BE01D4804F074F800280BD01C48F4
:1079600004F06FF8002806D00099184804F087F852
:107970000020009005E0009904A804F080F80020A1
:107980000090FFF7B1FE02F071FA6AE70098002854
:1079900003D000990D4804F065F804A90C48FFF7DE
:1079A0000BFF02F063FA5FF0FF300AE0009907482E
:1079B00004F058F804A90648FFF7FEFE02F056FA54
:1079C000002009B0BDE8F08F000000004CA10020AD
:1079D00054A1002014960020B09E0020C41101087C
:1079E0002DE9F0418AB004000D0016001F00DDF8FB
:1079F000408009220021684601F0B7FA18220021D0
:107A000003A801F0B2FA0420ADF80C000120ADF893
:107A10000E0000200590002006906846079009207F
:107A20000890002103A8FFF7EFFE002801D5FF20F2
:107A300017E09DF80000002802D09DF8000010E03B
:107A40009DF801002070BDF8020028809DF8040018
:107A50003070BDF805003880BDF80700A8F80000B8
:107A600000200AB0BDE8F08130B58FB004000D00F1
:107A70002022002107A801F078FA8DF81C40E4B21A
:107A8000202C01DB1F2201E0E4B2220029000DF1CD
:107A90001D0001F05FFA1822002101A801F065FA2B
:107AA0000820ADF804000920ADF8060007A80390EF
:107AB000202004906846059001200690002101A82E
:107AC000FFF7A2FE002801D5FF2001E09DF800008D
:107AD0000FB030BD10B58AB004000622002101A805
:107AE00001F043FA0622210001A801F033FA18221E
:107AF000002103A801F039FA0820ADF80C00052098
:107B0000ADF80E0001A80590062006906846079083
:107B100001200890002103A8FFF776FE002801D578
:107B2000FF2001E09DF800000AB010BD2DE9F043F0
:107B300089B004000D0016001F00DDF84080DDF85C
:107B400044908DF800408DF801508DF802600722B6
:107B5000002101A801F009FA1822002103A801F070
:107B600004FA3F20ADF80C008A20ADF80E006846FC
:107B700005900320069001A8079007200890002197
:107B800003A8FFF741FE002801D5FF2012E09DF871
:107B90000400002802D09DF804000BE0BDF80500A9
:107BA0003880BDF80700A8F80000BDF80900A9F862
:107BB0000000002009B0BDE8F083F0B589B00400F2
:107BC0000D0016001F008DF80840072200216846AE
:107BD00001F0CBF91822002103A801F0C6F93F20DB
:107BE000ADF80C008A20ADF80E0002A80590012027
:107BF00006906846079007200890002103A8FFF729
:107C000003FE002801D5FF2010E09DF800000028A9
:107C100002D09DF8000009E0BDF801002880BDF801
:107C200003003080BDF805003880002009B0F0BDA9
:107C30002DE9F64F91B0070098461C9C1D9DDDF87C
:107C400078901F9EDDF880A05FF0000BF6B256FA28
:107C500085F00E30292801D3422095E007A85FFA6D
:107C60008BFB00F80B701BF1010BBDF84400ADF865
:107C70004400022211A907A85FFA8BFB584401F0C7
:107C800069F91BF1020BBDF84800ADF8480002226B
:107C900012A907A85FFA8BFB584401F05BF91BF1AE
:107CA000020B07A85FFA8BFB00F80B801BF1010B9E
:107CB00007A85FFA8BFB00F80B401BF1010B07A82C
:107CC0005FFA8BFB00F80B501BF1010BEDB22A00A1
:107CD000494607A85FFA8BFB584401F03BF915EBC6
:107CE0000B0B07A85FFA8BFB00F80B601BF1010B75
:107CF000F6B23200514607A85FFA8BFB584401F0F8
:107D000029F916EB0B0BBDF88400ADF884000222B4
:107D100021A907A85FFA8BFB584401F01BF91BF15E
:107D2000020BBDF88800ADF88800022222A907A83E
:107D30005FFA8BFB584401F00DF91BF1020B18227E
:107D4000002101A801F011F93F20ADF804008320C3
:107D5000ADF8060007A803905FFA8BFBCDF810B0D2
:107D60006846059001200690002101A8FFF74CFD10
:107D7000002801D5FF2007E09DF80000002802D070
:107D80009DF8000000E0002013B0BDE8F08F2DE961
:107D9000F04F8FB006000F00904699469DF860A006
:107DA000199CDDF868B01B9D8DF81C608DF81D7066
:107DB000102241460DF11E0001F0CCF88DF82E90F6
:107DC0008DF82FA08DF830400DF13100C0F800B0D3
:107DD0008DF835501822002101A801F0C6F83F2087
:107DE000ADF804008620ADF8060007A803901A201D
:107DF00004906846059001200690002101A8FFF735
:107E000003FD002801D5FF2007E09DF800000028B1
:107E100002D09DF8000000E000200FB0BDE8F08F18
:107E200070B590B004000D000026E4B2202C01D300
:107E3000422029E007A8F6B28455761CE4B222005D
:107E4000290007A8F6B2304401F084F8A6191822D8
:107E5000002101A801F089F83F20ADF804008E2030
:107E6000ADF8060007A80390F6B2049668460590A0
:107E700001200690002101A8FFF7C6FC002801D5CB
:107E8000FF2001E09DF8000010B070BD10B50400A7
:107E9000002C01D1012014E094F83900002805D10C
:107EA000002084F83800200003F056FE022084F8F9
:107EB0003900211D206800F006FA012084F83900FD
:107EC000002010BD38B504000D002800002806D0A1
:107ED00004280BD0082810D00C2815D01BE02068EF
:107EE000C06850F002002168C86014E02068C068D3
:107EF00050F004002168C8600DE02068C06850F0B0
:107F000008002168C86006E02068C06850F01000D2
:107F10002168C860FFE701222900206800F0CEFB3D
:107F20002068DFF83C11884213D02068DFF8341154
:107F300088420ED02068DFF83011884209D02068CE
:107F4000DFF82811884204D02068DFF82411884225
:107F500001D1012000E00020C0B2002805D0206837
:107F6000406C50F40040216848642068006850F07C
:107F7000010021680860002032BD38B504000D0002
:107F80002800002806D004280BD0082810D00C2880
:107F900015D01BE02068C06830F002002168C8607E
:107FA00014E02068C06830F004002168C8600DE06B
:107FB0002068C06830F008002168C86006E02068CA
:107FC000C06830F010002168C860FFE70022290077
:107FD000206800F073FB2068DFF88410884213D01B
:107FE0002068DFF8801088420ED02068DFF8781013
:107FF000884209D02068DFF87410884204D02068D5
:10800000DFF86C10884201D1012000E00020C0B2EE
:10801000002811D02068006A41F2111108420BD1EA
:108020002068006A40F24441084205D12068406C53
:1080300030F40040216848642068006A41F2111160
:1080400008420BD12068006A40F24441084205D141
:10805000206800684008400021680860002032BDA8
:10806000002C014000340140004001400044014028
:108070000048014010B504002068006980071AD547
:108080002068C068800716D57FF00200216808616B
:10809000012020762068806910F0030F03D02000B3
:1080A00003F074FD05E02000FEF7D9FD200003F089
:1080B0006EFD002020762068006940071AD52068F0
:1080C000C068400716D57FF00400216808610220CF
:1080D00020762068806910F4407F03D0200003F0F0
:1080E00055FD05E02000FEF7BAFD200003F04FFD2E
:1080F000002020762068006900071AD52068C06833
:10810000000716D57FF0080021680861042020765A
:108110002068C06910F0030F03D0200003F036FD83
:1081200005E02000FEF79BFD200003F030FD00205D
:10813000207620680069C0061AD52068C068C0068D
:1081400016D57FF01000216808610820207620688D
:10815000C06910F4407F03D0200003F017FD05E054
:108160002000FEF77CFD200003F011FD00202076AA
:1081700020680069C0070AD52068C068C00706D516
:108180007FF00100216808612000FEF77FFD206874
:10819000006900060AD52068C068000606D57FF091
:1081A000800021680861200003F0F2FC206800696B
:1081B00040060AD52068C068400606D57FF040001A
:1081C00021680861200003F0E4FC20680069800653
:1081D0000AD52068C068800606D57FF02000216897
:1081E0000861200003F0D6FC10BD70B504000D003E
:1081F000160094F83800012801D1022038E001204F
:1082000084F83800022084F83900300000280AD0B1
:1082100004280DD0082810D00C2813D0102816D010
:10822000142819D01DE02900206800F0AFF818E0EC
:108230002900206800F000F913E02900206800F010
:1082400048F90EE02900206800F089F909E02900CA
:10825000206800F0B9F904E02900206800F0E6F990
:10826000FFE7012084F83900002084F8380000205E
:1082700070BD0200002392F83800012801D10220CD
:1082800020E0012082F838000800002806D00428E9
:1082900008D008280AD00C280CD00FE01068406BDA
:1082A00003000BE01068806B030007E01068C06BF0
:1082B000030003E01068006C0300FFE7002082F871
:1082C000380018007047002203681A00DFF8C43332
:1082D000984212D0B0F1804F0FD0DFF8BC339842F3
:1082E0000BD0DFF8B833984207D0DFF8B4339842A8
:1082F00003D0DFF8B033984203D132F070024B68FC
:108300001A43DFF8903398421ED0B0F1804F1BD053
:10831000DFF88433984217D0DFF88033984213D0C7
:10832000DFF87C3398420FD0DFF8783398420BD0D7
:10833000DFF87433984207D0DFF87033984203D0E7
:10834000DFF86C33984203D132F44072CB681A43A1
:1083500002608B68C3620B688362DFF8383398422F
:108360000FD0DFF8403398420BD0DFF83C3398420F
:1083700007D0DFF83833984203D0DFF8343398421F
:1083800001D10B69036301234361704730B40023BB
:1083900000240022056A6D086D000562056A2C0044
:1083A00045682A0085692B00DFF808532B409B089D
:1083B0009B000D682B4334F002048D682C43DFF8DA
:1083C000D452A8420FD0DFF8DC52A8420BD0DFF81D
:1083D000D852A84207D0DFF8D452A84203D0DFF821
:1083E000D052A84205D134F00804CD682C4334F0B3
:1083F0000404DFF8A052A8420FD0DFF8A852A84228
:108400000BD0DFF8A452A84207D0DFF8A052A84250
:1084100003D0DFF89C52A84207D132F4807232F4C4
:1084200000724D692A438D692A43426083614D6819
:108430004563046230BC704730B40023002400223E
:10844000056A35F010050562056A2C0045682A00AA
:1084500085692B00DFF860522B4033F440730D68C0
:1084600053EA052334F020048D6854EA0514DFF83C
:108470002452A84203D0DFF82C52A84206D134F08F
:108480008004CD6854EA051434F04004DFF8045247
:10849000A8420DD0DFF80C52A84209D0DFF80852EC
:1084A000A84205D0814DA84202D0814DA84209D1F1
:1084B00032F4806232F400624D6952EA85028D69BD
:1084C00052EA8502426083614D688563046230BC74
:1084D000704730B4002300240022056A35F480750B
:1084E0000562056A2C0045682A00C5692B00714D9C
:1084F0002B409B089B000D682B4334F400748D685F
:1085000054EA0524634DA84202D0664DA84206D124
:1085100034F40064CD6854EA052434F480645D4D7D
:10852000A8420BD05F4DA84208D05F4DA84205D0AD
:108530005E4DA84202D05E4DA84209D132F480526D
:1085400032F400524D6952EA05128D6952EA051261
:108550004260C3614D68C563046230BC704730B48B
:10856000002300240022056A35F480550562056A5F
:108570002C0045682A00C5692B004F4D2B4033F471
:1085800040730D6853EA052334F400548D6854EAAF
:108590000534404DA8420BD0424DA84208D0424D70
:1085A000A84205D0414DA84202D0414DA84204D175
:1085B00032F480424D6952EA85124260C3614D68CF
:1085C0000564046230BC704730B4002300240022EC
:1085D000056A35F480350562056A2C0045682A0075
:1085E000456D2B00334D2B400D682B4334F4003484
:1085F0008D6854EA0544274DA8420BD0294DA84266
:1086000008D0294DA84205D0284DA84202D0284DB7
:10861000A84204D132F480324D6952EA0522426008
:1086200043654D688565046230BC704730B40023F3
:1086300000240022056A35F480150562056A2C00C5
:1086400045682A00456D2B001B4D2B400D6853EAF1
:10865000052334F400148D6854EA05540D4DA842E6
:108660000BD0104DA84208D00F4DA84205D00F4D99
:10867000A84202D00E4DA84204D132F480224D69A6
:1086800052EA8522426043654D68C565046230BC8C
:1086900070470000002C014000040040000800402A
:1086A000000C004000340140004001400044014003
:1086B000004801408FFFFEFFFF8FFFFE30B4002314
:1086C00001248C402300046A9C430462046A12FA69
:1086D00001F52C43046230BC7047000038B504003B
:1086E0000D000020286064B2002C07D0280000F0A4
:1086F0000EF8012801D1012008E006E0280000F072
:1087000006F8012801D1012000E0002032BD2DE94A
:10871000F04182B00400002501208DF80000484897
:108720004079012801D1012088E000F0DEFC012819
:1087300001D1012082E0B120414908700120404967
:108740004870BA203E49887003203D49C870002017
:108750003B49087100203A49487100203849887126
:1087600001203749C871374835498860364834494F
:10877000C8600020324908613448354908603448EF
:108780003049086000202F4948602D48206020684B
:1087900000F0DAFD2D484078002821D101236A46F7
:1087A0001021206800F05EFE002801D0012045E085
:1087B000206803F0EEFA002801D001203EE04FF4DB
:1087C0007A70FEF74FFE01208DF8000001236A4603
:1087D0001021206800F046FE002801D001202DE085
:1087E0002068C0680500286800280CD114260027DE
:1087F000D4F800803A003100404603F0BFFB00206F
:10880000206001201AE020682968884701280CD1DF
:1088100014260027D4F800803A003100404603F0C7
:10882000ADFB00202060012008E00021206803F05B
:10883000F4FA012801D1012000E00020BDE8F68112
:1088400028A1002074A10020680000205CA1002065
:1088500098A1002070B5040025000026002D01D14C
:1088600001200EE0E8680600B068002801D1012070
:1088700007E02800B1688847012801D1012000E005
:10888000002070BD02001300002B01D1012006E082
:10889000002901D1012002E05879087000207047BA
:1088A000F8B504000D0026000027002E01D101209C
:1088B00013E0F0680700002D01D101200DE0B86938
:1088C000002801D1012008E029003000BA69904752
:1088D000012801D1012000E00020F2BD38B50400DC
:1088E0000D000020286064B2002C07D0280000F0A2
:1088F0000EF8012801D1012008E006E0280000F070
:1089000006F8012801D1012000E0002032BD2DE948
:10891000F041040000252E484079012801D10120B2
:1089200054E000F0D9FB012801D101204EE0BC2029
:1089300027490870002026494870BE2024498870C5
:108940000020234908710020214948710020204956
:10895000887101201E49C8711E481D4988601E4843
:108960001B49C86000201A4908611C481C4908605E
:108970001B481849086000201649486014482060C8
:108980002068C0680500286800280CD1142600273C
:10899000D4F800803A003100404603F0EFFA00209E
:1089A0002060012012E020682968884701280CD146
:1089B00014260027D4F800803A003100404603F026
:1089C000DDFA00202060012000E00020BDE8F081F9
:1089D00014A100206CA10020000000207CA1002038
:1089E00094A1002070B5040025000026002D01D1BF
:1089F00001200EE0E8680600B068002801D10120DF
:108A000007E02800B1688847012801D1012000E073
:108A1000002070BD02001300002B01D1012006E0F0
:108A2000002901D1012002E0587908700020704728
:108A3000F8B504000D0026000027002E01D101200A
:108A400013E0F0680700002D01D101200DE0B869A6
:108A5000002801D1012008E029003000BA699047C0
:108A6000012801D1012000E00020F2BD38B504004A
:108A70000D000020286064B2002C0ED0012C14D010
:108A8000280000F0ABF8012806D1280000F016F805
:108A9000012801D1012010E00EE0280000F00EF8BE
:108AA000012801D1012008E006E0280000F096F836
:108AB000012801D1012000E0002032BD2DE9F04164
:108AC00082B00400002501208DF800007448407930
:108AD000012801D101207FE000F007FB012801D12E
:108AE000012079E0B1206E49087001206C4948707E
:108AF000BA206B49887003206949C8700020684912
:108B0000087100206649487100206549887101207C
:108B10006349C87163486249886063486049C860B6
:108B200000205F49086161486149086060485D490B
:108B3000086000205B49486059482060206800F0C8
:108B400003FC5A480078002820D101236A461021EE
:108B5000206800F087FC002801D001203CE020685C
:108B600003F017F9002801D0012035E06420FEF75A
:108B700079FC01208DF8000001236A46102120684D
:108B800000F070FC002801D0012025E02068C068BA
:108B90000500286800280CD114260027D4F800808E
:108BA0003A003100404603F0E9F90020206001203E
:108BB00012E020682968884701280CD11426002774
:108BC000D4F800803A003100404603F0D7F9002085
:108BD0002060012000E00020BDE8F6812DE9F04191
:108BE000040000252E48407E012801D1012054E0D8
:108BF00000F072FA012801D101204EE0BC20284982
:108C00000875002026494875BE2025498875012031
:108C1000234908760020224948760020204988769A
:108C200001201F49C87623481D49C86122481C49B4
:108C3000086200201A4948622048214908602048FB
:108C40001849886000201749C8601E4820602068C5
:108C5000C0680500286800280CD114260027D4F825
:108C600000803A003100404603F088F9002020607F
:108C7000012012E020682968884701280CD11426B9
:108C80000027D4F800803A003100404603F076F91E
:108C900000202060012000E00020BDE8F0810000FD
:108CA000ACA000203CA100209C0000205CA1002082
:108CB0009CA1002044A10020340000207CA10020C1
:108CC000A0A10020C0A0002070B50400250000264F
:108CD000002D01D101200EE0E8680600B0680028F0
:108CE00001D1012007E02800B1688847012801D19F
:108CF000012000E0002070BD02001300002B01D114
:108D0000012006E0002901D1012002E05879087015
:108D100000207047F8B504000D0026000027002E43
:108D200001D1012013E0F0680700002D01D10120DE
:108D30000DE0B869002801D1012008E029003000C9
:108D4000BA699047012801D1012000E00020F2BD5E
:108D50002DE9F041C2B004006C480470002000F01E
:108D600021F930200190302000903123684A694970
:108D700002A8FEF7E5FB0500290002A8FEF7FAFBB2
:108D800034260027DFF884813A003100404603F0A2
:108D9000F5F800F00BF800205C4981F82C00002069
:108DA0005A4981F82D0042B0BDE8F08110B5ADF50B
:108DB000006D59495FF0FF30FFF790FD00280AD1A0
:108DC00056490DF5E060FEF7BBFB040021000DF5F0
:108DD000E060FEF7CFFB4D484C49896800EB81000D
:108DE00010F10C015FF0FF30FFF740FE00280FD1BB
:108DF0004B490DF5C060FEF7A3FB040021000DF503
:108E0000C060FEF7B7FB41488068401C3F4988605E
:108E10003E483E49896800EB810010F10C010020BA
:108E2000FFF724FE00280FD13E490DF5A060FEF7A4
:108E300087FB040021000DF5A060FEF79BFB334883
:108E40008068401C3149886037495FF0FF30FFF788
:108E500045FC00280AD135490DF58060FEF770FB0E
:108E6000040021000DF58060FEF784FB274880692F
:108E700000280ED025488069FFF7B4FD002808D1EE
:108E80002B49C0A8FEF75CFB04002100C0A8FEF738
:108E900071FB1E48C06800280ED01C48C068FFF750
:108EA00013FF002808D1234980A8FEF749FB0400DE
:108EB000210080A8FEF75EFB1448006900280ED050
:108EC00012480069FFF700FF002808D11A4940A89E
:108ED000FEF736FB0400210040A8FEF74BFB0B48D1
:108EE000406900280ED009484069FFF7B3FC00280C
:108EF00008D112496846FEF723FB040021006846AA
:108F0000FEF738FB0DF5006D10BD000078A00020C5
:108F1000BC110108B00B010890A0002070100108DE
:108F20006C0F0108880F01088CA000208810010830
:108F3000A40F0108D80E0108F80E0108C00F01089F
:108F400080B5002000F07CF801BD80B5002000F065
:108F50009DF801BD70B504000D0016003200290017
:108F60002000FDF7A1FD200070BD70B504000D00CC
:108F700016002A003100200003F000F8200070BD28
:108F800080B5032003F0A0F80F2003F0DDF800F017
:108F900007F8002002BD01487047000000010501EC
:108FA0007047000010B586B00400DFF8D0090068F3
:108FB00050F08050DFF8C4190860DFF8C00900687D
:108FC00010F080500090009803F0D8F8E4B2002C24
:108FD0000ED1DFF8AC09006850F04000DFF8A019AE
:108FE0000860DFF89C09006810F0400000900098CD
:108FF000E4B2012C0ED1DFF88809006850F00100BE
:10900000DFF87C190860DFF87809006810F00100CB
:1090100000900098DFF86C09E4B250F82400019049
:1090200001200290002003900220049001A9DFF8A3
:109030005809E4B250F8240003F0AEF806B010BDB1
:1090400010B50400E4B2002C0ED10122DFF834097F
:10905000E4B250F8241089B2DFF82C09E4B250F8D9
:10906000240003F09EF910E0E4B2012C0DD100229F
:10907000DFF81009E4B250F8241089B2DFF80809CB
:10908000E4B250F8240003F08CF910BD10B50400D0
:10909000E4B2002C0ED10022DFF8E808E4B250F868
:1090A000241089B2DFF8E008E4B250F8240003F09D
:1090B00078F910E0E4B2012C0DD10122DFF8C408E8
:1090C000E4B250F8241089B2DFF8BC08E4B250F8DA
:1090D000240003F066F910BD80B500F070FB002895
:1090E00001D0012000E0002002BD00B587B0DFF80C
:1090F0009C0803F071FB002840F08D80DFF87C08AD
:10910000006850F48040DFF874180860DFF86C08DD
:10911000006810F4804000900098DFF86408006850
:1091200050F00200DFF858180860DFF854080068B3
:1091300010F00200009000984FF4004001900220CF
:10914000029001200390032004900520059001A9BE
:10915000DFF83C0803F020F84FF4005001900120A4
:10916000039001A9DFF8280803F016F8DFF82408B7
:10917000DFF8181808604FF48270DFF810184860A4
:109180004FF40040DFF8041888604FF4E060DFF827
:10919000FC17C8600220DFF8F41708610120DFF82F
:1091A000EC1748614FF40070DFF8E0178861182071
:1091B000DFF8D817C8610020DFF8D0170862002058
:1091C000DFF8C81748620020DFF8C0178862072060
:1091D000DFF8B817C8620020DFF8B0170863002076
:1091E000DFF8A8174863DFF8A40703F00DF9DFF8EC
:1091F0009C070068006850F48040DFF89017096809
:109200000860DFF888070068006850F04000DFF869
:109210007C1709680860002007B000BD00B587B062
:1092200001224FF48051DFF8680703F0BAF80122F9
:109230001021DFF8640703F0B4F801220221DFF8FF
:10924000500703F0AEF8012208215FF0904003F0D0
:10925000A8F8032004900020039001200290DFF87A
:109260002007006850F00200DFF814170860DFF8EC
:109270001007006810F00200009000984FF4805032
:10928000019001A9DFF8080702F086FF01224FF4E0
:109290008051DFF8FC0603F084F8DFF8E40600688C
:1092A00050F00400DFF8D8160860DFF8D406006834
:1092B00010F00400009000981020019001A9DFF840
:1092C000D80602F069FF01221021DFF8CC0603F076
:1092D00068F8DFF8AC06006850F00200DFF8A0166E
:1092E0000860DFF89C06006810F00200009000980B
:1092F0000220019001A9DFF8980602F04DFF01223B
:109300000221DFF88C0603F04CF8DFF874060068E1
:1093100050F00100DFF868160860DFF864060068A6
:1093200010F00100009000980820019001A95FF062
:10933000904002F031FF012208215FF0904003F0DD
:1093400030F8002007B000BD30B587B0040025001C
:10935000032004900020039001200290E878002868
:1093600005D002283FD021D3032859D075E0DFF87B
:109370001006006850F00200DFF804160860DFF8FD
:109380000006006810F00200009000984FF4805032
:10939000019001224FF48051DFF8F40503F001F849
:1093A00001A9DFF8EC0502F0F7FE58E0DFF8D00580
:1093B000006850F00400DFF8C8150860DFF8C00549
:1093C000006810F004000090009810200190012225
:1093D0001021DFF8C40502F0E4FF01A9DFF8B805A9
:1093E00002F0DAFE3BE0DFF89805006850F002007A
:1093F000DFF88C150860DFF88805006810F00200BF
:10940000009000980220019001220221DFF88005DF
:1094100002F0C7FF01A9DFF8780502F0BDFE1EE0EB
:10942000DFF85C05006850F00100DFF854150860B3
:10943000DFF84C05006810F001000090009808204B
:109440000190012208215FF0904002F0AAFF01A9DB
:109450005FF0904002F0A0FE01E0032000E0002059
:1094600007B030BD2DE9F0410400884615001E000C
:1094700027007878002810D1B6B2022E04DB3878A5
:10948000BC2801D158F0800833009BB22A00414625
:10949000C9B2200000F01CF818E07878012814D137
:1094A000B6B2022E08DB3878332802D0402803D029
:1094B00002E058F04008FFE733009BB22A00414623
:1094C000C9B2200000F056F800E00120BDE8F081AC
:1094D000F8B504000D0016001F003B009BB23200DF
:1094E0002900C9B2A07800F093F9F2BD2DE9F0414E
:1094F0000400884615001E0027007878002810D147
:10950000B6B2022E04DB3878BC2801D158F08008AE
:1095100033009BB22A004146C9B2200000F01CF87B
:1095200018E07878012814D1B6B2022E08DB38781A
:10953000332802D0402803D002E058F04008FFE76B
:1095400033009BB22A004146C9B2200000F03BF82C
:1095500000E00120BDE8F081F8B504000D00160020
:109560001F003B009BB232002900C9B2A07800F076
:109570007BF9F2BD2DE9F04104000D0016001F003B
:10958000200000F06CF82900C9B2DFF8000400F0F8
:1095900006F9002080464046C0B2390080B289B248
:1095A00088420AD25FFA88F816F80810DFF8DC0360
:1095B00000F0F5F818F10108EDE7200000F079F867
:1095C0000020BDE8F081F8B504000D0016001F0072
:1095D000200000F044F855F08001C9B2DFF8AC0378
:1095E00000F0DDF8DFF8A4030068006830F0400008
:1095F000DFF8981309680860DFF8900300680068D6
:1096000030F48040DFF8841309680860BFB2022F8D
:1096100007D33A0092B23100DFF8700300F092F8FD
:1096200004E03100DFF8640300F06EF8200000F081
:1096300040F8DFF858030068006850F48040DFF815
:109640004C1309680860DFF844030068006850F0B4
:109650004000DFF83813096808600020F2BD38B513
:1096600004002500E878002805D0022812D00AD38B
:10967000032816D01BE000224FF48051DFF81003BE
:1096800002F08FFE13E000221021DFF80C0302F03D
:1096900088FE0CE000220221DFF8F40202F081FED5
:1096A00005E0002208215FF0904002F07AFE0020E1
:1096B00032BD38B504002500E878002805D002281E
:1096C00012D00AD3032816D01BE001224FF4805198
:1096D000DFF8BC0202F065FE13E001221021DFF882
:1096E000B80202F05EFE0CE001220221DFF8A002C7
:1096F00002F057FE05E0012208215FF0904002F0E1
:1097000050FE002032BD000072B60268126852F0AE
:10971000400203681A60BFF34F8FBFF34F8F026898
:10972000126832F0400203681A6062B602689268FA
:10973000D207FBD50268127B0A7002689268120693
:10974000FBD4704710B472B603681B6853F0400333
:109750000468236092B2022A09D303689B68DB077E
:10976000F8D503681B7B0B70491C521EF2E7BFF350
:109770004F8FBFF34F8F03681B6833F040030468BB
:10978000236062B603689B68DB07FBD503681B7B1D
:109790000B7003689B681B06FBD410BC7047026803
:1097A00092689207FBD5026811730268926812F4FE
:1097B000C05FFAD1026892681206FBD4704780B588
:1097C000DFF8D80103F036FB002817D1DFF8D0010D
:1097D000DFF8C81148603320DFF8C011886001202D
:1097E000DFF8B811C860DFF8BC01DFF8B01108601D
:1097F00000F06FF8DFF8A40103F0BAF8DFF89C017D
:1098000003F018FB202801D1002000E0012002BD58
:109810002DE9F04184B004000D0016001F005FF038
:109820000008DFF8840100680290380080B20190DF
:1098300000960123EDB22A0092B2E4B2210089B26F
:10984000DFF8580103F018F980465FFA88F8B8F19C
:10985000000F05D02000C0B200F032F8012000E077
:10986000002004B0BDE8F0812DE9F04184B004008F
:109870000D0016001F005FF00008DFF82C010068E3
:109880000290380080B2019000960123EDB22A00C8
:1098900092B2E4B2210089B2DFF8000103F0DCF9F2
:1098A00080465FFA88F8B8F1000F05D02000C0B2FA
:1098B00000F006F8012000E0002004B0BDE8F081CF
:1098C00010B50400DFF8D40003F0B5F8FFF777FF18
:1098D00010BD00B5A9B04FF4807006905FF48030E1
:1098E0001C9006A801F086F82548006850F0040096
:1098F000234908602248006810F004000090009896
:109900000320019012200290022004900120039075
:109910000420059001A9DFF8800002F03DFC174803
:10992000006850F40000154908601448006810F4FD
:10993000000000900098DFF87400006850F4000008
:10994000DFF868100860DFF86400006830F4000099
:10995000DFF85810086000220021482002F0BAFB0E
:10996000482002F0CAFB00220021492002F0B2FB8D
:10997000492002F0C2FB29B000BD0000581002408F
:109980004C1002409C110108D40000204C9E002085
:10999000000400480038004000080048B49F002040
:1099A000EC9C9010005C0040D00000203810024079
:1099B00010B586B004002068DFF8D014884240F06B
:1099C000D480DFF8CC04006850F08000DFF8C014C9
:1099D0000860DFF8BC04006810F080000090009878
:1099E000DFF8AC04006850F00100DFF8A414086050
:1099F000DFF89C04006810F0010000900098DFF888
:109A00009004006850F00100DFF884140860DFF86B
:109A10008004006810F0010000900098DFF87004E6
:109A2000006850F00100DFF868140860DFF8600497
:109A3000006810F0010000900098DFF854040068FE
:109A400050F00200DFF848140860DFF844040068B2
:109A500010F0020000900098DFF83404006850F025
:109A60000400DFF82C140860DFF82404006810F00C
:109A7000040000900098DFF81C04006850F4805047
:109A8000DFF810140860DFF80C04006810F4805050
:109A90000090009801200190012002900120039085
:109AA000002004900020059001A9DFF8EC0302F0EB
:109AB00073FB00220121DFF8E00302F072FC20209A
:109AC00001900220029002200390032004900520C0
:109AD000059001A95FF0904002F05EFB40200190EC
