:020000040800F2
:10400000802C002095750108C5740108C77401084B
:10401000B1750108B5750108B97501080000000007
:10402000000000000000000000000000BD75010855
:10403000C974010800000000C1750108CB740108B3
:10404000C5750108C9750108CD750108D17501084C
:10405000D5750108D9750108DD750108E1750108FC
:10406000E5740108E5750108E9750108ED750108B9
:10407000F1750108F5750108F9750108FD7501086C
:104080000176010805760108097601080D76010818
:104090001176010815760108197601081D760108C8
:1040A0002176010825760108297601082D76010878
:1040B00031760108D5740108357601083976010892
:1040C0003D760108417601084576010849760108E8
:1040D0004D76010851760108557601085976010898
:1040E0005D76010861760108657601086976010848
:1040F0006D760108717601087576010879760108F8
:104100007D760108817601088576010889760108A7
:104110008D76010891760108957601089976010857
:104120009D760108A1760108A5760108A976010807
:10413000AD760108B1760108B5760108B9760108B7
:10414000BD760108C1760108C5760108CF74010863
:10415000C9760108CD760108D1760108D576010827
:10416000D9760108DD760108E1760108E5760108D7
:10417000E9760108ED760108F176010800000000FB
:10418000F5760108F976010870B4DFF83C29156866
:1041900000240023CDB1D0F80062B54202BF5568BB
:1041A000D0F80862B54202BF1589B0F80662B54280
:1041B0000CD139B903EB430002EB80004089B0F524
:1041C000807F19D170BC102070470124D56801236D
:1041D00095B1D0F80062B54202BF1569D0F8086207
:1041E000B54202BF958AB0F806028542E1D01CB9FB
:1041F000022918BF122000D1002070BC7047F0B413
:10420000DFF8C448D0F80032256800229D4202BF82
:104210006668D0F80872BE4202BF2689B0F80672FE
:10422000BE4220D0E66801229E4202BF2769D0F834
:1042300008C2674502BFA78AB0F806C2674512D018
:104240000022002D1CBF0122002E13D102EB4205DB
:1042500004EB85052B60D0F808326B60B0F80602DD
:1042600028810020688102EB420004EB8000438932
:1042700031B113B1F0BC002070474FF4807100E001
:10428000591C4181501CF0BC7047401E022817D2B7
:1042900000EB40018800DFF830180A185389B3F5A5
:1042A000807F18BF5FEA030C02D10023538103E033
:1042B0005B1E53819BB20BB900220A50002070474D
:1042C00002207047F0B5054681B095F8040200243D
:1042D00040B3D5F82C6295F80102012332462946F5
:1042E00001F049FF18B10124204601B0F0BD85F866
:1042F0000402D5F82002D5F81812301A884211D2DB
:1043000095F8030202280DD3B0F10107D5F8180281
:10431000861995F8010201233246294601F02BFF48
:104320007F1EF3D1204601B0F0BD70B504460D46A6
:10433000D4F82C020026854211D02046FFF7C2FF98
:1043400006000CD194F8010201232A46214601F00F
:1043500005FF10B14FF0FF350126C4F82C5230464E
:1043600070BD30B581B00446FFF7ACFF050062D1E7
:1043700094F80002032804BF94F80502012852D1E2
:104380004FF40071204601F013FF552084F8FE0120
:104390000123AA2084F8FF0121465220207060707A
:1043A0006120A0704120E070722084F8E40184F85C
:1043B000E501412084F8E601612084F8E701D4F8A2
:1043C000100284F8E801D4F810020004000E84F80A
:1043D000E901D4F81002000C84F8EA01D4F81002C4
:1043E000000E84F8EB01D4F80C0284F8EC01D4F848
:1043F0000C020004000E84F8ED01D4F80C02000C4D
:1044000084F8EE01D4F80C02000E84F8EF01D4F821
:104410001C02421CC4F82C2294F8010201F0ABFEED
:10442000002084F80502002294F80102002101F026
:10443000AFFE00B10125284601B030BD2DE9F041A5
:104440000D46022D804662D3D8F8140285425ED212
:1044500098F8000201284FF0FF3604D057D3032804
:104460003AD026D353E0D8F8200205EB550400EBF0
:1044700054214046FFF759FF002849D1C4F30800F2
:10448000641C18F80070D8F8200200EB5421404654
:10449000FFF74BFFE0BBC4F3080018F8000047EA41
:1044A0000027E80754BFC7F30B063E093046BDE8B6
:1044B000F081D8F8200200EB15214046FFF735FFC8
:1044C00030BB6800C0F3080040444178007840EAFF
:1044D00001263046BDE8F081D8F8200200EBD51166
:1044E0004046FFF722FF98B9A800C0F308004044F7
:1044F0008278C178120442EA01614278007841EA88
:104500000221084320F070463046BDE8F0810126C4
:104510003046BDE8F081F0B50E46022E81B004466B
:104520001546C0F07F80D4F8140286427AD294F8FF
:104530000002012804D075D3032854D03DD371E084
:10454000D4F8200206EB560700EB57212046FFF770
:10455000ECFE010067D1C7F3080021187F1C16F09C
:1045600001061DBF087800F00F0040EA051028463C
:104570000870012084F80402D4F8200200EB5721CF
:104580002046FFF7D2FE01004DD1C7F308012144B8
:1045900036B12A090A70012184F8041201B0F0BD75
:1045A0000A782B0A02F0F00203F00F031A430A7094
:1045B000012184F8041201B0F0BDD4F8200200EB10
:1045C00016212046FFF7B1FE01002CD17100C1F386
:1045D000080121440D702D042A0E4A70012184F82F
:1045E000041201B0F0BDD4F8200200EBD611204631
:1045F000FFF79BFE010016D1B100C1F30801214471
:10460000CA78120602F0704215432A04120E4A704C
:104610000D702A0C8A702A0ECA70012184F80412C7
:1046200001B0F0BD022001B0F0BD2DE9F0410F4610
:10463000022F80460DD3D8F81402874209D20026F3
:1046400039464046FFF7FAFE050000F09380012D41
:1046500003D102263046BDE8F08115F1010F03D1E8
:1046600001263046BDE8F081022F6CD3D8F8140241
:10467000874268D298F80002012833D063D3032818
:1046800001D01BD35FE0D8F8200200EBD7114046E1
:10469000FFF74BFE060057D1B800C0F308004044B6
:1046A0000022C1780270090601F07041090E4270C3
:1046B0008270C170012088F8040245E0D8F8200219
:1046C00000EB17214046FFF730FE06003CD1780092
:1046D000C0F308004044002101704170012088F8B7
:1046E000040231E0D8F8200207EB570400EB542114
:1046F0004046FFF71AFE060026D1C4F30800641CEA
:10470000404417F001071ABF017801F00F010021A2
:104710000170012088F80402D8F8200200EB54212F
:104720004046FFF702FE06000ED1C4F308004044E5
:10473000002F12BF0021017801F0F001017001206B
:1047400088F8040200E00226300013D1D8F81002E5
:1047500010F1010F08D0401CC8F8100298F80502AB
:1047600040F0010088F805022F46D8F8140287426D
:10477000FFF466AF3046BDE8F08100002DE9F0415E
:104780000D00044608D1D4F80C721FB1D4F81402FD
:10479000874212D3012710E0FFF750FE022838BFEE
:1047A0000120C0F0B68010F1010F00F0B280D4F803
:1047B00014128842C0F0AD802F463E46D4F8140251
:1047C000761C864203D30226022FC0F09980314620
:1047D0002046FFF733FE002840F08A80022E6DD37A
:1047E000D4F81402864269D294F80002012833D02A
:1047F00064D3032801D01BD360E0D4F8200200EB7F
:10480000D6112046FFF791FD010058D1B100C1F348
:1048100008012144FF23CA780B70120662F070422F
:10482000120E4B708B70CA70012184F8041246E09E
:10483000D4F8200200EB16212046FFF776FD010098
:104840003DD17100C1F308012144FF230B704B706F
:10485000012184F8041232E0D4F8200206EB560756
:1048600000EB57212046FFF760FD010027D1C7F379
:10487000080021187F1C16F001081ABF087840F0C4
:10488000F000FF200870012084F80402D4F8200210
:1048900000EB57212046FFF748FD01000FD1C7F379
:1048A00008012144B8F1000F12BFFF220A7842F03C
:1048B0000F020A70012184F8041200E0022028B9D6
:1048C0002DB1324629462046FFF725FED8B9D4F847
:1048D0001002C4F80C6210F1010F19D0401EC4F888
:1048E000100294F8050240F0010084F805020FE080
:1048F00010F1010F18BF01280BD0BE427FF45EAF4C
:104900000020BDE8F08101280CBF4FF0FF360126E2
:104910003046BDE8F08170B504460D46D4F8080273
:10492000A4F80652012840D0D4F80012D1F814227D
:1049300090423AD228B991F80022032A02D1D1F844
:10494000240230B9B1F8082295422ED2D1F82412AF
:1049500028E091F802120E0100E0AD1BD4F800220D
:10496000B54212D301461046FFF768FD10F1010F62
:1049700001D1012070BD022817D3D4F80012D1F85C
:1049800014128842E9D3022070BDD2F81432811E7D
:104990009B1E99422FBF002192F80232D2F82822A2
:1049A00003FB0121C4F80C0209B9022070BD01EB20
:1049B0001510C4F810026901D4F8000201F4F07176
:1049C0000844C4F81402002070BD000090F80002F2
:1049D000CA7E8B7E032843EA022205D1487D097DE9
:1049E00041EA002042EA00421046704781760A04FC
:1049F000090C0175120E090AC27641757047000054
:104A000070B482B0044611F8015B04F8015B05251F
:104A100011F8016B04F8016B6D1E11F8016B04F8BD
:104A2000016BF5D1062B12D3DFF86417148874B12B
:104A300032F8024B5FF0100504F0010606EB430369
:104A40006408DE0348BF4B406D1EF5D1EEE7072139
:104A50000DF1070203F00F043034E4B23A2CA8BF82
:104A6000E41D491E1B0902F80149F3D17E230DF80C
:104A700001300446002301E05B1C241D8B4214D24C
:104A80002578202D11D05B1C8B420ED26578202D0D
:104A90000BD05B1C8B4208D2A578202D05D05B1C67
:104AA0008B4202D2E578202DE6D11C46631C0829F2
:104AB0003ABF1DF80150491C20250555082BF4D399
:104AC00002B070BC704700009C68002010F8011B09
:104AD00005220B46C90101EB530110F8013B59189F
:104AE000C9B20B46C90101EB530110F8013B59183B
:104AF000521EC9B2EDD10846704700002DE9F04FB3
:104B000081B081460021FFF706FF010040F0B08030
:104B1000FF200090FF264FF6FF70A9F82402D8E08E
:104B20000F2A4FD1D9F820A2BAF1000F00F08680E9
:104B3000480608D5687B009001F0BF01B9F806026D
:104B4000A9F824020E46F0B2814202BF0098697BA8
:104B5000884221D128780FF23C6B20F04000401EA3
:104B60000D2101FB00F800245FF001079BF8000015
:104B70002918285C497840EA01207FB101F04FFBF9
:104B8000B8F1FF0F074607D23AF8180001F047FBCB
:104B9000874208F1010805D0FF264FE04FF6FF716C
:104BA0008842F9D1641C0D2C0BF1010BDED328785F
:104BB000400605D5002F1CBF3AF818000028EBD19D
:104BC000761E3BE0F6B2C6B92946052211F8013B34
:104BD0001E46DB0103EB560311F8016BF318DBB241
:104BE0001E46DB0103EB560311F8016BF318521E4E
:104BF000DBB2EDD1009999423AD0D9F81812CA7AAD
:104C0000D20716D415F8013B11F8016B0A229B1B41
:104C10000ED11646721E5EB12B780E789B1B07D103
:104C20006B784E78521E9B1B891CAD1C002BF0D05C
:104C3000F3B14FF6FF70FF26A9F82402B9F8060277
:104C4000451C28041CBFD9F8100200280FD015F00D
:104C50000F0F34D1401CC9F81002D9F80C12D9F842
:104C60000002002907D1B0F80802854227D30420AA
:104C700001B0BDE8F08F90F80222521E12EA151F13
:104C80001DD1FFF7DBFB022854D310F1010F4DD0EB
:104C9000D9F80012D1F814229042E8D2C9F80C02D7
:104CA000801ED1F81422921E90422FBF002091F84E
:104CB0000222D1F8281202FB0010C9F81002690183
:104CC000D9F80002A9F8065201F4F0710844C9F8B5
:104CD00014020025D9F80042D9F810A2D4F82C0209
:104CE000824511D02046FFF7EDFA05000CD194F86B
:104CF000010201235246214601F030FA10B14FF073
:104D0000FF3A0125C4F82CA22800B1D1D9F81452D9
:104D100029780029ABD0EA7AE52902F03F0288D051
:104D200013077FF5FDAE0F2A83D1FBE6012001B00A
:104D3000BDE8F08F022001B0BDE8F08F2DE9F04F03
:104D4000804685B0D8F81862D8F8209201A831467C
:104D50005FF0030211F8013B00F8013B521E11F80D
:104D6000013B00F8013B11F8013B00F8013B11F851
:104D7000013B00F8013BEDD101ADE87AC0071ED53B
:104D80000020F072C8F8200201273B464A4601A9DC
:104D90003046FFF735FE4046FFF7B0FE040002D173
:104DA0007F1C642FF1D3642F08BF072000F0EC8133
:104DB000042C40F0E881E87AF072C8F82092E87A92
:104DC00080071DD5B9F80000002788B17F1C39F88D
:104DD000170068B17F1C39F8170048B17F1C39F8FB
:104DE000170000281EBF7F1C39F817000028EDD1DE
:104DF00007F11900DFF8B02BA0FB0221CE0800E07C
:104E0000012600214046FFF786FD040040F0C780E0
:104E10004FF0000928E000BF09F10109B14500F099
:104E2000C080B8F80602441C20041CBFD8F8100249
:104E300000285AD014F00F0F0CD1401CC8F81002F3
:104E4000D8F80C12D8F80002002934D1B0F80802C2
:104E500084424AD2D8F80002A8F80642610101F45F
:104E6000F0710844C8F814020024D8F80072D8F889
:104E70001052D7F82C02854211D03846FFF722FA9B
:104E800004000CD197F8010201232A46394601F0AB
:104E900065F910B14FF0FF350124C7F82C522000FE
:104EA0007DD1D8F814020078E52818BF0028B3D0C7
:104EB0004FF00009B5E790F80222521E12EA141FC3
:104EC000C8D1FFF7BBFA0546022D66D315F1010FD5
:104ED00061D0D8F80002D0F814128D4247D3D8F828
:104EE0000C12FFF74BFC050001D1072459E0012DFE
:104EF00053D015F1010F4ED0D8F80002FFF7E2F9B8
:104F0000002848D1D8F800024FF4007101F050F9A0
:104F1000D8F800024FF405730344AA1E1968891ECD
:104F20008A422FBF002190F802125B6901FB023117
:104F3000C0F82C1200270FE0012180F80412D8F8E5
:104F40000002FFF7BFF930BBD8F80002D0F82C12EE
:104F5000491CC0F82C127F1CD8F8000290F80212ED
:104F60008F42E9D3D0F82C12C91BC0F82C12C8F814
:104F70000C52A91ED8F80002D0F81422921E9142B9
:104F80002FBF002090F80222D0F8280202FB010077
:104F9000C8F810025EE7012403E0022401E0042CBB
:104FA000A3D0200040F0C080761E00F0BF80B8F88B
:104FB0000602811B4046FFF7AEFC040040F0B480BF
:104FC000D8F818020FF2CC15FFF780FD8DF800001D
:104FD0004FF6FF795FF00D07D8F800B2D8F810A2AD
:104FE000DBF82C020024824511D05846FFF76AF9FD
:104FF00004000CD19BF8010201235246594601F0EE
:10500000ADF810B14FF0FF3A0124CBF82CA22000EC
:1050100040F08A80D8F81412D8F820229DF8003089
:105020004B73F0B20F23CB720D2400230B738B76DE
:10503000CB76431E07FB03FE2B4601E0CC4503D095
:1050400032F81EC00EF1010E93F800A0BCF1000F63
:1050500001F80AC04FEA2C2A93F800B008BFCC46EA
:105060008B445B1C641E8BF801A0E7D1CC451ABFB2
:1050700032F81E20002A40F0400008700120D8F8C5
:10508000001281F80402B8F80602441C20041CBF78
:10509000D8F8100200280FD014F00F0F32D1401CA6
:1050A000C8F81002D8F80C12D8F80002002905D16F
:1050B000B0F80802844225D3042464E090F8022268
:1050C000521E12EA141F1DD1FFF7B8F9022829D386
:1050D00010F1010F24D0D8F80012D1F81422904218
:1050E000EAD2C8F80C02801ED1F81422921E904217
:1050F0002FBF002091F80222D1F8281202FB0010E5
:10510000C8F810026101D8F80002A8F8064201F4BC
:10511000F0710844761EC8F814027FF45DAF05E014
:10512000012430E002242EE020002CD1D8F8101207
:10513000D8F80002FFF7F9F8040024D1D8F81402D7
:10514000202101F035F8D8F81812D8F8140211F817
:10515000012B00F8012B052211F8013B00F8013B5F
:10516000521E11F8013B00F8013BF5D1D8F81802A6
:10517000D8F81412C07A00F0180008730120D8F88B
:10518000001281F80402204605B0BDE8F08F00004F
:105190002110010001030507090E10121416181C36
:1051A0001E0000002DE9F04F0C4681B025688046B6
:1051B00000E06D1C28782F2818BF5C28F9D0D8F89B
:1051C000209200260027AA46CB461CE0521C1378EA
:1051D00093B183421CBF12F8013F002B0CD08342D5
:1051E0001CBF12F8013F002B06D083421EBF12F8ED
:1051F000013F002B8342E9D1117851BB2BF8020B00
:10520000761C0AF1010A9AF800007F1C202803DBB3
:105210002F2818BF5C2806D1E91921602028ACBFCF
:105220000024042413E0FF2E13D2012100F0C8FF54
:1052300078B18028E2DA0FF2CC12C8E709EB460019
:1052400030F8020C202818BF2E2806D1761E002E1A
:10525000F4D1062001B0BDE8F08F002029F8160037
:105260002022D8F818020B2101F062FA00274846E4
:1052700001E07F1C801C0188202918BF2E293FF4E3
:10528000F8AF0FB144F0030409EB460030F8020C0C
:105290002E2819D0761E1EBF09EB460030F8020CEE
:1052A0002E2811D0761E1EBF09EB460030F8020CE6
:1052B0002E2809D0761E1EBF09EB460030F8020CDE
:1052C0002E2801D0761EDFD10025AA464FF0080B0C
:1052D00002E000BF44F0030439F817007F1C78B1E6
:1052E0002028F7D02E2801D1B742F3D15D4501D255
:1052F000B74240D1BBF10B0F2FD144F00304E4B20D
:10530000D8F818020178E52904BF05210170BBF126
:10531000080F08BF4FEA8A0A0AF00C000C2819BFD0
:105320000AF00300032844F00204E4B2A0070DD4FD
:105330000AF00300012804BF44F01004E4B20AF0AC
:105340000C00042804BF44F00804E4B2D8F81802A2
:10535000C472002001B0BDE8F08FB7421CBF44F01A
:105360000304E4B2BE42CBD3374608254FF00B0B03
:105370004FEA8A0AB0E780280CDB002100F020FF0A
:1053800020B10FF28C01084410F8800C44F00204A4
:10539000E4B2D0B10FF2F80200E0521C137893B1DE
:1053A00083421CBF12F8013F002B0CD083421CBF6C
:1053B00012F8013F002B06D083421EBF12F8013FB6
:1053C000002B8342E9D1117841B1D8F818125F203F
:1053D000485544F00304E4B26D1C7DE7A0F141019F
:1053E0001A2938BF4AF0020A06D3A0F161011A292E
:1053F0003CBF4AF0010A2038D8F8181248556D1CF5
:105400006AE70000222A3A3C3E3F7C7F0000000011
:10541000808182838485868788898A8B8C8D8E8F14
:1054200090919293949596979899AD9B8C9DAE9FF1
:10543000A021A2A3A4A5A6A7A8A9AAABACADAEAF74
:10544000B0B1B2B3B4B5B6B7B8B9BABBBCBDBEBFE4
:10545000C0C1C2C3C4C5C6C7C8C9CACBCCCDCECFD4
:10546000D0D1D2D3D4D5D6D7D8D9DADBDCDDDEDFC4
:10547000C0C1C2C3C4C5C6C7C8C9CACBCCCDCECFB4
:10548000D0D1D2D3D4D5D6F7D8D9DADBDCDDDE9FC4
:105490002B2C3B3D5B5D000012B581B004460878C3
:1054A0002F2812BF5C28481C01900020C4F8080275
:1054B0000198007820281AD200212046FFF72BFA05
:1054C0000021C4F8141202B010BDC87E8A7E42EAE0
:1054D0000020D4F8002292F80022032A05D14A7D48
:1054E000097D41EA022140EA0140C4F8080201A90D
:1054F0002046FFF757FE010014D12046FFF7FEFAC1
:10550000D4F81812C97A020004D004280AD1490735
:1055100008D406E0490705D4D4F81412C87AC006A6
:10552000D3D4052002B010BD02684FF0FF31CAB3DA
:10553000134600E05B1C93F800C0BCF1200F1AD3A7
:10554000BCF13A0F17D013F801CFBCF1200F12D3E2
:10555000BCF13A0F0FD013F801CFBCF1200F0AD3E2
:10556000BCF13A0F07D013F801CFBCF1200F02D3E2
:10557000BCF13A0FDED193F800C0BCF13A0F10D164
:1055800012F801CBACF1300CBCF10A0F0AD29A42EE
:1055900008BFBCF1000F05D15A1C0021026008466B
:1055A000704700210846704710B50446002084F873
:1055B00004024FF0FF30C4F82C022046FEF7B5FE7F
:1055C00008B1032010BD94F8FF0194F8FE1141EAE0
:1055D00000204AF65521884201D0022010BD94F8DF
:1055E000372094F83810DFF86006120242EA0141D1
:1055F00094F83620114381420BD094F8532094F84C
:105600005410120242EA014194F85220114381429F
:1056100001D1002010BD012010BD00002DE9F04394
:10562000804685B00020C8F8000014460846FFF701
:105630007BFF070048BF0B2000F1B381DFF80C5659
:1056400005EB8700C6691EB90C2005B0BDE8F083E4
:10565000C8F8006096F8000258B196F8010200F010
:1056600065FDC10705D4002C00F09A81400711D4D4
:1056700096E1002086F8000286F8017296F8010291
:1056800000F05DFDC10748BF032000F18A812CB105
:10569000400703D50A2005B0BDE8F083002130465D
:1056A000FFF782FF00270446012C5BD196F8C21158
:1056B00069B196F8C82196F8C911120442EA01614D
:1056C00096F8C72141EA022196F8C62111430091BC
:1056D00096F8D21169B196F8D82196F8D91112042A
:1056E00042EA016196F8D72141EA022196F8D621D3
:1056F0001143019196F8E21169B196F8E82196F804
:10570000E911120442EA016196F8E72141EA022117
:1057100096F8E6211143029196F8F21169B196F8D4
:10572000F82196F8F911120442EA016196F8F7217E
:1057300041EA022196F8F62111430391B846E94661
:10574000D9F8007027B139463046FFF72DFF00E049
:105750000220040006D008F10108B8F1040F09F195
:105760000409EDD3032C08BF012000F01A81002C9E
:1057700001BF307BF17A41EA0020B0F5007F40F0B4
:105780009780F07DB17D51EA00200DD196F826106A
:1057900096F82700090441EA006096F8251040EACF
:1057A000012096F824100843317CC6F8180201291C
:1057B00018BF022986F803127AD14843717B86F814
:1057C00002120A0074D04A1E114271D1B27C737C5D
:1057D00043EA02220F231A42A6F8082268D1337D39
:1057E000F47C54EA03240DD196F8224096F8233035
:1057F000240444EA036396F8214043EA042396F81C
:1058000020401C43F37B96F80EC05CEA03234FD084
:1058100000EB030C0CEB121C644549D3A4EB0C0405
:10582000B4FBF1F1002943D0012440F6F67E714526
:1058300028BF02244FF6F67E714528BF0324891C39
:10584000C6F81412C6F81C72D919C6F82012032C17
:105850000CEB0701C6F8281212D14ABB96F82E109D
:1058600096F82F00090441EA006096F82D1040EAEE
:10587000012096F82C100843D6F8141289000EE087
:10588000B2B1D6F820124018D6F81412022C0FBF6D
:10589000490001EB410201F0010101EB5201C6F8A0
:1058A000240201F2FF11D6F81802B0EB512F03D2F7
:1058B0000D2005B0BDE8F0834FF0FF30C6F81002B0
:1058C000C6F80C02802086F80502032C01BF96F86A
:1058D000310096F8301041EA002001284FD1791CA0
:1058E0003046FEF722FD002849D186F8050296F8D9
:1058F000FE1196F8FF0141EA00204AF65521884240
:105900003DD1B178F078090441EA0060717840EA4D
:10591000012031780843CE49884230D196F8E6110B
:1059200096F8E701090441EA006096F8E51140EABB
:10593000012096F8E4110843C64988421FD196F821
:10594000EA1196F8EB01090441EA006096F8E911C2
:1059500040EA012096F8E8110843C6F8100296F8CC
:10596000EE1196F8EF01090441EA006096F8ED1196
:1059700040EA012096F8EC110843C6F80C0286F8BC
:105980000042288B401C2883A6F806022868B042F3
:1059900004BF00202860E868B04204BF0020E8602F
:1059A000002005B0BDE8F0839ED8899D00B581B088
:1059B00000281CBFD0F8001200290ED091F8002258
:1059C0005AB1B1F80622B0F80402824205D191F82A
:1059D000010200F0ABFBC00702D5092001B000BDF9
:1059E000002001B000BD03B5080081B044D000E044
:1059F000401C0178202913D33A2911D010F8011F37
:105A000020290DD33A290BD010F8011F202907D3E4
:105A10003A2905D010F8011F202901D33A29E7D1EE
:105A200001783A2909D1029911F8013B303B0A2B40
:105A300022D2814208BF002B1ED18448C16961B1C6
:105A400003688B4204BF00230360C3688B4204BF1A
:105A50000023C360002381F80032019919B1019B32
:105A6000002183F800120199C161019808B1012A4F
:105A700005D0002003B000BD0B2003B000BD002204
:105A800002A901A8FFF7CAFD03B000BD2DE9F24746
:105A90005FEA0008ADF50D7D08BF092000F0BA806F
:105AA0000020C8F8000202F01F0505F0FE028DA9D3
:105AB00083A8FFF7B3FD0028044640F0AA804FF406
:105AC000007000F068FE5FEA000908BF112000F0D6
:105AD000A1808D99CDF82C92CDF824D203A8FFF7A0
:105AE000DBFC889F044660B90FB9062409E005F085
:105AF000FE00411E8941C943C90F03A8FEF744FBBC
:105B000004461C20054200F09180002C00F08680A5
:105B1000042C0BD14D48016800291EBFC068002825
:105B2000122403D103A8FFF709F90446889F45F022
:105B300008056CBB280730D50020B873F8733946C8
:105B4000A1203874462078740020F872387778776E
:105B5000B877F8778398FEF739FF06460020B876C5
:105B6000F876387578750120839981F8040286B13A
:105B70008398D0F82CA23146FEF757FD044638B979
:105B80008398711EC0F80C125146FEF7CEFB0446F6
:105B9000BCB9280748BF45F020058398D0F82C02EF
:105BA000C8F81C02C8F8207205F0FE00411E8941A9
:105BB000C943C90F03A8FEF722FBC8F8280200B9A1
:105BC0000224484600F0E9FD1CBB88F8065288F81C
:105BD00007423946839D2846FEF7F8FEC8F81002B2
:105BE000B97FF87F090441EA0060797F40EA01202B
:105BF000397FC8F800520843C8F80C020020C8F8E2
:105C00000802C8F81802C8F82402B5F80602A8F875
:105C1000040220460DF50E7DBDE8F087F87A1121CB
:105C200008420ED1680785D50824CAE7002CAFD1F9
:105C3000F87AC10648BF0424C3D4A907A9D5C00770
:105C4000A7D50724BDE70000464154009C6800200A
:105C500052526141727241612DE9F84F8146002034
:105C60001860924688464846FFF7A0FE01001FD103
:105C700099F8070201001BD199F80602800758BF66
:105C8000072015D5D9F808020AEB0001814252D24B
:105C9000D9F80C02D9F80812884238BF0846C9F86A
:105CA0000C0299F8060240F0200089F80602002054
:105CB00001B0BDE8F08F00BFC9F81852D9F808024A
:105CC000C0F30801C1F50070824598BF50464944B1
:105CD0004246E8B110F0030300F0068012F8017BA1
:105CE00001F8017B5B1EF9D1830811D012F8017B0A
:105CF00001F8017B5B1E12F8017B01F8017B12F8B1
:105D0000017B01F8017B12F8017B01F8017BEDD1E9
:105D100099F8061241F0400189F806128044D9F83A
:105D200008124118C9F80812AAEB000A0099009A53
:105D3000096841181160BAF1000FA9D0D9F808021A
:105D4000C105BBD1D9F8004294F80212420A4B1E99
:105D500003EA0207FFB2002F40F0F280002840F073
:105D6000B380D9F81002002840F0DA80D4F80C6231
:105D70001EB1D4F81402864200D301264FEA06056C
:105D8000D4F814026D1C854203D30225022EFFF4C1
:105D90007FAF29462046FEF751FB002840F08B805C
:105DA000022D6DD3D4F81402854269D294F8000212
:105DB000012833D064D3032801D01BD360E0D4F88A
:105DC000200200EBD5112046FEF7AFFA010058D1B2
:105DD000A900C1F308016118FF23CA780B701206ED
:105DE00062F07042120E4B708B70CA70012184F801
:105DF000041246E0D4F8200200EB15212046FEF7FD
:105E000094FA01003DD16900C1F308016118FF2334
:105E10000B704B70012184F8041232E0D4F8200298
:105E200005EB550600EB56212046FEF77EFA0100F1
:105E300027D1C6F308002118761C15F0010B1ABFF4
:105E4000087840F0F000FF200870012084F8040278
:105E5000D4F8200200EB56212046FEF766FA010036
:105E60000FD1C6F308016118BBF1000F12BFFF226A
:105E70000A7842F00F020A70012184F8041200E04F
:105E8000022088B9D4F81002C4F80C5210F1010FA6
:105E90000FD0401EC4F8100294F8050240F0010033
:105EA00084F8050228463BE001280CBF4FF0FF357F
:105EB0000125284634E010F1010F18BF012832D027
:105EC000B5427FF45DAFE3E6D9F8240218B3001DB4
:105ED000B2FBF1F101E0891A083002680AB900202A
:105EE0001EE0914214D3891A50F8082F002AF6D0E8
:105EF00091420DD3891A50F8082F002AEFD0914211
:105F000006D3891A50F8082F002AE8D09142E2D22D
:105F10004068401804E0D9F814122046FEF72EFC21
:105F200000283FF4B5AE012832D010F1010F00F087
:105F30007F80D9F81012C9F8140209B9C9F8100203
:105F400099F80602400611D5D9F80002D9F81822AE
:105F500090F801020123494600F00DF9002867D1AD
:105F600099F8060200F0BF0089F806024FF40573A5
:105F7000D9F80002D9F814220344921E1968891E28
:105F80008A4205D290F802125B6901FB02322AB9FB
:105F9000022089F8070201B0BDE8F08FBD185FEA62
:105FA0005A242FD0E219914238BFCC1B90F801023D
:105FB00023462A46414600F0DEF8C8BBD9F818024D
:105FC000401BA0421CD2494608EB40205FF08002F3
:105FD00010F8013B01F8013B521E10F8013B01F89B
:105FE000013B10F8013B01F8013B10F8013B01F8BF
:105FF000013BEDD199F8060200F0BF0089F80602D6
:1060000060028BE6D9F81812A9423FF455AED9F8D0
:106010000812D9F80C229142BFF44EAE90F801025A
:1060200001232A46494600F099F800283FF444AE7F
:10603000012089F8070201B0BDE8F08F30B581B0CA
:106040000446FFF7B3FC010058D194F806128A0603
:1060500054D5480613D5D4F80002D4F8182290F885
:1060600001020123214600F086F810B1012001B0A1
:1060700030BD94F8060200F0BF0084F80602D4F8A0
:106080001C12D4F80002FEF750F9010036D1D4F802
:106090002052E87A40F02000E872D4F80C02287709
:1060A000D4F80C020004000E6877D4F80C02000C3F
:1060B000A877D4F80C02000EE8772846D4F810121E
:1060C000FEF794FC0020A875E875A12028764620EC
:1060D00068760020A874E87494F80602D4F80012D8
:1060E00000F0DF0084F80602012081F80402D4F8F1
:1060F000000201B0BDE83040FEF733B901B030BD59
:1061000010B50446FFF79AFF01000DD12046FFF7B6
:106110004DFC010008D1D4F82802FEF7B6F80100C2
:1061200004BF0021C4F8001210BD000001461F4A40
:10613000501802EB81014968007A496808471B4AF8
:1061400001460020535C43B901205054501802EB23
:1061500081014968007A09680847704730B50446EC
:10616000124D281905EB840481B06468007AA46894
:10617000A04701B030BD30B504460C4D281905EBE1
:10618000840481B06468007AE468A04701B030BD3F
:1061900010B40346054CE01804EB830381B05B6840
:1061A000007A1B6901B010BC184700003469002058
:1061B000002200F0C1BA0268531C036011707047DE
:1061C0000246802A2ADB59B1FF2A01DD00207047F0
:1061D0000FF29C0000EB4200A0F580700088704731
:1061E0000FF28C02B2F800C060451EBF491CB2F825
:1061F00002C060451EBF491CB2F804C0604509D00A
:10620000B2F806C0491C604504D0491C083289B266
:106210008029E7DB01F1800000F0FF00704730B417
:106220000FF24C1100230A4601E05B1C083214886F
:10623000250018BFA04211D054885B1C250018BF50
:10624000A0420BD094885B1C250018BFA04205D04B
:10625000D4885B1C250018BFA042E6D131F813108A
:1062600019B10FF2EC2030F8130030BC7047000079
:10627000AC2000001A2092011E2026202020212080
:10628000C602302060013920520100007D0100006B
:106290000000182019201C201D202220132014206B
:1062A000DC02222161013A20530100007E017801C5
:1062B000A000A100A200A300A400A500A600A700C2
:1062C000A800A900AA00AB00AC00AD00AE00AF0072
:1062D000B000B100B200B300B400B500B600B70022
:1062E000B800B900BA00BB00BC00BD00BE00BF00D2
:1062F000C000C100C200C300C400C500C600C70082
:10630000C800C900CA00CB00CC00CD00CE00CF0031
:10631000D000D100D200D300D400D500D600D700E1
:10632000D800D900DA00DB00DC00DD00DE00DF0091
:10633000E000E100E200E300E400E500E600E70041
:10634000E800E900EA00EB00EC00ED00EE00EF00F1
:10635000F000F100F200F300F400F500F600F700A1
:10636000F800F900FA00FB00FC00FD00FE00FF0051
:1063700061006200630064006500660067006800F9
:1063800069006A006B006C006D006E006F007000A9
:106390007100720073007400750076007700780059
:1063A00079007A00A100A200A300A500AC00AF0014
:1063B000E000E100E200E300E400E500E600E700C1
:1063C000E800E900EA00EB00EC00ED00EE00EF0071
:1063D000F000F100F200F300F400F500F600F80020
:1063E000F900FA00FB00FC00FD00FE00FF000101C7
:1063F00003010501070109010B010D010F01110145
:1064000013011501170119011B011D011F012101B4
:1064100023012501270129012B012D012F01310124
:106420003301350137013A013C013E01400142018F
:106430004401460148014B014D014F0151015301F7
:106440005501570159015B015D015F016101630164
:106450006501670169016B016D016F0171017301D4
:10646000750177017A017C017E019201B103B203CB
:10647000B303B403B503B603B703B803B903BA0350
:10648000BB03BC03BD03BE03BF03C003C103C303FF
:10649000C403C503C603C703C803C903CA03300442
:1064A0003104320433043404350436043704380428
:1064B00039043A043B043C043D043E043F044004D8
:1064C0004104420443044404450446044704480488
:1064D00049044A044B044C044D044E044F04510437
:1064E00052045304540455045604570458045904E0
:1064F0005A045B045C045E045F0470217121722104
:1065000073217421752176217721782179217A21CF
:106510007B217C217D217E217F2141FF42FF43FFA2
:1065200044FF45FF46FF47FF48FF49FF4AFF4BFF37
:106530004CFF4DFF4EFF4FFF50FF51FF52FF53FFE7
:1065400054FF55FF56FF57FF58FF59FF5AFF0000F1
:106550004100420043004400450046004700480017
:1065600049004A004B004C004D004E004F005000C7
:106570005100520053005400550056005700580077
:1065800059005A002100E0FFE1FFE5FFE2FFE3FFD1
:10659000C000C100C200C300C400C500C600C700DF
:1065A000C800C900CA00CB00CC00CD00CE00CF008F
:1065B000D000D100D200D300D400D500D600D8003E
:1065C000D900DA00DB00DC00DD00DE00780100012C
:1065D00002010401060108010A010C010E0110016B
:1065E00012011401160118011A011C011E012001DB
:1065F00022012401260128012A012C012E0130014B
:1066000032013401360139013B013D013F014101B5
:106610004301450147014A014C014E01500152011D
:106620005401560158015A015C015E01600162018A
:106630006401660168016A016C016E0170017201FA
:106640007401760179017B017D019101910392032F
:1066500093039403950396039703980399039A036E
:106660009B039C039D039E039F03A003A103A3031D
:10667000A403A503A603A703A803A903AA03100460
:106680001104120413041404150416041704180446
:1066900019041A041B041C041D041E041F042004F6
:1066A00021042204230424042504260427042804A6
:1066B00029042A042B042C042D042E042F04010485
:1066C000020403040404050406040704080409047E
:1066D0000A040B040C040E040F04602161216221E2
:1066E00063216421652166216721682169216A216E
:1066F0006B216C216D216E216F2121FF22FF23FF71
:1067000024FF25FF26FF27FF28FF29FF2AFF2BFF55
:106710002CFF2DFF2EFF2FFF30FF31FF32FF33FF05
:1067200034FF35FF36FF37FF38FF39FF3AFF0000EF
:1067300062F30F2262F31F42401810F0030308D0E7
:10674000C91A1FD3DB0748BF00F8012D28BF20F866
:10675000022D130030B414461546103928BF20E925
:106760003C00FAD8490728BF20E90C0048BF40F890
:10677000042D890028BF20F8022D48BF00F8012D04
:1067800030BC7047C91818BF00F8012DCB0728BFCF
:1067900000F8012D704700F091BE00F0EABF000044
:1067A0004FF4E07210440268914203D343681A44E4
:1067B000914202D380680028F5D17047DFF85C076A
:1067C000016891B94FF4803181604FF4805141608C
:1067D0004FF0FF31C16001610421DFF844274161BE
:1067E000C2F8BC11DFF83C1701600120704701F1CD
:1067F000080313F0070305D001F10803C3F10803F0
:1068000003F007031944D21A8161C26042F0010308
:106810004B60114428234B60DFF800170969C16100
:1068200070472DE9F84F064601F1080010F0070007
:1068300008BF884607D001F10800C0F1080000F049
:10684000070001EB000802F1080010F0070006D075
:1068500002F10800C0F1080000F0070002441546EC
:10686000A5EB0800A0EB030908EB030B43F00300C2
:10687000C8F80400AB4528BF01F00CFA2879C0071E
:1068800058BF01F007FAB9F1100F38BF01F002FA52
:10689000B069854209D1F0684844F060C6F818B084
:1068A00040F00100CBF8040070E1706985420BD123
:1068B000B0684844B060C6F814B040F00101CBF8AD
:1068C00004104BF8000061E1686800F00301012941
:1068D00040F0AF80C008C0000190C00820283BD223
:1068E000D5F808A0EF680090BD4208BF01F0D2F9CA
:1068F000554508BF01F0CEF968680099C008C0008E
:10690000B0EBC10F18BF01F0C5F9009806EBC0004D
:1069100000F128018A4508D031698A45C0F0848099
:10692000DAF80C10A94240F07F80574506D1009A52
:106930003068012191408843306077E028308742F9
:1069400005D0306987426FD3B868A8426CD1CAF8C5
:106950000C70C7F808A069E0EF68D5F818A0AF423E
:106960000CD0A8683169884223D3C168A94204BF0A
:10697000B968A9421DD1C760B8601CE005F11400D8
:10698000076837B905F110000768A7B101E00846AC
:10699000076807F114010A68002A02BF07F1100115
:1069A0000A68002AF3D13169884202D300210160CC
:1069B00001E001F06FF9BAF1000F37D0E86906EB9A
:1069C00080004FF49871084401688D4208D1076037
:1069D000A7B9EA697068012191408843706025E099
:1069E0003069824508D3DAF81000A84214BFCAF80B
:1069F0001470CAF8107001E001F04CF9B7B13069B9
:106A0000874211D3C7F818A0296929B1814226BF4E
:106A100039618F6101F03EF9686938B131698842A6
:106A200002D37861876101E001F034F901980544EF
:106A3000814468684008400068604FEAD90549F021
:106A40000100CBF804004BF80990202D23D206EB6F
:106A5000C50000F12807BA46B9F1100F38BF01F0A0
:106A600019F9306820FA05F1C90704D40121A940B9
:106A70000843306006E0B868316988422CBF82461E
:106A800001F008F9C7F808B0CAF80CB0CBF808A0B4
:106A9000CBF80C707AE05FEA192108BF002023D000
:106AA000B1F5803F28BF1F201ED2A1F58070000CD9
:106AB00000F008008140A1F58052120C02F004029F
:106AC0009140A1F580431B0CC0F10E0003F00203BE
:106AD000801AC01A994000EBD130C11D29FA01F289
:106AE00002F0010101EB400006EB80014FF49872C7
:106AF0001144CBF81C000022CBF81420CBF8102056
:106B0000726822FA00F3DB0707D4012303FA00F0CE
:106B100010437060C1F800B01DE009681F281DBF58
:106B20004008C0F1190009FA00F0484600E011469B
:106B30004A68D208D2004A4514D0C20F01EB820243
:106B400002F1100340001A68002AF0D13069834234
:106B50001AD3C3F800B0CBF81810CBF80CB0CBF8B0
:106B600008B013E032698868914228BF90420BD385
:106B7000C0F80CB0C1F808B0CBF80800CBF80C1086
:106B80000020CBF8180001E001F084F808F10800BB
:106B9000BDE8E68F2DE9FA4D0546DFF88003006871
:106BA00082B008B9FFF70AFEDFF870030299806827
:106BB00041182F31401E21EA00000299814280F0E5
:106BC000A9814FF4D8716E18B16839B13268801854
:106BD000824280F09F818142C0F09C8101F05EF88A
:106BE00000281EBF0446D0F8008014F1010F00F009
:106BF00091813068716840448142306038BF0146FD
:106C00007160A86980BB286908B1844200D22C61F8
:106C10000020F0613461C6F8148005F12801BF48F6
:106C2000006868624FF0FF3028620020C960896008
:106C300001F108024A610A61801C10312028F5D355
:106C4000B748854203D1A8F1280221462AE055F829
:106C5000040CC00805EBC000A0F1080104EB08001B
:106C6000401AA0F128021DE04FF4E07029180846F0
:106C700000E08068D0B1026843681A449442F8D1B9
:106C8000027B120712D4AA6903689A420ED347689E
:106C90003B449A420AD208EB07014160E868A969BF
:106CA00008EB00022846FFF7A2FD1DE12869844297
:106CB000084638BF2C6104EB080100E0806880B111
:106CC00002688A42FAD1017B09070AD4046041684C
:106CD000414441602146029B284604B0BDE8F04D86
:106CE0009FE5AF6939462846FFF75AFD4FF0000B84
:106CF0000168406808440190273810F007010199A5
:106D00000EBF0020C0F1080000F0070008442F3833
:106D100007F11001884234BF00970090009804F1F9
:106D2000080100F1180A11F00701A8F1280005D0A8
:106D300004F10801C1F1080101F00701401A2144E2
:106D4000A961E86040F001024A60084428224260DC
:106D500072480069E8610098083010F0070018BF19
:106D600000F098FF00991B2048604FF4E07129441F
:106D7000B1E80C5000980830A0E80C503461C6F817
:106D80001480C6F81CB000980830B061019801E08A
:106D90000AF1040A0721CAF804100BF1010B0AF1E9
:106DA00008018142F4D3BBF1020FB8BF00F072FFBB
:106DB0000098B84200F09880C01B3918C4084A688F
:106DC000520852004A6040F0010179603850202C8E
:106DD00020D205EBC40101F12806B046102838BFC7
:106DE00000F058FF286820FA04F1C90704D40121F3
:106DF000A1400843286006E0B068296988422CBF9A
:106E0000804600F047FFB760C8F80C70C7F80880EC
:106E1000FE6069E0010A23D0B1F5803F28BF1F2141
:106E20001ED2A1F58072120C02F008029140A1F569
:106E300080531B0C03F004039940A1F58044240CFB
:106E4000C2F10E0204F00204D21A121BA14002EB9E
:106E5000D131CA1D20FA02F303F0010202EB410115
:106E600005EB81024FF498731A44F96100237B61AA
:106E70003B616B6823FA01F4E40705D401208840E4
:106E80001843686017601CE012681F291DBF49087D
:106E9000C1F1190100FA01F1014600E01A465368F8
:106EA000DB08DB00834210D0CB0F02EB830303F13E
:106EB000100449002368002BF0D12869844211D3C3
:106EC0002760BA61FF60BF600EE0296990688A425E
:106ED00028BF884206D3C7609760B860FA60002078
:106EE000B86101E000F0D6FEE8680299814211D253
:106EF000401AE860A969029A0A44AA6140F00100B8
:106F00005060029840F00300486004B001F10800AE
:106F1000BDE8F08D002004B0BDE8F08D1C690020B4
:106F2000C06200206859883C2DE9F84F04460026CD
:106F300089465FEA1920C9F1000B08BF002123D060
:106F4000B0F5803F28BF1F211ED2A0F58071090C2B
:106F500001F008018840A0F58052120C02F00402F2
:106F60009040A0F580431B0CC1F10E0103F0020319
:106F7000891AC91A984001EBD030C11D29FA01F2D3
:106F800002F0010101EB400104EB8100D0F8300177
:106F900018B31F290FBF4A464A08C2F1190209FA5D
:106FA00002F2002300E052004568ED08ED00A5EB79
:106FB00009055D4503D25FEA050B06460BD045691E
:106FC000D70F00EB8700002D00691CBF85422B46C0
:106FD0000028E8D11846B8BBC6BB01208840400055
:106FE000414208436168084000F05D814142084029
:106FF000401E010B01F01001C840420902F00802D6
:10700000D040830803F00403D840450805F002058A
:107010005118E8405918C0F3400729443944F84052
:10702000401804EB8000D0F830010DE008464168BC
:10703000C908C900A1EB090159453CBF8B4606466A
:1070400001690029F2D140690028F0D1002E00F03A
:107050002A81A068A0EB0900834580F02481206983
:107060008642C0F01E817068C00809EB0B08C000A2
:10707000404518BF00F00EFE06EB0905AE4280F059
:107080001081F768D6F818A0B7420CD0B068216913
:10709000884223D3C168B14204BFB968B1421DD14F
:1070A000C760B8601CE006F11400076837B906F144
:1070B00010000768A7B101E00846076807F114014E
:1070C0000A68002A02BF07F110010A68002AF3D1FA
:1070D0002169884202D30021016001E000F0DAFD5D
:1070E000BAF1000F39D0F06904EB80004FF49871C9
:1070F000084401688E4209D10760380014D1F26952
:107100006068012191408843606026E020698245E3
:1071100008D3DAF81000B04214BFCAF81470CAF8E5
:10712000107001E000F0B6FDBFB12069874212D3B4
:10713000C7F818A0306930B12169884226BF38618C
:10714000876100F0A7FD706938B12169884202D3D8
:107150007861876101E000F09DFDBBF1100F09D25D
:1071600048F00300706006EB0800416841F001013F
:10717000416095E049F0030070604BF001006860E9
:107180004FEADB0045F80BB020281DD204EBC0010C
:1071900001F12807216821FA00F2D207BB4605D485
:1071A000012202FA00F00843206006E0B868216975
:1071B00088422CBF834600F06DFDBD60CBF80C50BB
:1071C000C5F808B0EF606BE05FEA1B2023D0B0F594
:1071D000803F28BF1F201ED2A0F58071090C01F04E
:1071E00008018840A0F58052120C02F00402904081
:1071F000A0F580431B0CC1F10E0103F00203891AB4
:10720000C91A984001EBD030C11D2BFA01F202F0EF
:10721000010101EB400004EB80014FF4987211442E
:10722000E86100226A612A61626822FA00F3DB07E2
:1072300006D4012303FA00F0104360600D601CE0E7
:1072400009681F281DBF4008C0F119000BFA00F0A3
:10725000584600E011464A68D208D2005A4510D07C
:10726000C20F01EB820202F1100340001A68002AEB
:10727000F0D12069834211D31D60A961ED60AD603A
:107280000EE022698868914228BF904206D3C5600B
:107290008D60A860E9600020A86101E000F0FAFCC0
:1072A00008E100F0F7FC02E12DE9F84F04468846BA
:1072B000606841420840401E010B01F01001C840C7
:1072C000420902F00802D040830803F00403D840CA
:1072D000450805F002055118E8405918C0F340066A
:1072E00029447118F040401804EB8000D0F83001B8
:1072F0004168C908C9000646A1EB080A09E008462A
:107300004168C908C900A1EB080151453CBF8A4644
:10731000064601690029F2D140690028F0D12069B0
:107320008642C0F0C2807068C00808EB0A09C0003D
:10733000484518BF00F0AEFC06EB080B5E4580F038
:10734000B480F768B569B7420CD0B068216988424B
:1073500023D3C168B14204BFB968B1421DD1C7602F
:10736000B8601CE006F11400076837B906F1100098
:107370000768A7B101E00846076807F114010A6829
:10738000002A02BF07F110010A68002AF3D121691F
:10739000884202D30021016001E000F07BFC002D57
:1073A00035D0F06904EB80004FF49871084401680F
:1073B0008E4209D10760380011D1F269606801215D
:1073C00091408843606022E02069854205D32869A6
:1073D000B04214BF6F612F6101E000F05BFCB7B1F8
:1073E0002069874211D3BD61306930B1216988427B
:1073F00026BF3861876100F04DFC706938B12169A2
:10740000884202D37861876101E000F043FCBAF161
:10741000100F09D249F00300706006EB09004168C3
:1074200041F0010141603FE048F0030070604AF024
:107430000100CBF804004BF80AA0D4F808804FEA0A
:10744000D805202D28BF00F025FCB8F1000F27D06B
:10745000D4F81490009504EBC50000F128052F46E0
:10746000B8F1100F38BF00F015FC2068009920FA21
:1074700001F2D10705D4009A012191400843206010
:1074800006E0A868216988422CBF074600F002FC8C
:10749000C5F80890C7F80C90C9F80870C9F80C50E6
:1074A000C4F808A0C4F814B004E000F0F3FB002016
:1074B000BDE8F28F06F10800BDE8F28F2DE9F04F2C
:1074C00083B00546C046C046F52DDFF8C04780F0C2
:1074D00002810B2D31BF102705F10B00C708FF00FB
:1074E0002068FE08F04010F0030F42D0C04300F0C7
:1074F0000100861904EBC60000F12808F700D8F84F
:1075000008506868C008C000B84218BF00F0C2FB4D
:10751000D5F80890454508BF00F0BCFB4D4508BFB5
:1075200000F0B8FB6868C008C000B84218BF00F09F
:10753000B1FBC84505D120680121B14088432060D6
:107540000DE02069814508D3D9F80C00A84204D188
:10755000C8F80890C9F80C8001E000F09BFB47F0E8
:1075600003006860E8190835416841F00101416095
:10757000F9E0A168B94280F0C080002800F0A28044
:10758000012505FA06F149004A42B040114308407E
:1075900041420840401E010B01F01001C840420961
:1075A00002F00802D040830803F00403D8404608E4
:1075B00006F002065118F0405918C0F3400871183F
:1075C000414420FA08F000EB010804EBC80000F188
:1075D00028094FEAC80AD9F808607068C008C000D6
:1075E000504518BF00F056FBD6F808B04E4508BF0E
:1075F00000F050FB5E4508BF00F04CFB7068C0080F
:10760000C000504518BF00F045FBD94505D12068A2
:1076100005FA08F1884320600DE02069834508D30E
:10762000DBF80C00B04204D1C9F808B0CBF80C90DC
:1076300001E000F02FFB47F003007060AAEB0708A1
:10764000F019019048F0010001994860019840F854
:107650000880A7684FEAD70ABAF1200F28BF00F0C8
:1076600019FB47B3CDF800A004EBCA00D4F814907E
:1076700000F1280AD346102F38BF00F00BFB20681A
:10768000009920FA01F2D10705D4009905FA01F119
:107690000843206007E0DAF80800216988422CBF1F
:1076A000834600F0F7FACAF80890CBF80C90C9F8B6
:1076B00008B0C9F80CA0C4F8088006F108050198C4
:1076C000606150E06068C0B339462046FFF7ECFDCA
:1076D000050012D047E015F1400F28BF4FF0FF37EB
:1076E0000BD205F10B00C7086068FF0028B13946CE
:1076F0002046FFF719FC050035D1A068B8421CD31D
:10770000C11B626910290AD3D0196061A16041F0E0
:1077100001034360415047F0030050600AE000213C
:10772000A160616140F0030151601044416841F083
:107730000101416002F1080515E0E06887420DD2C1
:10774000C01BA169E060CA19A26140F0010050604D
:1077500001F1080547F00300486004E0394620467F
:10776000FFF718FA0546C046C046284603B0BDE8F4
:10777000F08F00B970472DE9F047A0F10804C0462A
:10778000C046DFF8085528698442C0F079826168F4
:1077900001F00302012A00F07382CA084FEAC2080E
:1077A000CA0704EB080937D4226811F0030F00F070
:1077B000698251420C4484429044C0F061826969FC
:1077C0008C4200F0D980D608202E70D2D4F80CA0BC
:1077D000A768544508BF00F05DFABC4208BF00F03E
:1077E00059FA6068C008C000B0EBC60F18BF00F0BF
:1077F00051FA05EBC60000F128018F4205D0296936
:107800008F4251D3F968A1424ED1BA453DD1286883
:107810000121B140884328604C4580F03182D9F87D
:107820000400C10740F12C82810700F17D81A96924
:10783000894540F0B680E868AC614044E86040F0BB
:107840000101616069698C4202D100216961A9600E
:10785000E969814280F01682DFF83404006808B9D3
:10786000FEF7ACFFA969002900F00C82E86829281E
:1078700024BF2846FEF794FFE869E968884280F053
:1078800001824FF0FF30E861FCE12830824506D0EC
:107890002869824508D3DAF80800A04204D1C7F865
:1078A0000CA0CAF80870B7E700F0F4F9B4E7E7688D
:1078B000A669A7420BD0A168814222D3C868A04222
:1078C00004BFB868A0421CD1CF60B9601BE004F1CE
:1078D00014010F6837B904F110010F689FB101E07E
:1078E00011460F6807F114021368002B02BF07F15D
:1078F00010021368002BF3D1814202D300200860EC
:1079000001E000F0C7F9002E86D0E06905EB8000A9
:107910004FF49871084401688C4209D1076038001F
:1079200011D1E2696868012191408843686073E77A
:107930002869864205D33069A04214BF7761376158
:1079400001E000F0A7F9002F3FF466AF28698742F5
:10795000AAD3BE61216929B1814226BF39618F61F5
:1079600000F098F9606900283FF456AF2969884211
:107970009AD3786187614FE799F8040000F003001B
:1079800003287FF449AFC5F80880D9F804004008FF
:107990004000C9F8040048F00100606044F8088025
:1079A00070E16969894508D1A8686C614044A860A4
:1079B00040F001016160205064E1C008C0004FEA5E
:1079C000D00ABAF1200F804437D2D9F80C70D9F818
:1079D0000860B94508BF00F05DF9B14508BF00F087
:1079E00059F9D9F80400C008C000B0EBCA0F18BF9D
:1079F00000F050F905EBCA0000F128018E4207D0D3
:107A000029698E42C0F08380F168494540F07F804B
:107A1000B74206D12868012101FA0AF1884328609B
:107A200077E02830874205D0286987426FD3B8684D
:107A300048456CD1F760BE606BE0D9F80C70D9F89E
:107A400018604F450DD0D9F808002969884223D322
:107A5000C168494504BFB96849451DD1C760B860D0
:107A60001CE009F11400076837B909F11000076834
:107A7000A7B101E00846076807F114010A68002A67
:107A800002BF07F110010A68002AF3D12969884270
:107A900002D30021016001E000F0FCF8002E38D094
:107AA000D9F81C0005EB80004FF498710844016878
:107AB00089450AD10760380012D1D9F81C206868BE
:107AC000012191408843686023E02869864205D3FC
:107AD0003069484514BF7761376101E000F0DAF89A
:107AE000BFB12869874212D3BE61D9F8101029B1FD
:107AF000814226BF39618F6100F0CCF8D9F81400BB
:107B000038B12969884202D37861876101E000F0C9
:107B1000C1F848F00100606044F808806869844258
:107B20000BD1C5F80880ADE040084000C9F804005A
:107B300048F00100606044F808804FEAD807202F21
:107B400022D205EBC70000F128094E46B8F1100F0C
:107B500038BF00F09FF8286820FA07F1C90704D45D
:107B60000121B9400843286007E0D9F808002969D5
:107B700088422CBF064600F08DF8C9F80840F46032
:107B8000A660C4F80C907DE05FEA182008BF0021D1
:107B900023D0B0F5803F28BF1F211ED2A0F58071F1
:107BA000090C01F008018840A0F58052120C02F087
:107BB00004029040A0F580431B0CC1F10E0103F0BC
:107BC0000203891AC91A984001EBD030C11D28FA66
:107BD00001F202F0010101EB400105EB81004FF4DD
:107BE00098721044002262612261E1616A6822FA9F
:107BF00001F3DB0706D4012303FA01F111436960A5
:107C000004601CE000681F291DBF4908C1F119016B
:107C100008FA01F1414600E010464268D208D2005D
:107C2000424510D0CA0F00EB820202F11003490056
:107C30001A68002AF0D129698B4211D31C60A06117
:107C4000E460A4600EE02A698168904228BF9142F6
:107C500006D3CC608460E060A1600020A06101E0F8
:107C600000F018F8286A401E28620BD1D5F8C80128
:107C700000E080680028FCD14FF0FF30286201E06E
:107C800000F008F8C046C046BDE8F087C06200209A
:107C90001C690020012000F017B80000074908689F
:107CA00008B1002070470648C008C00008600549B8
:107CB000C908C900091A0160704700BF5069002057
:107CC000872C0020804C002080B500F007F8024A85
:107CD00011001820ABBEFBE72600020080B500F0C3
:107CE00033F802000023DB431068984204D01100EF
:107CF0000220ABBE002010605068984204D0111DD5
:107D00000220ABBE0020506001BD000010B584B061
:107D1000040000F019F8A100421810680021C943BE
:107D200088420DD107A00090002C01D1002000E076
:107D3000042001900320029069460120ABBE106030
:107D400004B010BD3A74740000487047700B0020F6
:107D500070B5044682B0A0680668356800208DF8CA
:107D600000006946204601F0A3FD00B39DF8000025
:107D7000217888421BD10421204601F09FFEB0B13A
:107D80004021204601F0BCFE88B10021204601F0D0
:107D90004BFD60B1DFF8540970600021204601F00E
:107DA000C5FD20B10021204601F08EFD10B9012053
:107DB00002B070BD01202870607102B0002070BD5B
:107DC00070B5044682B0A06805682E6800208DF862
:107DD00000006946204601F06BFD002800F0B080ED
:107DE0009DF800002178884240F0AA8000212046BA
:107DF00002F0E4FA002800F0A3800021204602F0FF
:107E0000A1F8002800F09C800021204602F02FFA03
:107E1000002800F095800021204602F006FA002894
:107E200000F08E800021204602F084FA002800F045
:107E300087800021204602F085F8002800F080802D
:107E40000021204602F0C1F8002879D00021204608
:107E500001F00CFD002873D00021204601F0D8FE6F
:107E600000286DD00021204601F0F4FE002867D0E4
:107E70000021204602F067FB002861D00021204647
:107E800002F0E0FA00285BD00021204602F05AF808
:107E9000002855D00021204602F076F800284FD067
:107EA0000021204602F0B3F8002849D000212046E6
:107EB00002F0CEF8002843D00021204601F0DCFF7C
:107EC00000283DD00021204601F0F8FF002837D0DF
:107ED0000021204602F014F8002831D0002120466D
:107EE00002F04AFA60B30021204602F02BF838B3C2
:107EF0000021204602F048F810B30021204602F08D
:107F000086F8E8B10021204602F0A2F8C0B10021B5
:107F1000204602F0BEF898B10021204602F0FFF89A
:107F200070B10021204601F0A7FF48B10021204692
:107F300001F0C4FF20B10021204601F0E1FF10B99B
:107F4000012002B070BD0021204602F0D1F90028C6
:107F5000F6D00021204601F039FE0028F0D00021A3
:107F6000204601F077FE0028EAD00021204602F0EA
:107F700047FA0028E4D00021204601F0E3FF002862
:107F8000DED00021204602F02FF90028D8D00021B1
:107F9000204602F0A3F80028D2D0A07978B1A068DA
:107FA0000068011D204600F0AFF90128C8D000216B
:107FB000204601F0BBFC0028C2D00020A0710020A8
:107FC00068603070607102B070BD000010B504468A
:107FD000A07901285CD0A068006890ED010ADFED6F
:107FE0009B0AB4EE600AF1EE10FA48BF102147D4A4
:107FF000DFED970AB4EE600AF1EE10FA48BF2021D7
:108000003ED4DFED940AB4EE600AF1EE10FA48BFF8
:10801000302135D4DFED900AB4EE600AF1EE10FAAB
:1080200048BF40212CD4DFED8D0AB4EE600AF1EE9A
:1080300010FA48BF502123D4DFEDAF0AB4EE600A36
:10804000F1EE10FA48BF60211AD4DFEDAC0AB4EEAD
:10805000600AF1EE10FA48BF702111D4DFEDA80AD2
:10806000B4EE600AF1EE10FA48BF802108D4DFEDCB
:10807000A50AB4EE600AF1EE10FA4CBF9021A021DF
:10808000204601F053FC08B9012010BD0120A07169
:10809000002010BD30B5044681B0A07900284ED034
:1080A000A0680068051D6946204601F061FC0028B3
:1080B00040D09DF80000002830D010282CD0202877
:1080C00027D0302822D040281DD0502818D0602832
:1080D00013D070280ED0802809D0902804D0A02872
:1080E00025D1DFF8440719E0DFF8380716E0DFF89C
:1080F000300713E0DFF8000610E0DFF8F8050DE0C8
:10810000DFF8EC050AE0DFF8E40507E0DFF8D80562
:1081100004E0DFF8C00A01E0DFF8BC0A28600021B3
:10812000204601F003FC40B9012001B030BDDFF86A
:10813000480C2860012001B030BD0020A07101B0C2
:1081400030BD00B581B001F0B3FB401E8041C00FCF
:1081500001B000BD10B582B0044600208DF80000CB
:108160006946204601F0A4FB20B19DF8000021786B
:10817000884202D0012002B010BD002002B010BD24
:108180002DE9F04184B00C460021CDE90011804674
:10819000694602F09DF9002854D09DF801109DF821
:1081A00000209DF8040002EB01269DF803109DF8C5
:1081B000022002EB01279DF8051000EB012502A922
:1081C000404601F0A3FB00283CD09DF808000C2895
:1081D00038D8DFE800F010373737073737370D3733
:1081E00037370A009FED850A07E09FED850A04E016
:1081F0009FED840A01E09FED840A36B200EE906A9A
:10820000F8EEE00A60EE800AFDEEE00AC4ED000A36
:108210003FB200EE907AF8EEE00A60EE800AFDEEE2
:10822000E00AC4ED010A2DB200EE905AF8EEE00A21
:1082300020EE800ABDEEC00A84ED020A002004B0E0
:10824000BDE8F081012004B0BDE8F081010050419B
:108250000100D041010050420100D04201005043D2
:1082600010B582B00C4669460022C1E9002202F036
:108270002FF910B9012002B010BD9DF801109DF832
:10828000002002EB012121809DF802209DF80310BF
:1082900002EB012161809DF804009DF8051000EBC0
:1082A0000120A08002B0002010BD000010B582B0F7
:1082B0000C46694601F02AFBD0B19DF800000C285D
:1082C00013D8DFE800F007121212101212120C126B
:1082D00012120E004C48206002B0002010BD494828
:1082E000F9E74748F7E74548F5E7DFF8080B20606E
:1082F000012002B010BD00000100D04301405044F5
:108300000180CF440120504510B582B00C4669462B
:1083100001F02EFB10B9012002B010BD9DF8000045
:10832000C8B110281BD020281CD030281DD04028D0
:108330001ED050281FD0602820D0702821D080283F
:1083400022D0902823D0A02824D0DFF82C0A206047
:1083500002B0012010BD206002B0002010BDDFF887
:108360007808F8E7DFF86C08F5E7DFF87C03F2E758
:10837000DFF87803EFE7DFF87803ECE7DFF8740362
:10838000E9E7DFF87403E6E7DFF89404E3E7DFF8F2
:108390009404E0E7DFF89004DDE7000000B581B069
:1083A0008279012A13D104290ED8DFE801F00909E6
:1083B00007050300402104E0302102E0202100E015
:1083C000102101F0B3FAB0B9012001B000BD8068FE
:1083D00000680429F8D8DFE801F00B0B0806040058
:1083E000F2E7C24906E0C04904E0DFF8E81701E01F
:1083F000DFF8E4174160002001B000BD23DBF93E47
:1084000023DB793E23DBF93D23DB793D00B581B0E9
:1084100081790129DFED8F0A55D1B4EE600AF1EEC2
:1084200010FA48BF102147D4DFEDA70AB4EE600A66
:10843000F1EE10FA48BF20213ED4DFEDA40AB4EEDD
:10844000600AF1EE10FA48BF302135D4DFEDA00A02
:10845000B4EE600AF1EE10FA48BF40212CD4DFEDF3
:108460009D0AB4EE600AF1EE10FA48BF502123D401
:10847000DFED990AB4EE600AF1EE10FA48BF602110
:108480001AD4DFED960AB4EE600AF1EE10FA48BF96
:10849000702111D4DFED920AB4EE600AF1EE10FA09
:1084A00048BF802108D4DFED8F0AB4EE600AF1EEF8
:1084B00010FA4CBF9021A02101F038FA00285FD1BA
:1084C000012001B000BD80680068B4EE600AF1EEE2
:1084D00010FA48BFB2EE0A0A50D4DFED7B0AB4EEC0
:1084E000600AF1EE10FA48BFB3EE0A0A46D4DFED97
:1084F000770AB4EE600AF1EE10FA48BF9FED7A0AEF
:108500003CD4DFED730AB4EE600AF1EE10FA48BF16
:108510009FED760A32D4DFED6F0AB4EE600AF1EE19
:1085200010FA48BF9FED720A28D4DFED6B0AB4EE53
:10853000600AF1EE10FA48BF9FED6E0A1ED4DFED1F
:10854000670AB4EE600AF1EE10FA48BF9FED6A0ABE
:1085500014D4DFED630AB4EE600AF1EE10FA48BFFE
:108560009FEDAF0A0AD4DFED5F0AB4EE600AF1EEC8
:1085700010FA4CBF9FEDAB0A9FEDAB0A80ED010AEC
:10858000002001B000BD000010B582B00C46694665
:1085900001F0BCF9F0B19DF800000C2817D8DFE815
:1085A00000F007161616131616160D1616161000DE
:1085B0004FF08040206002B0002010BD4FF081409D
:1085C000F8E74FF08240F5E74FF08340F2E7DFF83D
:1085D00024082060012002B010BD000000B504296D
:1085E00081B010D8DFE801F0030F0B0F0D00002160
:1085F00001F06AF9401E8041C00F01B000BD0821A2
:10860000F6E70C21F4E7012001B000BDDFED870A99
:1086100000B5B4EE600AF1EE10FA81B048BF002157
:1086200011D4DFEDAF0AB4EE600AF1EE10FA48BFE4
:10863000082108D4DFEDAB0AB4EE600AF1EE10FABF
:108640004CBF0C21042101F03FF9401E8041C00FB6
:1086500001B000BD0100504170B5044682B0A06871
:108660000668356800208DF800006946204601F054
:108670001FF900B39DF80000217888421BD1042126
:10868000204601F01BFAB0B14021204601F038FA33
:1086900088B10021204601F0C7F860B1DFF8D408A6
:1086A00070600021204601F0D7F920B10C2120464E
:1086B00001F0A0F910B9012002B070BD012068706E
:1086C000607102B0002070BD0100D0410100504235
:1086D0000100D042010050430100D043014050440A
:1086E0000180CF4401205045000050420000D0429C
:1086F000000050430000D0430040504470B5044691
:1087000082B0A06805682E6800208DF800006946D8
:10871000204601F0CDF898B19DF8000021788842FC
:108720000ED1A07988B1A0680068011D204600F034
:10873000DBF9012804D00021204601F08DF910B9A1
:10874000012002B070BD0020A07100206860707030
:10875000607102B070BD000010B50446A079012818
:108760005CD0A068006890ED010ADFEDA90AB4EEC4
:10877000600AF1EE10FA48BF102147D4DFEDA50AD8
:10878000B4EE600AF1EE10FA48BF20213ED4DFEDCE
:10879000A20AB4EE600AF1EE10FA48BF302135D4D7
:1087A000DFED9E0AB4EE600AF1EE10FA48BF4021F8
:1087B0002CD4DFED9B0AB4EE600AF1EE10FA48BF4C
:1087C000502123D4DFED970AB4EE600AF1EE10FADF
:1087D00048BF60211AD4DFED940AB4EE600AF1EECE
:1087E00010FA48BF702111D4DFED900AB4EE600A90
:1087F000F1EE10FA48BF802108D4DFEDBA0AB4EEDA
:10880000600AF1EE10FA4CBF9021A021204601F041
:1088100023F908B9012010BD0120A071002010BD6E
:108820000080CF44002050450020D045010000408A
:1088300030B5044681B0A07900284ED0A068006809
:10884000051D6946204601F029F9002840D09DF811
:108850000000002830D010282CD0202827D0302825
:1088600022D040281DD0502818D0602813D070285E
:108870000ED0802809D0902804D0A02825D1DFF878
:108880005C0319E0DFF8580316E0DFF8580313E043
:10889000DFF8540310E0DFF854030DE0DFF8500375
:1088A0000AE0DFF8500307E0DFF84C0304E0DFF8EC
:1088B000240301E0DFF8200328600021204601F0B6
:1088C000CBF840B9012001B030BDDFF828052860A1
:1088D000012001B030BD0020A07101B030BD00000A
:1088E000010080400100004100B581B000F0E0FFD0
:1088F000401E8041C00F01B000BD10B582B00446DB
:1089000000208DF800006946204600F0D1FF20B11C
:108910009DF800002178884202D0012002B010BDED
:10892000002002B010BD00002DE9F04184B0804667
:108930000C4601A80021C0E90011404601A901F040
:10894000A3FD002860D001A89DF80420417802EB27
:1089500001269DF807108278007902EB01279DF827
:10896000091000EB01250DF10101404601F032F83C
:10897000002849D09DF80100022808BF9FED900A09
:108980001DD06946404601F057F800283CD09DF8BC
:1089900000000C2838D8DFE800F0103737370D37E3
:1089A00037370A37373707009FED860A07E09FED14
:1089B000860A04E09FED850A01E09FED850A36B244
:1089C00000EE906AF8EEE00A60EE800AFDEEE00A42
:1089D000C4ED000A3FB200EE907AF8EEE00A60EED5
:1089E000800AFDEEE00AC4ED010A2DB200EE905AB5
:1089F000F8EEE00A20EE800ABDEEC00A84ED020A1D
:108A0000002004B0BDE8F081012004B0BDE8F08191
:108A1000010050410100D041010050420100D0420C
:108A2000010050430100D043014050440180CF4435
:108A300010B582B00C4669460022C1E9002201F05F
:108A400023FD10B9012002B010BD9DF801109DF862
:108A5000002002EB012121809DF802209DF80310E7
:108A600002EB012161809DF804009DF8051000EBE8
:108A70000120A08002B0002010BD000030B581B000
:108A80000C4605460DF1010100F0A4FF68B19DF808
:108A90000100022804D14A48206001B0002030BD06
:108AA0006946284600F0C8FF10B9012001B030BD6A
:108AB0009DF800000C2810D8DFE800F0070F0F0F1A
:108AC000090F0F0F0B0F0F0F0D004148E4E73F4850
:108AD000E2E73D48E0E73B48DEE7C648206001B0FA
:108AE000012030BD0120504510B582B00C466946CA
:108AF00000F0D4FF10B9012002B010BD9DF80000B5
:108B0000C0B110281AD020281AD030281AD04028F6
:108B10001AD050281AD060281AD070281AD080286D
:108B20001AD090281AD0A0281AD09348206002B0FA
:108B3000012010BD206002B0002010BD2648F9E7DA
:108B40002448F7E72C48F5E72A48F3E72848F1E7F7
:108B50002648EFE72448EDE72248EBE72048E9E71D
:108B60001E48E7E700B581B08279012A13D10429B4
:108B70000ED8DFE801F0090907050300402104E0F1
:108B8000302102E0202100E0102100F065FFA0B9B3
:108B9000012001B000BD806800680429F8D8DFE832
:108BA00001F00A0A08060400F2E7124904E012493B
:108BB00002E0084900E008494160002001B000BD22
:108BC00000008C4000008C4200000C4200008C41F0
:108BD00000000C410000D041000050410020D04571
:108BE000002050450080CF44004050440000D04356
:108BF000000050430000D0420000504200B581B058
:108C000081790129DFED7A0A55D1B4EE600AF1EEDF
:108C100010FA48BF102147D4DFEDA00AB4EE600A75
:108C2000F1EE10FA48BF20213ED4DFED9D0AB4EEEC
:108C3000600AF1EE10FA48BF302135D4DFED990A11
:108C4000B4EE600AF1EE10FA48BF40212CD4DFEDFB
:108C5000960AB4EE600AF1EE10FA48BF502123D410
:108C6000DFED920AB4EE600AF1EE10FA48BF60211F
:108C70001AD4DFED8F0AB4EE600AF1EE10FA48BFA5
:108C8000702111D4DFED8B0AB4EE600AF1EE10FA18
:108C900048BF802108D4DFED880AB4EE600AF1EE07
:108CA00010FA4CBF9021A02100F0D6FE00285FD121
:108CB000012001B000BD80680068B4EE600AF1EEEA
:108CC00010FA48BFB2EE0A0A50D4DFED740AB4EECF
:108CD000600AF1EE10FA48BFB3EE0A0A46D4DFED9F
:108CE000700AB4EE600AF1EE10FA48BF9FED730A05
:108CF0003CD4DFED6C0AB4EE600AF1EE10FA48BF26
:108D00009FED9C0A32D4DFED680AB4EE600AF1EE02
:108D100010FA48BF9FED980A28D4DFED640AB4EE3C
:108D2000600AF1EE10FA48BF9FED940A1ED4DFED01
:108D3000600AB4EE600AF1EE10FA48BF9FED900AA7
:108D400014D4DFED5C0AB4EE600AF1EE10FA48BF0D
:108D50009FED8C0A0AD4DFED580AB4EE600AF1EEFA
:108D600010FA4CBF9FEDA70A9FEDA70A80ED010AFC
:108D7000002001B000BD0000000080BF30B581B010
:108D80000C460546694600F025FE28B10DF10101AB
:108D9000284600F051FE10B9012001B030BD9DF809
:108DA0000000022805D1DFF86808206001B000202B
:108DB00030BD9DF801000C2814D8DFE800F007133F
:108DC00013130A1313130D1313131000DFF84408C1
:108DD000EBE7DFF84408E8E7DFF84008E5E7DFF80D
:108DE0004008E2E70348206001B0012030BD0000E8
:108DF00001005041000080BF00B5042981B010D8A7
:108E0000DFE801F0030F0B0F0D00002100F0F2FD71
:108E1000401E8041C00F01B000BD0421F6E70C21C7
:108E2000F4E7012001B000BD30B5DFED780AB4EE03
:108E3000600AF1EE10FA81B0044606D5022100F076
:108E4000A7FD38B3002001B030BDDFED710AB4EEEC
:108E5000600AF1EE10FA48BF002511D4DFED6D0A6B
:108E6000B4EE600AF1EE10FA48BF042508D4DFED35
:108E70006A0AB4EE600AF1EE10FA4CBF08250C2520
:108E8000002100F085FD28B12946204600F0B2FD02
:108E90000028D7D1012001B030BD00000100D04131
:108EA000010050420100D042010050430100D04374
:108EB000014050440180CF44012050450000504201
:108EC000DFED560A00B5B4EE600AF1EE10FA81B09B
:108ED00048BF102147D4DFED520AB4EE600AF1EE2C
:108EE00010FA48BF20213ED4DFED4E0AB4EE600AEE
:108EF000F1EE10FA48BF302135D4DFED4B0AB4EE65
:108F0000600AF1EE10FA48BF40212CD4DFED470A89
:108F1000B4EE600AF1EE10FA48BF502123D4DFED21
:108F2000440AB4EE600AF1EE10FA48BF60211AD488
:108F3000DFED400AB4EE600AF1EE10FA48BF70218E
:108F400011D4DFED3D0AB4EE600AF1EE10FA48BF2D
:108F5000802108D4DFED390AB4EE600AF1EE10FA90
:108F60004CBF9021A02100F0E1FC401E8041C00FC9
:108F700001B000BD0000D042000050430000D043CB
:108F8000004050440080CF4410B504469FEDCB0A0A
:108F9000A079012805D12046FFF792FF012804D1CE
:108FA00010BDA068006880ED010A0021204600F095
:108FB0008BFCE8B10621204601F059F9C0B100212F
:108FC000204601F011F998B10021204601F0EAF89D
:108FD00070B10021204601F0C4F848B103212046B9
:108FE00001F023F920B18021204600F0ABFF08B941
:108FF000012010BD1021204601F0E0F9401E804103
:10900000C00F10BD002050450020D0450100FA429D
:10901000010075430100FA4301007A440100504108
:109020000100D041010050420100D04201005043F4
:109030000100D043014050440180CF4401205045FD
:1090400010B50446002101F0B9F948B100212046CD
:1090500000F078FF20B10021204601F008F908B99E
:10906000012010BD0021204601F0DFF8401E8041A4
:10907000C00F10BD10B582B00C46694600F01CFE52
:1090800048B19DF8000010B1202804D101202070C3
:1090900002B0002010BD012002B010BD00B581B0AB
:1090A00001F0C3F8401E8041C00F01B000BD10B5F3
:1090B0000446B3EE0A0AA079012805D12046FFF73D
:1090C000FFFE012804D110BDA068006880ED010AF0
:1090D0000021204600F0F8FB70B11721204601F076
:1090E00032FA48B10421204600F0B4FD20B110212D
:1090F000204600F08DFD08B9012010BD80212046DA
:1091000000F0B4FB401E8041C00F10BD10B50446F6
:10911000002100F0ABFB48B10021204600F078FDB3
:1091200020B10021204600F095FD08B9012010BDB6
:109130000021204601F007FA401E8041C00F10BDFB
:1091400010B582B00C46694600F076FE48B19DF835
:10915000000010B1102804D10120207002B00020BE
:1091600010BD012002B010BD00B581B001F0D4F9EE
:10917000401E8041C00F01B000BD00B581B002218A
:1091800000F002FD401E8041C00F01B000BD00B5DF
:1091900081B0002100F0F8FC401E8041C00F01B0FA
:1091A00000BD00B581B001F0CEF9401E8041C00F76
:1091B00001B000BD10B50446B3EE0A0AA07901283B
:1091C00005D12046FFF77CFE012804D110BDA06820
:1091D000006880ED010A0021204600F075FB48B1CF
:1091E0000421204600F036FD20B10821204600F081
:1091F000EDFC08B9012010BD0221204601F078F8ED
:10920000401E8041C00F10BD10B50446002101F082
:109210006FF820B10021204600F0D8FC08B90120E9
:1092200010BD0021204600F015FD401E8041C00FFA
:1092300010BD10B582B00C46694600F00DFE48B175
:109240009DF8000010B1202804D10120207002B048
:10925000002010BD012002B010BD000010B5044672
:109260009FED160AA079012805D12046FFF728FEB8
:10927000012804D110BDA068006880ED010A00211A
:10928000204600F021FB70B10021204600F0ACFF29
:1092900048B10221204600F021FF20B18021204664
:1092A00000F050FE08B9012010BD2021204601F039
:1092B000A7F8401E8041C00F10BD00000000D04341
:1092C00010B50446002101F09BF848B1002120466A
:1092D00000F038FE20B10021204600F085FF08B9DB
:1092E000012010BD0021204600F0F8FE401E804104
:1092F000C00F10BD10B582B00C46694600F0CCFC22
:1093000048B19DF8000010B1082804D10120207058
:1093100002B0002010BD012002B010BD00B581B028
:1093200000F0DCFE401E8041C00F01B000BD000017
:1093300010B504469FEDB50AA079012805D1204655
:10934000FFF7BEFD012804D110BDA068006880EDC4
:10935000010A0021204600F0B7FA10B30821204688
:1093600000F0CEFDE8B10421204600F0A7FDC0B119
:109370000221204600F080FD98B10821204600F02F
:1093800003FE70B10221204600F041FE48B10121E8
:10939000204600F05DFE20B18021204600F0D2FD85
:1093A00008B9012010BD4021204601F04BF8401EB5
:1093B0008041C00F10BD10B50446002101F042F8F5
:1093C000E8B10021204600F0BDFDC0B100212046DB
:1093D00000F0DAFD98B10021204600F018FE70B1CF
:1093E0000021204600F034FE48B10021204600F064
:1093F00043FD20B10021204600F060FD08B90120A6
:1094000010BD0021204600F07BFD401E8041C00FB2
:1094100010BD10B582B00C46694600F06DFC48B135
:109420009DF8000010B1202804D10120207002B066
:10943000002010BD012002B010BD000010B5044690
:109440009FED720AA079012805D12046FFF738FD6B
:10945000012804D110BDA068006880ED010A002138
:10946000204600F031FA00282CD00821204600F0D8
:1094700047FD38B30421204600F020FD10B302213F
:10948000204600F0F9FCE8B10821204600F07CFD00
:10949000C0B10321204600F0BAFD98B10321204657
:1094A00000F0D6FD70B10821204600F0F2FD48B171
:1094B0008021204600F033FE20B18021204600F0BC
:1094C00041FD08B9012010BD0821204600F054FFDD
:1094D000401E8041C00F10BD10B50446002100F0B1
:1094E0004BFF38B30021204600F02CFD10B30021C3
:1094F000204600F049FDE8B10021204600F087FD3C
:10950000C0B10021204600F0A3FD98B10021204603
:1095100000F0BFFD70B10021204600F000FE48B110
:109520000021204600F0A8FC20B10021204600F0D8
:10953000C5FC08B9012010BD0021204600F0E0FC68
:10954000401E8041C00F10BD10B582B00C46694668
:1095500000F0C2FB48B19DF8000010B1102804D102
:109560000120207002B0002010BD012002B010BD0B
:1095700000B581B000F008FD401E8041C00F01B071
:1095800000BD00B581B000F042FD401E8041C00F1B
:1095900001B000BD00B581B000F05AFD401E804111
:1095A000C00F01B000BD00B581B000F072FD401EDB
:1095B0008041C00F01B000BD10B504469FED130AF5
:1095C000A079012805D12046FFF77AFC012804D1B3
:1095D00010BDA068006880ED010A0021204600F05F
:1095E00073F948B14021204600F0EFFC20B1802102
:1095F000204600F0A7FC08B9012010BD0421204638
:1096000000F098FE401E8041C00F10BD0000D04306
:109610000000FA42000075430000FA4300007A445B
:109620000000FA4410B50446002100F083FE20B18A
:109630000021204600F086FC08B9012010BD002161
:10964000204600F0C2FC401E8041C00F10BD10B586
:1096500082B00C46694600F0BFFB48B19DF800009F
:1096600010B1402804D10120207002B0002010BDAC
:10967000012002B010BD10B582B00C46694600F062
:109680004BFB48B19DF80000002818BF012803D10A
:10969000207002B0002010BD012002B010BD10B536
:1096A00082B00C46694600F047FB48B19DF80000C7
:1096B00010B1022804D10120207002B0002010BD9A
:1096C000012002B010BD10B582B00C46694600F012
:1096D00043FB48B19DF8000010B1042804D10120DB
:1096E000207002B0002010BD012002B010BD10B5E6
:1096F00082B00C46694600F03FFB48B19DF800007F
:1097000010B1082804D10120207002B0002010BD43
:10971000012002B010BD10B582B00C46694600F0C1
:109720003BFB48B19DF8000010B1102804D1012086
:10973000207002B0002010BD012002B010BD10B595
:1097400082B00C46694600F037FB48B19DF8000036
:1097500010B1202804D10120207002B0002010BDDB
:10976000012002B010BD00B581B000F049F8401EE4
:109770008041C00F01B000BD00B581B000F04AF8D3
:10978000401E8041C00F01B000BD10B582B00C4634
:10979000694600F031FB48B19DF80000002818BF71
:1097A000012803D1207002B0002010BD012002B0BA
:1097B00010BD00B581B000F023F8401E8041C00FFD
:1097C00001B000BD00B581B000F024F8401E80411A
:1097D000C00F01B000BD10B582B00C46694600F064
:1097E0001BFB48B19DF8000010B1022804D10120F4
:1097F000207002B0002010BD012002B010BD00009A
:1098000000B581B0012301F098F9401E8041C00FDE
:1098100001B000BD04B501236A4601F0F9F8401E0D
:109820008041C00F01B000BD30B581B00D46044687
:1098300001236A460A2101F080F910B1002001B02D
:1098400030BD9DF8000000F0F80028438DF80000BE
:109850008DF8010001230DF101020A21204601F0DB
:10986000D7F8401E8041C00F01B030BD30B581B087
:109870000D46044601236A460E2101F05EF910B13F
:10988000002001B030BD9DF8000000F07F002843AB
:109890008DF800008DF8010001230DF101020E2169
:1098A000204601F0B5F8401E8041C00F01B030BD28
:1098B00000B50A4681B001230F2101F03EF9401E98
:1098C0008041C00F01B000BD30B581B00D460446E7
:1098D00001236A46102101F030F910B1002001B0D7
:1098E00030BD9DF8000000F0F30028438DF8000023
:1098F0008DF8010001230DF101021021204601F035
:1099000087F8401E8041C00F01B030BD10B50C4635
:1099100001232246102101F010F908B1002010BDEA
:10992000207800F00C002070012010BD30B581B00F
:109930000D46044601236A46102101F0FEF810B1DD
:10994000002001B030BD9DF8000000F00F0028435A
:109950008DF800008DF8010001230DF101021021A6
:10996000204601F055F8401E8041C00F01B030BDC7
:1099700010B50C4601232246102101F0DEF808B193
:10998000002010BD207800F0F0002070012010BDF4
:1099900030B581B00D46044601236A46112101F01D
:1099A000CCF810B1002001B030BD9DF8000000F0EF
:1099B000FD0028438DF800008DF8010001230DF112
:1099C00001021121204601F023F8401E8041C00F02
:1099D00001B030BD10B50C4601232246112101F023
:1099E000ACF808B1002010BD207800F00200207013
:1099F000012010BD30B581B00D46044601236A46F2
:109A0000112101F09AF810B1002001B030BD9DF88D
:109A1000000000F0F30028438DF800008DF80100ED
:109A200001230DF101021121204600F0F1FF401E3B
:109A30008041C00F01B030BD10B50C460123224655
:109A4000112101F07AF808B1002010BD207800F053
:109A50000C002070012010BD30B581B00D460446C9
:109A600001236A46112101F068F810B1002001B00D
:109A700030BD9DF8000000F00F0028438DF8000075
:109A80008DF8010001230DF101021121204600F0A3
:109A9000BFFF401E8041C00F01B030BD10B50C4665
:109AA00001232246112101F048F808B1002010BD21
:109AB000207800F0F0002070012010BD30B581B09A
:109AC0000D46044601236A46122101F036F810B112
:109AD000002001B030BD9DF8000000F0FB002843DD
